{
  "address": "0x87C81AbF28aD00CC29562032e37aDA74674C5292",
  "abi": [
    {
      "anonymous": false,
      "inputs": [
        {
          "indexed": false,
          "internalType": "address",
          "name": "nft",
          "type": "address"
        },
        {
          "indexed": false,
          "internalType": "address",
          "name": "owner",
          "type": "address"
        },
        {
          "indexed": false,
          "internalType": "string",
          "name": "name",
          "type": "string"
        },
        {
          "indexed": false,
          "internalType": "string",
          "name": "symbol",
          "type": "string"
        },
        {
          "indexed": false,
          "internalType": "enum ContractType",
          "name": "contractType",
          "type": "uint8"
        }
      ],
      "name": "Deployed",
      "type": "event"
    },
    {
      "anonymous": false,
      "inputs": [
        {
          "indexed": false,
          "internalType": "uint8",
          "name": "version",
          "type": "uint8"
        }
      ],
      "name": "Initialized",
      "type": "event"
    },
    {
      "anonymous": false,
      "inputs": [
        {
          "indexed": true,
          "internalType": "address",
          "name": "previousOwner",
          "type": "address"
        },
        {
          "indexed": true,
          "internalType": "address",
          "name": "newOwner",
          "type": "address"
        }
      ],
      "name": "OwnershipTransferred",
      "type": "event"
    },
    {
      "inputs": [
        {
          "internalType": "address",
          "name": "newImplementation",
          "type": "address"
        }
      ],
      "name": "authorizeUpgrade",
      "outputs": [],
      "stateMutability": "view",
      "type": "function"
    },
    {
      "inputs": [
        {
          "internalType": "string",
          "name": "name_",
          "type": "string"
        },
        {
          "internalType": "string",
          "name": "symbol_",
          "type": "string"
        },
        {
          "internalType": "bool",
          "name": "gelatoRelayEnabled_",
          "type": "bool"
        },
        {
          "internalType": "address",
          "name": "certificateAuthority_",
          "type": "address"
        }
      ],
      "name": "deployLinkForge1155",
      "outputs": [],
      "stateMutability": "payable",
      "type": "function"
    },
    {
      "inputs": [
        {
          "internalType": "address",
          "name": "token",
          "type": "address"
        }
      ],
      "name": "getFeeRelayed",
      "outputs": [
        {
          "internalType": "uint256",
          "name": "",
          "type": "uint256"
        }
      ],
      "stateMutability": "view",
      "type": "function"
    },
    {
      "inputs": [],
      "name": "getFeeSelfClaimed",
      "outputs": [
        {
          "internalType": "uint256",
          "name": "",
          "type": "uint256"
        }
      ],
      "stateMutability": "view",
      "type": "function"
    },
    {
      "inputs": [],
      "name": "implementation",
      "outputs": [
        {
          "internalType": "address",
          "name": "",
          "type": "address"
        }
      ],
      "stateMutability": "view",
      "type": "function"
    },
    {
      "inputs": [
        {
          "internalType": "address",
          "name": "nft",
          "type": "address"
        },
        {
          "internalType": "string",
          "name": "name",
          "type": "string"
        },
        {
          "internalType": "string",
          "name": "symbol",
          "type": "string"
        },
        {
          "internalType": "enum ContractType",
          "name": "contractType",
          "type": "uint8"
        }
      ],
      "name": "importDeployed",
      "outputs": [],
      "stateMutability": "nonpayable",
      "type": "function"
    },
    {
      "inputs": [
        {
          "internalType": "address",
          "name": "implementation_",
          "type": "address"
        }
      ],
      "name": "initialize",
      "outputs": [],
      "stateMutability": "nonpayable",
      "type": "function"
    },
    {
      "inputs": [],
      "name": "owner",
      "outputs": [
        {
          "internalType": "address",
          "name": "",
          "type": "address"
        }
      ],
      "stateMutability": "view",
      "type": "function"
    },
    {
      "inputs": [],
      "name": "renounceOwnership",
      "outputs": [],
      "stateMutability": "nonpayable",
      "type": "function"
    },
    {
      "inputs": [
        {
          "internalType": "address",
          "name": "token",
          "type": "address"
        },
        {
          "internalType": "uint256",
          "name": "value",
          "type": "uint256"
        }
      ],
      "name": "setFeeRelayed",
      "outputs": [],
      "stateMutability": "nonpayable",
      "type": "function"
    },
    {
      "inputs": [
        {
          "internalType": "uint256",
          "name": "value",
          "type": "uint256"
        }
      ],
      "name": "setFeeSelfClaimed",
      "outputs": [],
      "stateMutability": "nonpayable",
      "type": "function"
    },
    {
      "inputs": [
        {
          "internalType": "address",
          "name": "implementation_",
          "type": "address"
        }
      ],
      "name": "setImplementation",
      "outputs": [],
      "stateMutability": "nonpayable",
      "type": "function"
    },
    {
      "inputs": [
        {
          "internalType": "address",
          "name": "newOwner",
          "type": "address"
        }
      ],
      "name": "transferOwnership",
      "outputs": [],
      "stateMutability": "nonpayable",
      "type": "function"
    },
    {
      "inputs": [
        {
          "internalType": "uint256",
          "name": "amount",
          "type": "uint256"
        }
      ],
      "name": "withdraw",
      "outputs": [],
      "stateMutability": "nonpayable",
      "type": "function"
    },
    {
      "inputs": [
        {
          "internalType": "contract IERC20",
          "name": "token",
          "type": "address"
        },
        {
          "internalType": "uint256",
          "name": "amount",
          "type": "uint256"
        }
      ],
      "name": "withdrawERC20",
      "outputs": [],
      "stateMutability": "nonpayable",
      "type": "function"
    },
    {
      "stateMutability": "payable",
      "type": "receive"
    }
  ],
  "transactionHash": "0x6ed0cbf44cf89ec26726eb1112997f557c062611f884a49376bfdee912c9c675",
  "args": [],
  "numDeployments": 1,
  "solcInputHash": "910ec6b6f0b016e9a1f205524fdaee0b",
  "bytecode": "0x608060405234801561001057600080fd5b5061188c806100206000396000f3fe608060405260043610620000ff5760003560e01c80638da5cb5b1162000095578063d784d4261162000060578063d784d42614620002e4578063da26c9641462000309578063f2fde38b146200032e578063fe060733146200035357600080fd5b80638da5cb5b1462000248578063a1db97821462000275578063a24984c6146200029a578063c4d66de814620002bf57600080fd5b80634887729911620000d657806348877299146200016f5780635c60da1b14620001b657806370448239146200020b578063715018a6146200023057600080fd5b8063260fc331146200010c5780632e1a7d4d14620001255780634412ebcc146200014a57600080fd5b366200010757005b600080fd5b620001236200011d36600462000d7b565b62000378565b005b3480156200013257600080fd5b50620001236200014436600462000e1b565b62000598565b3480156200015757600080fd5b506067545b6040519081526020015b60405180910390f35b3480156200017c57600080fd5b506200015c6200018e36600462000e35565b73ffffffffffffffffffffffffffffffffffffffff1660009081526066602052604090205490565b348015620001c357600080fd5b50606554620001e59073ffffffffffffffffffffffffffffffffffffffff1681565b60405173ffffffffffffffffffffffffffffffffffffffff909116815260200162000166565b3480156200021857600080fd5b50620001236200022a36600462000e1b565b620005d4565b3480156200023d57600080fd5b5062000123620005e3565b3480156200025557600080fd5b5060335473ffffffffffffffffffffffffffffffffffffffff16620001e5565b3480156200028257600080fd5b50620001236200029436600462000e5c565b620005fb565b348015620002a757600080fd5b5062000123620002b936600462000e5c565b620006a4565b348015620002cc57600080fd5b5062000123620002de36600462000e35565b620006d7565b348015620002f157600080fd5b50620001236200030336600462000e35565b620008b6565b3480156200031657600080fd5b50620001236200032836600462000e8b565b62000907565b3480156200033b57600080fd5b50620001236200034d36600462000e35565b620009cf565b3480156200036057600080fd5b50620001236200037236600462000e35565b62000a8c565b60655460405160009173ffffffffffffffffffffffffffffffffffffffff1690620003a39062000cef565b73ffffffffffffffffffffffffffffffffffffffff9091168152604060208201819052600090820152606001604051809103906000f080158015620003ec573d6000803e3d6000fd5b506040517fa786aee900000000000000000000000000000000000000000000000000000000815290915073ffffffffffffffffffffffffffffffffffffffff82169063a786aee99062000450908a908a908a908a908a908a90309060040162000f69565b600060405180830381600087803b1580156200046b57600080fd5b505af115801562000480573d6000803e3d6000fd5b50506040517ff2fde38b00000000000000000000000000000000000000000000000000000000815233600482015273ffffffffffffffffffffffffffffffffffffffff8416925063f2fde38b9150602401600060405180830381600087803b158015620004ec57600080fd5b505af115801562000501573d6000803e3d6000fd5b505050507fb485d9951ee7846491c8f0338309db6e28380af972216d746ec459a660b8e409813389898989600060405162000543979695949392919062000fcb565b60405180910390a160405173ffffffffffffffffffffffffffffffffffffffff8216903480156108fc02916000818181858888f193505050501580156200058e573d6000803e3d6000fd5b5050505050505050565b620005a262000ab4565b604051339082156108fc029083906000818181858888f19350505050158015620005d0573d6000803e3d6000fd5b5050565b620005de62000ab4565b606755565b620005ed62000ab4565b620005f9600062000b37565b565b6200060562000ab4565b6040517fa9059cbb0000000000000000000000000000000000000000000000000000000081523360048201526024810182905273ffffffffffffffffffffffffffffffffffffffff83169063a9059cbb906044016020604051808303816000875af115801562000679573d6000803e3d6000fd5b505050506040513d601f19601f820116820180604052508101906200069f919062001069565b505050565b620006ae62000ab4565b73ffffffffffffffffffffffffffffffffffffffff909116600090815260666020526040902055565b600054610100900460ff1615808015620006f85750600054600160ff909116105b80620007145750303b15801562000714575060005460ff166001145b620007a6576040517f08c379a000000000000000000000000000000000000000000000000000000000815260206004820152602e60248201527f496e697469616c697a61626c653a20636f6e747261637420697320616c72656160448201527f647920696e697469616c697a656400000000000000000000000000000000000060648201526084015b60405180910390fd5b600080547fffffffffffffffffffffffffffffffffffffffffffffffffffffffffffffff0016600117905580156200080557600080547fffffffffffffffffffffffffffffffffffffffffffffffffffffffffffff00ff166101001790555b606580547fffffffffffffffffffffffff00000000000000000000000000000000000000001673ffffffffffffffffffffffffffffffffffffffff84161790556200084f62000bae565b8015620005d057600080547fffffffffffffffffffffffffffffffffffffffffffffffffffffffffffff00ff169055604051600181527f7f26b83ff96e1f2b6a682f133852f6798a09c465da95921460cefb38474024989060200160405180910390a15050565b620008c062000ab4565b606580547fffffffffffffffffffffffff00000000000000000000000000000000000000001673ffffffffffffffffffffffffffffffffffffffff92909216919091179055565b6200091162000ab4565b7fb485d9951ee7846491c8f0338309db6e28380af972216d746ec459a660b8e409868773ffffffffffffffffffffffffffffffffffffffff16638da5cb5b6040518163ffffffff1660e01b8152600401602060405180830381865afa1580156200097f573d6000803e3d6000fd5b505050506040513d601f19601f82011682018060405250810190620009a5919062001089565b8787878787604051620009bf979695949392919062000fcb565b60405180910390a1505050505050565b620009d962000ab4565b73ffffffffffffffffffffffffffffffffffffffff811662000a7e576040517f08c379a000000000000000000000000000000000000000000000000000000000815260206004820152602660248201527f4f776e61626c653a206e6577206f776e657220697320746865207a65726f206160448201527f646472657373000000000000000000000000000000000000000000000000000060648201526084016200079d565b62000a898162000b37565b50565b60655473ffffffffffffffffffffffffffffffffffffffff82811691161462000a8957600080fd5b60335473ffffffffffffffffffffffffffffffffffffffff163314620005f9576040517f08c379a000000000000000000000000000000000000000000000000000000000815260206004820181905260248201527f4f776e61626c653a2063616c6c6572206973206e6f7420746865206f776e657260448201526064016200079d565b6033805473ffffffffffffffffffffffffffffffffffffffff8381167fffffffffffffffffffffffff0000000000000000000000000000000000000000831681179093556040519116919082907f8be0079c531659141344cd1fd0a4f28419497f9722a3daafe3b4186f6b6457e090600090a35050565b600054610100900460ff1662000c47576040517f08c379a000000000000000000000000000000000000000000000000000000000815260206004820152602b60248201527f496e697469616c697a61626c653a20636f6e7472616374206973206e6f74206960448201527f6e697469616c697a696e6700000000000000000000000000000000000000000060648201526084016200079d565b620005f9600054610100900460ff1662000ce4576040517f08c379a000000000000000000000000000000000000000000000000000000000815260206004820152602b60248201527f496e697469616c697a61626c653a20636f6e7472616374206973206e6f74206960448201527f6e697469616c697a696e6700000000000000000000000000000000000000000060648201526084016200079d565b620005f93362000b37565b6107ad80620010aa83390190565b60008083601f84011262000d1057600080fd5b50813567ffffffffffffffff81111562000d2957600080fd5b60208301915083602082850101111562000d4257600080fd5b9250929050565b801515811462000a8957600080fd5b73ffffffffffffffffffffffffffffffffffffffff8116811462000a8957600080fd5b6000806000806000806080878903121562000d9557600080fd5b863567ffffffffffffffff8082111562000dae57600080fd5b62000dbc8a838b0162000cfd565b9098509650602089013591508082111562000dd657600080fd5b5062000de589828a0162000cfd565b909550935050604087013562000dfb8162000d49565b9150606087013562000e0d8162000d58565b809150509295509295509295565b60006020828403121562000e2e57600080fd5b5035919050565b60006020828403121562000e4857600080fd5b813562000e558162000d58565b9392505050565b6000806040838503121562000e7057600080fd5b823562000e7d8162000d58565b946020939093013593505050565b6000806000806000806080878903121562000ea557600080fd5b863562000eb28162000d58565b9550602087013567ffffffffffffffff8082111562000ed057600080fd5b62000ede8a838b0162000cfd565b9097509550604089013591508082111562000ef857600080fd5b5062000f0789828a0162000cfd565b90945092505060608701356001811062000e0d57600080fd5b8183528181602085013750600060208284010152600060207fffffffffffffffffffffffffffffffffffffffffffffffffffffffffffffffe0601f840116840101905092915050565b60a08152600062000f7f60a08301898b62000f20565b828103602084015262000f9481888a62000f20565b9515156040840152505073ffffffffffffffffffffffffffffffffffffffff92831660608201529116608090910152949350505050565b600073ffffffffffffffffffffffffffffffffffffffff808a16835280891660208401525060a060408301526200100760a08301878962000f20565b82810360608401526200101c81868862000f20565b9150506001831062001057577f4e487b7100000000000000000000000000000000000000000000000000000000600052602160045260246000fd5b82608083015298975050505050505050565b6000602082840312156200107c57600080fd5b815162000e558162000d49565b6000602082840312156200109c57600080fd5b815162000e558162000d5856fe60806040526040516107ad3803806107ad83398101604081905261002291610319565b61002e82826000610035565b5050610436565b61003e8361006b565b60008251118061004b5750805b156100665761006483836100ab60201b6100291760201c565b505b505050565b610074816100d7565b6040516001600160a01b038216907fbc7cd75a20ee27fd9adebab32041f755214dbc6bffa90cc0225b39da2e5c2d3b90600090a250565b60606100d08383604051806060016040528060278152602001610786602791396101a9565b9392505050565b6100ea8161022260201b6100551760201c565b6101515760405162461bcd60e51b815260206004820152602d60248201527f455243313936373a206e657720696d706c656d656e746174696f6e206973206e60448201526c1bdd08184818dbdb9d1c9858dd609a1b60648201526084015b60405180910390fd5b806101887f360894a13ba1a3210667c828492db98dca3e2076cc3735a920a3ca505d382bbc60001b61023160201b6100711760201c565b80546001600160a01b0319166001600160a01b039290921691909117905550565b6060600080856001600160a01b0316856040516101c691906103e7565b600060405180830381855af49150503d8060008114610201576040519150601f19603f3d011682016040523d82523d6000602084013e610206565b606091505b50909250905061021886838387610234565b9695505050505050565b6001600160a01b03163b151590565b90565b606083156102a357825160000361029c576001600160a01b0385163b61029c5760405162461bcd60e51b815260206004820152601d60248201527f416464726573733a2063616c6c20746f206e6f6e2d636f6e74726163740000006044820152606401610148565b50816102ad565b6102ad83836102b5565b949350505050565b8151156102c55781518083602001fd5b8060405162461bcd60e51b81526004016101489190610403565b634e487b7160e01b600052604160045260246000fd5b60005b838110156103105781810151838201526020016102f8565b50506000910152565b6000806040838503121561032c57600080fd5b82516001600160a01b038116811461034357600080fd5b60208401519092506001600160401b038082111561036057600080fd5b818501915085601f83011261037457600080fd5b815181811115610386576103866102df565b604051601f8201601f19908116603f011681019083821181831017156103ae576103ae6102df565b816040528281528860208487010111156103c757600080fd5b6103d88360208301602088016102f5565b80955050505050509250929050565b600082516103f98184602087016102f5565b9190910192915050565b60208152600082518060208401526104228160408501602087016102f5565b601f01601f19169190910160400192915050565b610341806104456000396000f3fe60806040523661001357610011610017565b005b6100115b610027610022610074565b6100b9565b565b606061004e83836040518060600160405280602781526020016102e5602791396100dd565b9392505050565b73ffffffffffffffffffffffffffffffffffffffff163b151590565b90565b60006100b47f360894a13ba1a3210667c828492db98dca3e2076cc3735a920a3ca505d382bbc5473ffffffffffffffffffffffffffffffffffffffff1690565b905090565b3660008037600080366000845af43d6000803e8080156100d8573d6000f35b3d6000fd5b60606000808573ffffffffffffffffffffffffffffffffffffffff16856040516101079190610277565b600060405180830381855af49150503d8060008114610142576040519150601f19603f3d011682016040523d82523d6000602084013e610147565b606091505b509150915061015886838387610162565b9695505050505050565b606083156101fd5782516000036101f65773ffffffffffffffffffffffffffffffffffffffff85163b6101f6576040517f08c379a000000000000000000000000000000000000000000000000000000000815260206004820152601d60248201527f416464726573733a2063616c6c20746f206e6f6e2d636f6e747261637400000060448201526064015b60405180910390fd5b5081610207565b610207838361020f565b949350505050565b81511561021f5781518083602001fd5b806040517f08c379a00000000000000000000000000000000000000000000000000000000081526004016101ed9190610293565b60005b8381101561026e578181015183820152602001610256565b50506000910152565b60008251610289818460208701610253565b9190910192915050565b60208152600082518060208401526102b2816040850160208701610253565b601f017fffffffffffffffffffffffffffffffffffffffffffffffffffffffffffffffe016919091016040019291505056fe416464726573733a206c6f772d6c6576656c2064656c65676174652063616c6c206661696c6564a264697066735822122078dedcfc8d730e746a1440159b094e08e77d9b66150f7b9fd74626b4c427f9f364736f6c63430008110033416464726573733a206c6f772d6c6576656c2064656c65676174652063616c6c206661696c6564a2646970667358221220837d1167c6f22ad28eae5288200912c5783c47f53722d3791eb45efa3242894064736f6c63430008110033",
  "devdoc": {
    "kind": "dev",
    "methods": {
      "owner()": {
        "details": "Returns the address of the current owner."
      },
      "renounceOwnership()": {
        "details": "Leaves the contract without owner. It will not be possible to call `onlyOwner` functions anymore. Can only be called by the current owner. NOTE: Renouncing ownership will leave the contract without an owner, thereby removing any functionality that is only available to the owner."
      },
      "transferOwnership(address)": {
        "details": "Transfers ownership of the contract to a new account (`newOwner`). Can only be called by the current owner."
      }
    },
    "version": 1
  },
  "userdoc": {
    "kind": "user",
    "methods": {},
    "version": 1
  },
  "storageLayout": {
    "storage": [
      {
        "astId": 815,
        "contract": "contracts/Factory.sol:Factory",
        "label": "_initialized",
        "offset": 0,
        "slot": "0",
        "type": "t_uint8"
      },
      {
        "astId": 818,
        "contract": "contracts/Factory.sol:Factory",
        "label": "_initializing",
        "offset": 1,
        "slot": "0",
        "type": "t_bool"
      },
      {
        "astId": 1438,
        "contract": "contracts/Factory.sol:Factory",
        "label": "__gap",
        "offset": 0,
        "slot": "1",
        "type": "t_array(t_uint256)50_storage"
      },
      {
        "astId": 298,
        "contract": "contracts/Factory.sol:Factory",
        "label": "_owner",
        "offset": 0,
        "slot": "51",
        "type": "t_address"
      },
      {
        "astId": 418,
        "contract": "contracts/Factory.sol:Factory",
        "label": "__gap",
        "offset": 0,
        "slot": "52",
        "type": "t_array(t_uint256)49_storage"
      },
      {
        "astId": 4280,
        "contract": "contracts/Factory.sol:Factory",
        "label": "implementation",
        "offset": 0,
        "slot": "101",
        "type": "t_address"
      },
      {
        "astId": 4284,
        "contract": "contracts/Factory.sol:Factory",
        "label": "_feeRelayed",
        "offset": 0,
        "slot": "102",
        "type": "t_mapping(t_address,t_uint256)"
      },
      {
        "astId": 4286,
        "contract": "contracts/Factory.sol:Factory",
        "label": "_feeSelfClaimed",
        "offset": 0,
        "slot": "103",
        "type": "t_uint256"
      }
    ],
    "types": {
      "t_address": {
        "encoding": "inplace",
        "label": "address",
        "numberOfBytes": "20"
      },
      "t_array(t_uint256)49_storage": {
        "base": "t_uint256",
        "encoding": "inplace",
        "label": "uint256[49]",
        "numberOfBytes": "1568"
      },
      "t_array(t_uint256)50_storage": {
        "base": "t_uint256",
        "encoding": "inplace",
        "label": "uint256[50]",
        "numberOfBytes": "1600"
      },
      "t_bool": {
        "encoding": "inplace",
        "label": "bool",
        "numberOfBytes": "1"
      },
      "t_mapping(t_address,t_uint256)": {
        "encoding": "mapping",
        "key": "t_address",
        "label": "mapping(address => uint256)",
        "numberOfBytes": "32",
        "value": "t_uint256"
      },
      "t_uint256": {
        "encoding": "inplace",
        "label": "uint256",
        "numberOfBytes": "32"
      },
      "t_uint8": {
        "encoding": "inplace",
        "label": "uint8",
        "numberOfBytes": "1"
      }
    }
  }
}