{
  "address": "0xB4726B803812625d2872a9e887b05577f76740E9",
  "abi": [
    {
      "inputs": [],
      "stateMutability": "nonpayable",
      "type": "constructor"
    },
    {
      "inputs": [],
      "name": "AccountBalanceOverflow",
      "type": "error"
    },
    {
      "inputs": [],
      "name": "ArrayLengthsMismatch",
      "type": "error"
    },
    {
      "inputs": [],
      "name": "ExceedSalePrice",
      "type": "error"
    },
    {
      "inputs": [],
      "name": "GelatoRelayNotEnabled",
      "type": "error"
    },
    {
      "inputs": [],
      "name": "InsufficientBalance",
      "type": "error"
    },
    {
      "inputs": [],
      "name": "InvalidCertificate",
      "type": "error"
    },
    {
      "inputs": [],
      "name": "InvalidReceiver",
      "type": "error"
    },
    {
      "inputs": [],
      "name": "InvalidSignature",
      "type": "error"
    },
    {
      "inputs": [],
      "name": "InvalidSigner",
      "type": "error"
    },
    {
      "inputs": [],
      "name": "NewOwnerIsZeroAddress",
      "type": "error"
    },
    {
      "inputs": [],
      "name": "NoHandoverRequest",
      "type": "error"
    },
    {
      "inputs": [],
      "name": "NotOwnerNorApproved",
      "type": "error"
    },
    {
      "inputs": [],
      "name": "TransferToNonERC1155ReceiverImplementer",
      "type": "error"
    },
    {
      "inputs": [],
      "name": "TransferToZeroAddress",
      "type": "error"
    },
    {
      "inputs": [],
      "name": "Unauthorized",
      "type": "error"
    },
    {
      "inputs": [],
      "name": "ZeroAddress",
      "type": "error"
    },
    {
      "anonymous": false,
      "inputs": [
        {
          "indexed": false,
          "internalType": "address",
          "name": "previousAdmin",
          "type": "address"
        },
        {
          "indexed": false,
          "internalType": "address",
          "name": "newAdmin",
          "type": "address"
        }
      ],
      "name": "AdminChanged",
      "type": "event"
    },
    {
      "anonymous": false,
      "inputs": [
        {
          "indexed": true,
          "internalType": "address",
          "name": "owner",
          "type": "address"
        },
        {
          "indexed": true,
          "internalType": "address",
          "name": "operator",
          "type": "address"
        },
        {
          "indexed": false,
          "internalType": "bool",
          "name": "isApproved",
          "type": "bool"
        }
      ],
      "name": "ApprovalForAll",
      "type": "event"
    },
    {
      "anonymous": false,
      "inputs": [
        {
          "indexed": true,
          "internalType": "address",
          "name": "beacon",
          "type": "address"
        }
      ],
      "name": "BeaconUpgraded",
      "type": "event"
    },
    {
      "anonymous": false,
      "inputs": [
        {
          "indexed": false,
          "internalType": "address",
          "name": "recepiant",
          "type": "address"
        },
        {
          "indexed": false,
          "internalType": "uint256",
          "name": "tokenId",
          "type": "uint256"
        },
        {
          "indexed": false,
          "internalType": "uint256",
          "name": "amount",
          "type": "uint256"
        },
        {
          "indexed": false,
          "internalType": "address",
          "name": "token",
          "type": "address"
        },
        {
          "indexed": false,
          "internalType": "uint256",
          "name": "fee",
          "type": "uint256"
        }
      ],
      "name": "Claimed",
      "type": "event"
    },
    {
      "anonymous": false,
      "inputs": [
        {
          "indexed": false,
          "internalType": "uint8",
          "name": "version",
          "type": "uint8"
        }
      ],
      "name": "Initialized",
      "type": "event"
    },
    {
      "anonymous": false,
      "inputs": [
        {
          "indexed": true,
          "internalType": "address",
          "name": "pendingOwner",
          "type": "address"
        }
      ],
      "name": "OwnershipHandoverCanceled",
      "type": "event"
    },
    {
      "anonymous": false,
      "inputs": [
        {
          "indexed": true,
          "internalType": "address",
          "name": "pendingOwner",
          "type": "address"
        }
      ],
      "name": "OwnershipHandoverRequested",
      "type": "event"
    },
    {
      "anonymous": false,
      "inputs": [
        {
          "indexed": true,
          "internalType": "address",
          "name": "oldOwner",
          "type": "address"
        },
        {
          "indexed": true,
          "internalType": "address",
          "name": "newOwner",
          "type": "address"
        }
      ],
      "name": "OwnershipTransferred",
      "type": "event"
    },
    {
      "anonymous": false,
      "inputs": [
        {
          "indexed": true,
          "internalType": "address",
          "name": "user",
          "type": "address"
        },
        {
          "indexed": true,
          "internalType": "uint256",
          "name": "roles",
          "type": "uint256"
        }
      ],
      "name": "RolesUpdated",
      "type": "event"
    },
    {
      "anonymous": false,
      "inputs": [
        {
          "indexed": true,
          "internalType": "address",
          "name": "signer",
          "type": "address"
        }
      ],
      "name": "SignerRevoked",
      "type": "event"
    },
    {
      "anonymous": false,
      "inputs": [
        {
          "indexed": true,
          "internalType": "address",
          "name": "signer",
          "type": "address"
        }
      ],
      "name": "SignerUsed",
      "type": "event"
    },
    {
      "anonymous": false,
      "inputs": [
        {
          "indexed": true,
          "internalType": "address",
          "name": "operator",
          "type": "address"
        },
        {
          "indexed": true,
          "internalType": "address",
          "name": "from",
          "type": "address"
        },
        {
          "indexed": true,
          "internalType": "address",
          "name": "to",
          "type": "address"
        },
        {
          "indexed": false,
          "internalType": "uint256[]",
          "name": "ids",
          "type": "uint256[]"
        },
        {
          "indexed": false,
          "internalType": "uint256[]",
          "name": "amounts",
          "type": "uint256[]"
        }
      ],
      "name": "TransferBatch",
      "type": "event"
    },
    {
      "anonymous": false,
      "inputs": [
        {
          "indexed": true,
          "internalType": "address",
          "name": "operator",
          "type": "address"
        },
        {
          "indexed": true,
          "internalType": "address",
          "name": "from",
          "type": "address"
        },
        {
          "indexed": true,
          "internalType": "address",
          "name": "to",
          "type": "address"
        },
        {
          "indexed": false,
          "internalType": "uint256",
          "name": "id",
          "type": "uint256"
        },
        {
          "indexed": false,
          "internalType": "uint256",
          "name": "amount",
          "type": "uint256"
        }
      ],
      "name": "TransferSingle",
      "type": "event"
    },
    {
      "anonymous": false,
      "inputs": [
        {
          "indexed": false,
          "internalType": "string",
          "name": "value",
          "type": "string"
        },
        {
          "indexed": true,
          "internalType": "uint256",
          "name": "id",
          "type": "uint256"
        }
      ],
      "name": "URI",
      "type": "event"
    },
    {
      "anonymous": false,
      "inputs": [
        {
          "indexed": true,
          "internalType": "address",
          "name": "implementation",
          "type": "address"
        }
      ],
      "name": "Upgraded",
      "type": "event"
    },
    {
      "inputs": [
        {
          "internalType": "address",
          "name": "owner",
          "type": "address"
        },
        {
          "internalType": "uint256",
          "name": "id",
          "type": "uint256"
        }
      ],
      "name": "balanceOf",
      "outputs": [
        {
          "internalType": "uint256",
          "name": "result",
          "type": "uint256"
        }
      ],
      "stateMutability": "view",
      "type": "function"
    },
    {
      "inputs": [
        {
          "internalType": "address[]",
          "name": "owners",
          "type": "address[]"
        },
        {
          "internalType": "uint256[]",
          "name": "ids",
          "type": "uint256[]"
        }
      ],
      "name": "balanceOfBatch",
      "outputs": [
        {
          "internalType": "uint256[]",
          "name": "balances",
          "type": "uint256[]"
        }
      ],
      "stateMutability": "view",
      "type": "function"
    },
    {
      "inputs": [],
      "name": "cancelOwnershipHandover",
      "outputs": [],
      "stateMutability": "payable",
      "type": "function"
    },
    {
      "inputs": [
        {
          "internalType": "address",
          "name": "recepiant",
          "type": "address"
        },
        {
          "internalType": "address",
          "name": "signer",
          "type": "address"
        },
        {
          "internalType": "uint64",
          "name": "deadline",
          "type": "uint64"
        },
        {
          "internalType": "bytes",
          "name": "data",
          "type": "bytes"
        },
        {
          "internalType": "bytes",
          "name": "signature",
          "type": "bytes"
        },
        {
          "internalType": "bytes",
          "name": "certificate",
          "type": "bytes"
        }
      ],
      "name": "claim",
      "outputs": [],
      "stateMutability": "payable",
      "type": "function"
    },
    {
      "inputs": [
        {
          "internalType": "address",
          "name": "recepiant",
          "type": "address"
        },
        {
          "internalType": "address",
          "name": "signer",
          "type": "address"
        },
        {
          "internalType": "uint64",
          "name": "deadline",
          "type": "uint64"
        },
        {
          "internalType": "bytes",
          "name": "data",
          "type": "bytes"
        },
        {
          "internalType": "bytes",
          "name": "signature",
          "type": "bytes"
        },
        {
          "internalType": "bytes",
          "name": "certificate",
          "type": "bytes"
        }
      ],
      "name": "claimThroughRelay",
      "outputs": [],
      "stateMutability": "nonpayable",
      "type": "function"
    },
    {
      "inputs": [
        {
          "internalType": "address",
          "name": "pendingOwner",
          "type": "address"
        }
      ],
      "name": "completeOwnershipHandover",
      "outputs": [],
      "stateMutability": "payable",
      "type": "function"
    },
    {
      "inputs": [],
      "name": "defautURI",
      "outputs": [
        {
          "internalType": "string",
          "name": "",
          "type": "string"
        }
      ],
      "stateMutability": "view",
      "type": "function"
    },
    {
      "inputs": [
        {
          "internalType": "address",
          "name": "to",
          "type": "address"
        },
        {
          "internalType": "uint256",
          "name": "id",
          "type": "uint256"
        },
        {
          "internalType": "uint256",
          "name": "amount",
          "type": "uint256"
        }
      ],
      "name": "devMint",
      "outputs": [],
      "stateMutability": "nonpayable",
      "type": "function"
    },
    {
      "inputs": [],
      "name": "factory",
      "outputs": [
        {
          "internalType": "address",
          "name": "",
          "type": "address"
        }
      ],
      "stateMutability": "view",
      "type": "function"
    },
    {
      "inputs": [],
      "name": "gelatoRelayEnabled",
      "outputs": [
        {
          "internalType": "bool",
          "name": "",
          "type": "bool"
        }
      ],
      "stateMutability": "view",
      "type": "function"
    },
    {
      "inputs": [],
      "name": "getCertificateAuthority",
      "outputs": [
        {
          "internalType": "address",
          "name": "",
          "type": "address"
        }
      ],
      "stateMutability": "view",
      "type": "function"
    },
    {
      "inputs": [
        {
          "internalType": "address",
          "name": "user",
          "type": "address"
        },
        {
          "internalType": "uint256",
          "name": "roles",
          "type": "uint256"
        }
      ],
      "name": "grantRoles",
      "outputs": [],
      "stateMutability": "payable",
      "type": "function"
    },
    {
      "inputs": [
        {
          "internalType": "address",
          "name": "user",
          "type": "address"
        },
        {
          "internalType": "uint256",
          "name": "roles",
          "type": "uint256"
        }
      ],
      "name": "hasAllRoles",
      "outputs": [
        {
          "internalType": "bool",
          "name": "result",
          "type": "bool"
        }
      ],
      "stateMutability": "view",
      "type": "function"
    },
    {
      "inputs": [
        {
          "internalType": "address",
          "name": "user",
          "type": "address"
        },
        {
          "internalType": "uint256",
          "name": "roles",
          "type": "uint256"
        }
      ],
      "name": "hasAnyRole",
      "outputs": [
        {
          "internalType": "bool",
          "name": "result",
          "type": "bool"
        }
      ],
      "stateMutability": "view",
      "type": "function"
    },
    {
      "inputs": [
        {
          "internalType": "string",
          "name": "name_",
          "type": "string"
        },
        {
          "internalType": "string",
          "name": "symbol_",
          "type": "string"
        },
        {
          "internalType": "bool",
          "name": "gelatoRelayEnabled_",
          "type": "bool"
        },
        {
          "internalType": "address",
          "name": "certificateAuthority_",
          "type": "address"
        },
        {
          "internalType": "address",
          "name": "factory_",
          "type": "address"
        }
      ],
      "name": "initialize",
      "outputs": [],
      "stateMutability": "nonpayable",
      "type": "function"
    },
    {
      "inputs": [
        {
          "internalType": "address",
          "name": "owner",
          "type": "address"
        },
        {
          "internalType": "address",
          "name": "operator",
          "type": "address"
        }
      ],
      "name": "isApprovedForAll",
      "outputs": [
        {
          "internalType": "bool",
          "name": "result",
          "type": "bool"
        }
      ],
      "stateMutability": "view",
      "type": "function"
    },
    {
      "inputs": [],
      "name": "name",
      "outputs": [
        {
          "internalType": "string",
          "name": "",
          "type": "string"
        }
      ],
      "stateMutability": "view",
      "type": "function"
    },
    {
      "inputs": [
        {
          "internalType": "uint256",
          "name": "roles",
          "type": "uint256"
        }
      ],
      "name": "ordinalsFromRoles",
      "outputs": [
        {
          "internalType": "uint8[]",
          "name": "ordinals",
          "type": "uint8[]"
        }
      ],
      "stateMutability": "pure",
      "type": "function"
    },
    {
      "inputs": [],
      "name": "owner",
      "outputs": [
        {
          "internalType": "address",
          "name": "result",
          "type": "address"
        }
      ],
      "stateMutability": "view",
      "type": "function"
    },
    {
      "inputs": [
        {
          "internalType": "address",
          "name": "pendingOwner",
          "type": "address"
        }
      ],
      "name": "ownershipHandoverExpiresAt",
      "outputs": [
        {
          "internalType": "uint256",
          "name": "result",
          "type": "uint256"
        }
      ],
      "stateMutability": "view",
      "type": "function"
    },
    {
      "inputs": [],
      "name": "ownershipHandoverValidFor",
      "outputs": [
        {
          "internalType": "uint64",
          "name": "",
          "type": "uint64"
        }
      ],
      "stateMutability": "view",
      "type": "function"
    },
    {
      "inputs": [],
      "name": "proxiableUUID",
      "outputs": [
        {
          "internalType": "bytes32",
          "name": "",
          "type": "bytes32"
        }
      ],
      "stateMutability": "view",
      "type": "function"
    },
    {
      "inputs": [],
      "name": "renounceOwnership",
      "outputs": [],
      "stateMutability": "payable",
      "type": "function"
    },
    {
      "inputs": [
        {
          "internalType": "uint256",
          "name": "roles",
          "type": "uint256"
        }
      ],
      "name": "renounceRoles",
      "outputs": [],
      "stateMutability": "payable",
      "type": "function"
    },
    {
      "inputs": [],
      "name": "requestOwnershipHandover",
      "outputs": [],
      "stateMutability": "payable",
      "type": "function"
    },
    {
      "inputs": [
        {
          "internalType": "address",
          "name": "user",
          "type": "address"
        },
        {
          "internalType": "uint256",
          "name": "roles",
          "type": "uint256"
        }
      ],
      "name": "revokeRoles",
      "outputs": [],
      "stateMutability": "payable",
      "type": "function"
    },
    {
      "inputs": [
        {
          "internalType": "address[]",
          "name": "signers",
          "type": "address[]"
        }
      ],
      "name": "revokeSigners",
      "outputs": [],
      "stateMutability": "nonpayable",
      "type": "function"
    },
    {
      "inputs": [
        {
          "internalType": "uint8[]",
          "name": "ordinals",
          "type": "uint8[]"
        }
      ],
      "name": "rolesFromOrdinals",
      "outputs": [
        {
          "internalType": "uint256",
          "name": "roles",
          "type": "uint256"
        }
      ],
      "stateMutability": "pure",
      "type": "function"
    },
    {
      "inputs": [
        {
          "internalType": "address",
          "name": "user",
          "type": "address"
        }
      ],
      "name": "rolesOf",
      "outputs": [
        {
          "internalType": "uint256",
          "name": "roles",
          "type": "uint256"
        }
      ],
      "stateMutability": "view",
      "type": "function"
    },
    {
      "inputs": [
        {
          "internalType": "uint256",
          "name": "_tokenId",
          "type": "uint256"
        },
        {
          "internalType": "uint256",
          "name": "_salePrice",
          "type": "uint256"
        }
      ],
      "name": "royaltyInfo",
      "outputs": [
        {
          "internalType": "address",
          "name": "",
          "type": "address"
        },
        {
          "internalType": "uint256",
          "name": "",
          "type": "uint256"
        }
      ],
      "stateMutability": "view",
      "type": "function"
    },
    {
      "inputs": [
        {
          "internalType": "address",
          "name": "from",
          "type": "address"
        },
        {
          "internalType": "address",
          "name": "to",
          "type": "address"
        },
        {
          "internalType": "uint256[]",
          "name": "ids",
          "type": "uint256[]"
        },
        {
          "internalType": "uint256[]",
          "name": "amounts",
          "type": "uint256[]"
        },
        {
          "internalType": "bytes",
          "name": "data",
          "type": "bytes"
        }
      ],
      "name": "safeBatchTransferFrom",
      "outputs": [],
      "stateMutability": "nonpayable",
      "type": "function"
    },
    {
      "inputs": [
        {
          "internalType": "address",
          "name": "from",
          "type": "address"
        },
        {
          "internalType": "address",
          "name": "to",
          "type": "address"
        },
        {
          "internalType": "uint256",
          "name": "tokenId",
          "type": "uint256"
        },
        {
          "internalType": "uint256",
          "name": "amount",
          "type": "uint256"
        },
        {
          "internalType": "bytes",
          "name": "data",
          "type": "bytes"
        }
      ],
      "name": "safeTransferFrom",
      "outputs": [],
      "stateMutability": "nonpayable",
      "type": "function"
    },
    {
      "inputs": [
        {
          "internalType": "address",
          "name": "operator",
          "type": "address"
        },
        {
          "internalType": "bool",
          "name": "approved",
          "type": "bool"
        }
      ],
      "name": "setApprovalForAll",
      "outputs": [],
      "stateMutability": "nonpayable",
      "type": "function"
    },
    {
      "inputs": [
        {
          "internalType": "address",
          "name": "certificateAuthority_",
          "type": "address"
        }
      ],
      "name": "setCertificateAuthority",
      "outputs": [],
      "stateMutability": "nonpayable",
      "type": "function"
    },
    {
      "inputs": [
        {
          "internalType": "string",
          "name": "defaultURI_",
          "type": "string"
        }
      ],
      "name": "setDefaultUri",
      "outputs": [],
      "stateMutability": "nonpayable",
      "type": "function"
    },
    {
      "inputs": [
        {
          "internalType": "address",
          "name": "receiver_",
          "type": "address"
        },
        {
          "internalType": "uint96",
          "name": "feeNumerator_",
          "type": "uint96"
        }
      ],
      "name": "setRoyalty",
      "outputs": [],
      "stateMutability": "nonpayable",
      "type": "function"
    },
    {
      "inputs": [
        {
          "internalType": "address",
          "name": "signer",
          "type": "address"
        }
      ],
      "name": "setUnlimitedSigner",
      "outputs": [],
      "stateMutability": "nonpayable",
      "type": "function"
    },
    {
      "inputs": [
        {
          "internalType": "uint256",
          "name": "id",
          "type": "uint256"
        },
        {
          "internalType": "string",
          "name": "uri_",
          "type": "string"
        }
      ],
      "name": "setUri",
      "outputs": [],
      "stateMutability": "payable",
      "type": "function"
    },
    {
      "inputs": [
        {
          "internalType": "address",
          "name": "signer",
          "type": "address"
        }
      ],
      "name": "signerState",
      "outputs": [
        {
          "internalType": "int256",
          "name": "",
          "type": "int256"
        }
      ],
      "stateMutability": "view",
      "type": "function"
    },
    {
      "inputs": [
        {
          "internalType": "bytes4",
          "name": "interfaceId",
          "type": "bytes4"
        }
      ],
      "name": "supportsInterface",
      "outputs": [
        {
          "internalType": "bool",
          "name": "",
          "type": "bool"
        }
      ],
      "stateMutability": "view",
      "type": "function"
    },
    {
      "inputs": [],
      "name": "symbol",
      "outputs": [
        {
          "internalType": "string",
          "name": "",
          "type": "string"
        }
      ],
      "stateMutability": "view",
      "type": "function"
    },
    {
      "inputs": [],
      "name": "toggleGelatoRelayEnabled",
      "outputs": [],
      "stateMutability": "nonpayable",
      "type": "function"
    },
    {
      "inputs": [
        {
          "internalType": "address",
          "name": "newOwner",
          "type": "address"
        }
      ],
      "name": "transferOwnership",
      "outputs": [],
      "stateMutability": "payable",
      "type": "function"
    },
    {
      "inputs": [
        {
          "internalType": "address",
          "name": "newImplementation",
          "type": "address"
        }
      ],
      "name": "upgradeTo",
      "outputs": [],
      "stateMutability": "nonpayable",
      "type": "function"
    },
    {
      "inputs": [
        {
          "internalType": "address",
          "name": "newImplementation",
          "type": "address"
        },
        {
          "internalType": "bytes",
          "name": "data",
          "type": "bytes"
        }
      ],
      "name": "upgradeToAndCall",
      "outputs": [],
      "stateMutability": "payable",
      "type": "function"
    },
    {
      "inputs": [
        {
          "internalType": "uint256",
          "name": "id",
          "type": "uint256"
        }
      ],
      "name": "uri",
      "outputs": [
        {
          "internalType": "string",
          "name": "",
          "type": "string"
        }
      ],
      "stateMutability": "view",
      "type": "function"
    },
    {
      "inputs": [],
      "name": "version",
      "outputs": [
        {
          "internalType": "uint256",
          "name": "",
          "type": "uint256"
        }
      ],
      "stateMutability": "pure",
      "type": "function"
    },
    {
      "inputs": [
        {
          "internalType": "uint256",
          "name": "amount",
          "type": "uint256"
        }
      ],
      "name": "withdraw",
      "outputs": [],
      "stateMutability": "nonpayable",
      "type": "function"
    },
    {
      "inputs": [
        {
          "internalType": "contract IERC20",
          "name": "token",
          "type": "address"
        },
        {
          "internalType": "uint256",
          "name": "amount",
          "type": "uint256"
        }
      ],
      "name": "withdrawERC20",
      "outputs": [],
      "stateMutability": "nonpayable",
      "type": "function"
    },
    {
      "stateMutability": "payable",
      "type": "receive"
    }
  ],
  "transactionHash": "0x25c17505595a1f5a60fcde3555f19bfdaf8f118c0bbb218ebd218360c0881e21",
  "args": [],
  "numDeployments": 7,
  "solcInputHash": "1c0c164e99e549540539035fa4533356",
  "bytecode": "0x60a0604052306080523480156200001557600080fd5b506200002b6200019260201b62001bd61760201c565b54610100900460ff1662000059576200004e6200019260201b62001bd61760201c565b5460ff16156200005d565b303b155b620000d45760405162461bcd60e51b815260206004820152603760248201527f455243373231415f5f496e697469616c697a61626c653a20636f6e747261637460448201527f20697320616c726561647920696e697469616c697a6564000000000000000000606482015260840160405180910390fd5b6000620000eb6200019260201b62001bd61760201c565b54610100900460ff16159050801562000156576001620001156200019260201b62001bd61760201c565b60000160016101000a81548160ff0219169083151502179055506001620001466200019260201b62001bd61760201c565b805460ff19169115159190911790555b80156200018b576000620001746200019260201b62001bd61760201c565b80549115156101000261ff00199092169190911790555b50620001b6565b7fee151c8401928dc223602bb187aff91b9a56c7cae5476ef1b3287b085a16c85f90565b60805161454e620001ee60003960008181611121015281816111b7015281816113770152818161140d01526114db015261454e6000f3fe6080604052600436106103215760003560e01c80634f1ef286116101a5578063a1db9782116100ec578063e985e9c511610095578063f242432a1161006f578063f242432a14610946578063f2fde38b14610966578063f8f4bbc014610979578063fee81cf41461098e57600080fd5b8063e985e9c5146108d9578063e998149014610913578063f04e283e1461093357600080fd5b8063c45a0155116100c6578063c45a01551461086f578063d1bd740914610884578063d7533f02146108bb57600080fd5b8063a1db97821461080f578063a22cb4651461082f578063a786aee91461084f57600080fd5b80637359e41f1161014e5780638da5cb5b116101285780638da5cb5b146107c15780638f2fc60b146107da57806395d89b41146107fa57600080fd5b80637359e41f1461076c57806377ceaf5514610799578063782f08ae146107ae57600080fd5b806354d1f13d1161017f57806354d1f13d1461074857806354fd4d5014610750578063715018a61461076457600080fd5b80634f1ef286146106e9578063514e62fc146106fc57806352d1902d1461073357600080fd5b80632a55205a116102695780633659cfe611610212578063466a18de116101ec578063466a18de146106895780634a4ee7b1146106a95780634e1273f4146106bc57600080fd5b80633659cfe6146105f357806337075b041461061357806342d3ce991461063357600080fd5b80632e1a7d4d116102435780632e1a7d4d146105935780632eb2c2d6146105b3578063349b4420146105d357600080fd5b80632a55205a146105015780632be55b9b146105405780632de948071461056057600080fd5b8063183a4f6e116102cb5780631c10893f116102a55780631c10893f146104af5780631cd64df4146104c257806325692962146104f957600080fd5b8063183a4f6e146104275780631a6646d11461043a5780631b50764d1461048f57600080fd5b80630e89341c116102fc5780630e89341c146103d25780630fbee141146103f257806313a661ed1461040757600080fd5b8062fdd58e1461032d57806301ffc9a71461038057806306fdde03146103b057600080fd5b3661032857005b600080fd5b34801561033957600080fd5b5061036d610348366004613894565b60008260601b679a31110384e0b0c91760205281600052604060002054905092915050565b6040519081526020015b60405180910390f35b34801561038c57600080fd5b506103a061039b3660046138c0565b6109c1565b6040519015158152602001610377565b3480156103bc57600080fd5b506103c56109fe565b6040516103779190613926565b3480156103de57600080fd5b506103c56103ed366004613959565b610ab2565b6104056104003660046139b4565b610be0565b005b34801561041357600080fd5b5061036d610422366004613aef565b610d57565b610405610435366004613959565b610d80565b34801561044657600080fd5b5061036d610455366004613ba8565b6001600160a01b031660009081527f1f0c0848ffbdef50dbc17c19b3aa74d08d8b92b8a2dbbfbe840fa6ee068316e8602052604090205490565b34801561049b57600080fd5b506104056104aa366004613ba8565b610d8d565b6104056104bd366004613894565b610df0565b3480156104ce57600080fd5b506103a06104dd366004613894565b638b78c6d8600c90815260009290925260209091205481161490565b610405610e06565b34801561050d57600080fd5b5061052161051c366004613bc5565b610e56565b604080516001600160a01b039093168352602083019190915201610377565b34801561054c57600080fd5b5061040561055b3660046139b4565b610eff565b34801561056c57600080fd5b5061036d61057b366004613ba8565b638b78c6d8600c908152600091909152602090205490565b34801561059f57600080fd5b506104056105ae366004613959565b610fe6565b3480156105bf57600080fd5b506104056105ce366004613c2c565b61101b565b3480156105df57600080fd5b506104056105ee366004613ba8565b611045565b3480156105ff57600080fd5b5061040561060e366004613ba8565b611117565b34801561061f57600080fd5b5061040561062e366004613ceb565b611288565b34801561063f57600080fd5b507f1f0c0848ffbdef50dbc17c19b3aa74d08d8b92b8a2dbbfbe840fa6ee068316e75461010090046001600160a01b03165b6040516001600160a01b039091168152602001610377565b34801561069557600080fd5b506104056106a4366004613d20565b6112b4565b6104056106b7366004613894565b6112eb565b3480156106c857600080fd5b506106dc6106d7366004613d62565b6112fd565b6040516103779190613dce565b6104056106f7366004613e12565b61136d565b34801561070857600080fd5b506103a0610717366004613894565b638b78c6d8600c90815260009290925260209091205416151590565b34801561073f57600080fd5b5061036d6114ce565b610405611593565b34801561075c57600080fd5b50600161036d565b6104056115cf565b34801561077857600080fd5b5061078c610787366004613959565b6115e3565b6040516103779190613eba565b3480156107a557600080fd5b5061040561161c565b6104056107bc366004613ef5565b611675565b3480156107cd57600080fd5b50638b78c6d81954610671565b3480156107e657600080fd5b506104056107f5366004613f41565b611740565b34801561080657600080fd5b506103c561175a565b34801561081b57600080fd5b5061040561082a366004613894565b61178b565b34801561083b57600080fd5b5061040561084a366004613f99565b61181d565b34801561085b57600080fd5b5061040561086a366004613fc7565b611831565b34801561087b57600080fd5b50610671611a93565b34801561089057600080fd5b507f1f0c0848ffbdef50dbc17c19b3aa74d08d8b92b8a2dbbfbe840fa6ee068316e75460ff166103a0565b3480156108c757600080fd5b506040516202a3008152602001610377565b3480156108e557600080fd5b506103a06108f4366004614070565b60609190911b679a31110384e0b0c9176020526000526034600c205490565b34801561091f57600080fd5b5061040561092e36600461409e565b611ac6565b610405610941366004613ba8565b611b10565b34801561095257600080fd5b506104056109613660046140d4565b611b4d565b610405610974366004613ba8565b611b7e565b34801561098557600080fd5b506103c5611ba5565b34801561099a57600080fd5b5061036d6109a9366004613ba8565b63389a75e1600c908152600091909152602090205490565b60006109cc82611bfa565b806109f857506109f8826301ffc9a760e09190911c90811463d9b67a26821417630e89341c9091141790565b92915050565b60607fd0025a9946c8b7dee6e3a50a6927fc7ea4158317d054d9cb266f8211017b3de76001018054610a2f90614150565b80601f0160208091040260200160405190810160405280929190818152602001828054610a5b90614150565b8015610aa85780601f10610a7d57610100808354040283529160200191610aa8565b820191906000526020600020905b815481529060010190602001808311610a8b57829003601f168201915b5050505050905090565b60008181527fd0025a9946c8b7dee6e3a50a6927fc7ea4158317d054d9cb266f8211017b3deb6020526040812080546060929190610aef90614150565b90501115610bb45760008281527fd0025a9946c8b7dee6e3a50a6927fc7ea4158317d054d9cb266f8211017b3deb602052604090208054610b2f90614150565b80601f0160208091040260200160405190810160405280929190818152602001828054610b5b90614150565b8015610ba85780601f10610b7d57610100808354040283529160200191610ba8565b820191906000526020600020905b815481529060010190602001808311610b8b57829003601f168201915b50505050509050919050565b7fd0025a9946c8b7dee6e3a50a6927fc7ea4158317d054d9cb266f8211017b3dea8054610b2f90614150565b6000610c57898989898080601f01602080910402602001604051908101604052809392919081815260200183838082843760009201919091525050604080516020601f8b018190048102820181019092528981529250899150889081908401838280828437600092019190915250611c9292505050565b9050610c668a828b8888611ddc565b6001600160a01b03891660009081527f1f0c0848ffbdef50dbc17c19b3aa74d08d8b92b8a2dbbfbe840fa6ee068316e8602052604081205490811315610cd8576040517f815e1d6400000000000000000000000000000000000000000000000000000000815260040160405180910390fd5b80610d3f576001600160a01b038a1660008181527f1f0c0848ffbdef50dbc17c19b3aa74d08d8b92b8a2dbbfbe840fa6ee068316e8602052604080822060019055517fd11b52902456189cc3d9201056c9e5cc1da0569404bfa7b66c334e7bbaa42b549190a25b610d4a8b8989611eb5565b5050505050505050505050565b6000815160051b5b8015610d7a57828101516001901b90911790601f1901610d5f565b50919050565b610d8a338261226b565b50565b610d956122ba565b7f1f0c0848ffbdef50dbc17c19b3aa74d08d8b92b8a2dbbfbe840fa6ee068316e780546001600160a01b038316610100027fffffffffffffffffffffff0000000000000000000000000000000000000000ff90911617905550565b610df86122ba565b610e0282826122d5565b5050565b60006202a30067ffffffffffffffff164201905063389a75e1600c5233600052806020600c2055337fdbf36a107da19e49527a7176a1babf963b4b0ff8cde35ee35d6cd8f1f9ac7e1d600080a250565b600080806127106bffffffffffffffffffffffff167f7ca70eb017bb149b6812a3dda3f2c8ae75ca8fc7203473d6f36a70a4cf8b051254610ebd907401000000000000000000000000000000000000000090046bffffffffffffffffffffffff16866141cc565b610ec791906141e3565b7f7ca70eb017bb149b6812a3dda3f2c8ae75ca8fc7203473d6f36a70a4cf8b0512546001600160a01b031693509150505b9250929050565b73abcc9b596420a9e9172fd5938620e265a0f9df923314610f675760405162461bcd60e51b815260206004820152600f60248201527f6f6e6c7947656c61746f52656c6179000000000000000000000000000000000060448201526064015b60405180910390fd5b7f1f0c0848ffbdef50dbc17c19b3aa74d08d8b92b8a2dbbfbe840fa6ee068316e75460ff16610fc2576040517fcd364b1700000000000000000000000000000000000000000000000000000000815260040160405180910390fd5b610fca612320565b610fdb898989898989898989610be0565b505050505050505050565b610fee6122ba565b604051339082156108fc029083906000818181858888f19350505050158015610e02573d6000803e3d6000fd5b876001600160a01b03811633146110355761103533612387565b610fdb89898989898989896123cb565b61104d6122ba565b6001600160a01b03811660009081527f1f0c0848ffbdef50dbc17c19b3aa74d08d8b92b8a2dbbfbe840fa6ee068316e86020526040902054156110bc576040517f815e1d6400000000000000000000000000000000000000000000000000000000815260040160405180910390fd5b6001600160a01b031660009081527f1f0c0848ffbdef50dbc17c19b3aa74d08d8b92b8a2dbbfbe840fa6ee068316e8602052604090207f80000000000000000000000000000000000000000000000000000000000000009055565b6001600160a01b037f00000000000000000000000000000000000000000000000000000000000000001630036111b55760405162461bcd60e51b815260206004820152602c60248201527f46756e6374696f6e206d7573742062652063616c6c6564207468726f7567682060448201527f64656c656761746563616c6c00000000000000000000000000000000000000006064820152608401610f5e565b7f00000000000000000000000000000000000000000000000000000000000000006001600160a01b03166111e7612608565b6001600160a01b0316146112635760405162461bcd60e51b815260206004820152602c60248201527f46756e6374696f6e206d7573742062652063616c6c6564207468726f7567682060448201527f6163746976652070726f787900000000000000000000000000000000000000006064820152608401610f5e565b61126c81612630565b60408051600080825260208201909252610d8a918391906126b0565b600161129381612850565b6112ae84848460405180602001604052806000815250612883565b50505050565b60026112bf81612850565b7fd0025a9946c8b7dee6e3a50a6927fc7ea4158317d054d9cb266f8211017b3dea6112ae838583614264565b6112f36122ba565b610e02828261226b565b606083821461131457633b800a466000526004601cfd5b6040519050818152602081018260051b81810160405260005b81811461136257679a31110384e0b0c98882013560601b1760209081528682013560009081526040902054848301520161132d565b505050949350505050565b6001600160a01b037f000000000000000000000000000000000000000000000000000000000000000016300361140b5760405162461bcd60e51b815260206004820152602c60248201527f46756e6374696f6e206d7573742062652063616c6c6564207468726f7567682060448201527f64656c656761746563616c6c00000000000000000000000000000000000000006064820152608401610f5e565b7f00000000000000000000000000000000000000000000000000000000000000006001600160a01b031661143d612608565b6001600160a01b0316146114b95760405162461bcd60e51b815260206004820152602c60248201527f46756e6374696f6e206d7573742062652063616c6c6564207468726f7567682060448201527f6163746976652070726f787900000000000000000000000000000000000000006064820152608401610f5e565b6114c282612630565b610e02828260016126b0565b6000306001600160a01b037f0000000000000000000000000000000000000000000000000000000000000000161461156e5760405162461bcd60e51b815260206004820152603860248201527f555550535570677261646561626c653a206d757374206e6f742062652063616c60448201527f6c6564207468726f7567682064656c656761746563616c6c00000000000000006064820152608401610f5e565b507f360894a13ba1a3210667c828492db98dca3e2076cc3735a920a3ca505d382bbc90565b63389a75e1600c523360005260006020600c2055337ffa7b8eab7da67f412cc9575ed43464468f9bfbae89d1675917346ca6d8fe3c92600080a2565b6115d76122ba565b6115e16000612920565b565b604051602081016000835b81835260051b6020169091019060010183811c806115ee575050601f198282030160051c8252604052919050565b6116246122ba565b7f1f0c0848ffbdef50dbc17c19b3aa74d08d8b92b8a2dbbfbe840fa6ee068316e780547fffffffffffffffffffffffffffffffffffffffffffffffffffffffffffffff00811660ff90911615179055565b600261168081612850565b60008481527fd0025a9946c8b7dee6e3a50a6927fc7ea4158317d054d9cb266f8211017b3deb602052604090206116b8838583614264565b50837f6bb7ff708619ba0610cba295a58592e0451dee2622938c8755667688daf3529b84846040516116eb929190614360565b60405180910390a234156112ae57611701611a93565b6001600160a01b03166108fc349081150290604051600060405180830381858888f19350505050158015611739573d6000803e3d6000fd5b5050505050565b600461174b8161295e565b6117558383612991565b505050565b60607fd0025a9946c8b7dee6e3a50a6927fc7ea4158317d054d9cb266f8211017b3de76002018054610a2f90614150565b6117936122ba565b6040517fa9059cbb000000000000000000000000000000000000000000000000000000008152336004820152602481018290526001600160a01b0383169063a9059cbb906044016020604051808303816000875af11580156117f9573d6000803e3d6000fd5b505050506040513d601f19601f82011682018060405250810190611755919061438f565b8161182781612387565b6117558383612a72565b7fee151c8401928dc223602bb187aff91b9a56c7cae5476ef1b3287b085a16c85f54610100900460ff1661188a577fee151c8401928dc223602bb187aff91b9a56c7cae5476ef1b3287b085a16c85f5460ff161561188e565b303b155b6119005760405162461bcd60e51b815260206004820152603760248201527f455243373231415f5f496e697469616c697a61626c653a20636f6e747261637460448201527f20697320616c726561647920696e697469616c697a65640000000000000000006064820152608401610f5e565b7fee151c8401928dc223602bb187aff91b9a56c7cae5476ef1b3287b085a16c85f54610100900460ff1615801561197d577fee151c8401928dc223602bb187aff91b9a56c7cae5476ef1b3287b085a16c85f80547fffffffffffffffffffffffffffffffffffffffffffffffffffffffffffff0000166101011790555b7fd0025a9946c8b7dee6e3a50a6927fc7ea4158317d054d9cb266f8211017b3de86119a9888a83614264565b507fd0025a9946c8b7dee6e3a50a6927fc7ea4158317d054d9cb266f8211017b3de96119d6868883614264565b507fd0025a9946c8b7dee6e3a50a6927fc7ea4158317d054d9cb266f8211017b3de780547fffffffffffffffffffffffff0000000000000000000000000000000000000000166001600160a01b038416179055611a338484612acc565b611a3b612bed565b8015611a89577fee151c8401928dc223602bb187aff91b9a56c7cae5476ef1b3287b085a16c85f80547fffffffffffffffffffffffffffffffffffffffffffffffffffffffffffff00ff1690555b5050505050505050565b60007fd0025a9946c8b7dee6e3a50a6927fc7ea4158317d054d9cb266f8211017b3de75b546001600160a01b0316919050565b611ace6122ba565b60005b8181101561175557611b08838383818110611aee57611aee6143ac565b9050602002016020810190611b039190613ba8565b612c0c565b600101611ad1565b611b186122ba565b63389a75e1600c52806000526020600c208054421115611b4057636f5e88186000526004601cfd5b60009055610d8a81612920565b856001600160a01b0381163314611b6757611b6733612387565b611b75878787878787612c70565b50505050505050565b611b866122ba565b8060601b611b9c57637448fbae6000526004601cfd5b610d8a81612920565b60607fd0025a9946c8b7dee6e3a50a6927fc7ea4158317d054d9cb266f8211017b3de76003018054610a2f90614150565b7fee151c8401928dc223602bb187aff91b9a56c7cae5476ef1b3287b085a16c85f90565b60007fffffffff0000000000000000000000000000000000000000000000000000000082167f2a55205a0000000000000000000000000000000000000000000000000000000014806109f857507fffffffff0000000000000000000000000000000000000000000000000000000082167f01ffc9a7000000000000000000000000000000000000000000000000000000001492915050565b600080611d118686304688604051602001611cb19594939291906143db565b60408051601f1981840301815282825280516020918201207f19457468657265756d205369676e6564204d6573736167653a0a33320000000084830152603c8085019190915282518085039091018152605c909301909152815191012090565b9050428567ffffffffffffffff161015611d57576040517f1d39f94600000000000000000000000000000000000000000000000000000000815260040160405180910390fd5b7f1f0c0848ffbdef50dbc17c19b3aa74d08d8b92b8a2dbbfbe840fa6ee068316e75461010090046001600160a01b0316611d918285612dd3565b6001600160a01b031614611dd1576040517f1d39f94600000000000000000000000000000000000000000000000000000000815260040160405180910390fd5b90505b949350505050565b6040517fffffffffffffffffffffffffffffffffffffffff000000000000000000000000606087901b16602082015260348101859052600090611e2190605401611cb1565b9050836001600160a01b0316611e6d8285858080601f016020809104026020016040519081016040528093929190818152602001838380828437600092019190915250612dd392505050565b6001600160a01b031614611ead576040517f8baa579f00000000000000000000000000000000000000000000000000000000815260040160405180910390fd5b505050505050565b600080611ec483850185613bc5565b9150915060005a9050611ee886848460405180602001604052806000815250612883565b60005a90506000611ef7611a93565b905060008073abcc9b596420a9e9172fd5938620e265a0f9df92330361215f5761c350611f248587614467565b1115611f2f57600080fd5b367fffffffffffffffffffffffffffffffffffffffffffffffffffffffffffffffcc013560601c91506001600160a01b038316156120ec576040517f488772990000000000000000000000000000000000000000000000000000000081526001600160a01b038381166004830152841690634887729990602401602060405180830381865afa158015611fc6573d6000803e3d6000fd5b505050506040513d601f19601f82011682018060405250810190611fea919061447a565b905080156120ec577fffffffffffffffffffffffff11111111111111111111111111111111111111126001600160a01b0383160161205e576040516001600160a01b0384169082156108fc029083906000818181858888f19350505050158015612058573d6000803e3d6000fd5b506120ec565b6040517fa9059cbb0000000000000000000000000000000000000000000000000000000081526001600160a01b0384811660048301526024820183905283169063a9059cbb906044016020604051808303816000875af11580156120c6573d6000803e3d6000fd5b505050506040513d601f19601f820116820180604052508101906120ea919061438f565b505b7f4766921f5c59646d22d7d266a29164c8e9623684d8dfdbd931731dfdca0252388a888885612120601f1936013587614493565b604080516001600160a01b03968716815260208101959095528401929092529092166060820152608081019190915260a00160405180910390a161225f565b826001600160a01b0316634412ebcc6040518163ffffffff1660e01b8152600401602060405180830381865afa15801561219d573d6000803e3d6000fd5b505050506040513d601f19601f820116820180604052508101906121c1919061447a565b34146121cc57600080fd5b5060405134906001600160a01b0384169082156108fc029083906000818181858888f19350505050158015612205573d6000803e3d6000fd5b50604080516001600160a01b038c1681526020810189905290810187905260006060820181905260808201527f4766921f5c59646d22d7d266a29164c8e9623684d8dfdbd931731dfdca0252389060a00160405180910390a15b50505050505050505050565b638b78c6d8600c52816000526020600c20805482811681189250508181555080600c5160601c7f715ad5ce61fc9595c7b415289d59cf203f23a94fa06f04af7e489a0a76e1fe26600080a35050565b638b78c6d8195433146115e1576382b429006000526004601cfd5b638b78c6d8600c52816000526020600c208181541791508181555080600c5160601c7f715ad5ce61fc9595c7b415289d59cf203f23a94fa06f04af7e489a0a76e1fe26600080a35050565b6115e1367fffffffffffffffffffffffffffffffffffffffffffffffffffffffffffffffb8013560601c36601f190135367fffffffffffffffffffffffffffffffffffffffffffffffffffffffffffffffcc013560601c6001600160a01b03169190612df7565b69c617113400112233445560005230601a5280603a52600080604460166daaeb6d7670e522a718067333cd4e5afa6123c3573d6000803e3d6000fd5b6000603a5250565b8285146123e057633b800a466000526004601cfd5b8760601b679a31110384e0b0c9178760601b679a31110384e0b0c917816020528160601c99508060601c98508861241f5763ea553b346000526004601cfd5b89331461244257336000526034600c205461244257634b6e7f186000526004601cfd5b8660051b60005b8181146124b3578088013584602052818b0135600052604060002080548083111561247c5763f4d678b86000526004601cfd5b8290039055602084905260406000208054808301818110156124a6576301336cea6000526004601cfd5b9091555050602001612449565b50505050604051604081528560051b602001604082018160208a03823760408201602084810191909152600587901b01910181601f198801823701819003888a337f4a39dc06d4c0dbc64b70af90fd698a233a518aa5d07e595d983b8c0526c8f7fb8486a45050612522600090565b15612537576125378888888888888888612e46565b863b15611a895760405163bc197c8180825233602083015289604083015260a060608301528660051b60200160c083018160208b0382378160a00180608086015282820191508760051b60200192508260208a038337820160a085015260208501910181601f1987018237018290037fffffffffffffffffffffffffffffffffffffffffffffffffffffffffffffffe40160208382601c820160008e5af16125ee573d156125e9573d6000803e3d6000fd5b600083525b508060e01b82511461225f57639c05499b6000526004601cfd5b60007f360894a13ba1a3210667c828492db98dca3e2076cc3735a920a3ca505d382bbc611ab7565b6126386122ba565b612640611a93565b6040517ffe0607330000000000000000000000000000000000000000000000000000000081526001600160a01b038381166004830152919091169063fe0607339060240160006040518083038186803b15801561269c57600080fd5b505afa158015611739573d6000803e3d6000fd5b7f4910fdfa16fed3260ed0e7147f7cc6da11a60208b5b9406d12a635614ffd91435460ff16156126e35761175583612e4b565b826001600160a01b03166352d1902d6040518163ffffffff1660e01b8152600401602060405180830381865afa92505050801561273d575060408051601f3d908101601f1916820190925261273a9181019061447a565b60015b6127af5760405162461bcd60e51b815260206004820152602e60248201527f45524331393637557067726164653a206e657720696d706c656d656e7461746960448201527f6f6e206973206e6f7420555550530000000000000000000000000000000000006064820152608401610f5e565b7f360894a13ba1a3210667c828492db98dca3e2076cc3735a920a3ca505d382bbc81146128445760405162461bcd60e51b815260206004820152602960248201527f45524331393637557067726164653a20756e737570706f727465642070726f7860448201527f6961626c655555494400000000000000000000000000000000000000000000006064820152608401610f5e565b50611755838383612f21565b638b78c6d8600c5233600052806020600c205416610d8a57638b78c6d819543314610d8a576382b429006000526004601cfd5b8360601b679a31110384e0b0c9178060601c9450846128aa5763ea553b346000526004601cfd5b806020528360005260406000208054848101818110156128d2576301336cea6000526004601cfd5b808355505050508260005281602052836000337fc3d58168c5ae7397731d063d5bbf3d657854427343f4c083240f7aacaa2d0f6260406000a4833b156112ae576112ae600085858585612f46565b638b78c6d81980546001600160a01b039092169182907f8be0079c531659141344cd1fd0a4f28419497f9722a3daafe3b4186f6b6457e0600080a355565b638b78c6d819543314610d8a57638b78c6d8600c5233600052806020600c205416610d8a576382b429006000526004601cfd5b6127106bffffffffffffffffffffffff821611156129db576040517fee26445300000000000000000000000000000000000000000000000000000000815260040160405180910390fd5b6001600160a01b038216612a1b576040517f1e4ec46b00000000000000000000000000000000000000000000000000000000815260040160405180910390fd5b740100000000000000000000000000000000000000006bffffffffffffffffffffffff909116026001600160a01b03909116177f7ca70eb017bb149b6812a3dda3f2c8ae75ca8fc7203473d6f36a70a4cf8b051255565b8160601b60601c915080151590503360601b679a31110384e0b0c91760205281600052806034600c20558060005281337f17307eab39ab6107e8899845ad3d59bd9653f200f220920489ca2b5937696c3160206000a35050565b7fee151c8401928dc223602bb187aff91b9a56c7cae5476ef1b3287b085a16c85f54610100900460ff16612b685760405162461bcd60e51b815260206004820152603460248201527f455243373231415f5f496e697469616c697a61626c653a20636f6e747261637460448201527f206973206e6f7420696e697469616c697a696e670000000000000000000000006064820152608401610f5e565b7f1f0c0848ffbdef50dbc17c19b3aa74d08d8b92b8a2dbbfbe840fa6ee068316e780547fffffffffffffffffffffff000000000000000000000000000000000000000000168315157fffffffffffffffffffffff0000000000000000000000000000000000000000ff16176101006001600160a01b03841602179055610e0233612fd6565b6115e1733cc6cdda760b79bafa08df41ecfa224f810dceb66001613012565b6001600160a01b03811660008181527f1f0c0848ffbdef50dbc17c19b3aa74d08d8b92b8a2dbbfbe840fa6ee068316e8602052604080822060029055517f99a705a3c2c3339d0051f56b36a60fef91e30142c93353002617999f27aec4af9190a250565b8560601b679a31110384e0b0c9178560601b679a31110384e0b0c917816020528160601c97508060601c9650873314612cbf57336000526034600c2054612cbf57634b6e7f186000526004601cfd5b86612cd25763ea553b346000526004601cfd5b8560005260406000209150815480861115612cf55763f4d678b86000526004601cfd5b8581038355508060205260406000209150815485810181811015612d21576301336cea6000526004601cfd5b909255505060208390528486337fc3d58168c5ae7397731d063d5bbf3d657854427343f4c083240f7aacaa2d0f6260406000a4843b15611ead5760405163f23a6e6180825233602083015287604083015285606083015284608083015260a080830152826020016020850360c08401376020828460c401601c850160008b5af1612dba573d15612db5573d6000803e3d6000fd5b600082525b8060e01b825114611a8957639c05499b6000526004601cfd5b6000806000612de28585613087565b91509150612def816130c9565b509392505050565b80600003612e0457505050565b6001600160a01b03831673eeeeeeeeeeeeeeeeeeeeeeeeeeeeeeeeeeeeeeee14612e3c576117556001600160a01b038416838361322e565b61175582826132ae565b611a89565b6001600160a01b0381163b612ec85760405162461bcd60e51b815260206004820152602d60248201527f455243313936373a206e657720696d706c656d656e746174696f6e206973206e60448201527f6f74206120636f6e7472616374000000000000000000000000000000000000006064820152608401610f5e565b7f360894a13ba1a3210667c828492db98dca3e2076cc3735a920a3ca505d382bbc80547fffffffffffffffffffffffff0000000000000000000000000000000000000000166001600160a01b0392909216919091179055565b612f2a836133c7565b600082511180612f375750805b15611755576112ae8383613407565b60405163f23a6e618082523360208301528660601b60601c604083015284606083015283608083015260a08083015282518060c08401528015612f93578060e08401826020870160045afa505b6020838260c401601c860160008b5af1612fbc573d15612fb7573d6000803e3d6000fd5b600083525b508060e01b825114611b7557639c05499b6000526004601cfd5b6001600160a01b0316638b78c6d8198190558060007f8be0079c531659141344cd1fd0a4f28419497f9722a3daafe3b4186f6b6457e08180a350565b6001600160a01b0390911690637d3e3dbe8161303f57826130385750634420e48661303f565b5063a0af29035b8060e01b60005230600452826024526004600060446000806daaeb6d7670e522a718067333cd4e5af161307d578060005160e01c0361307d57600080fd5b5060006024525050565b60008082516041036130bd5760208301516040840151606085015160001a6130b187828585613512565b94509450505050610ef8565b50600090506002610ef8565b60008160048111156130dd576130dd6144a6565b036130e55750565b60018160048111156130f9576130f96144a6565b036131465760405162461bcd60e51b815260206004820152601860248201527f45434453413a20696e76616c6964207369676e617475726500000000000000006044820152606401610f5e565b600281600481111561315a5761315a6144a6565b036131a75760405162461bcd60e51b815260206004820152601f60248201527f45434453413a20696e76616c6964207369676e6174757265206c656e677468006044820152606401610f5e565b60038160048111156131bb576131bb6144a6565b03610d8a5760405162461bcd60e51b815260206004820152602260248201527f45434453413a20696e76616c6964207369676e6174757265202773272076616c60448201527f75650000000000000000000000000000000000000000000000000000000000006064820152608401610f5e565b604080516001600160a01b038416602482015260448082018490528251808303909101815260649091019091526020810180517bffffffffffffffffffffffffffffffffffffffffffffffffffffffff167fa9059cbb000000000000000000000000000000000000000000000000000000001790526117559084906135d6565b804710156132fe5760405162461bcd60e51b815260206004820152601d60248201527f416464726573733a20696e73756666696369656e742062616c616e63650000006044820152606401610f5e565b6000826001600160a01b03168260405160006040518083038185875af1925050503d806000811461334b576040519150601f19603f3d011682016040523d82523d6000602084013e613350565b606091505b50509050806117555760405162461bcd60e51b815260206004820152603a60248201527f416464726573733a20756e61626c6520746f2073656e642076616c75652c207260448201527f6563697069656e74206d617920686176652072657665727465640000000000006064820152608401610f5e565b6133d081612e4b565b6040516001600160a01b038216907fbc7cd75a20ee27fd9adebab32041f755214dbc6bffa90cc0225b39da2e5c2d3b90600090a250565b60606001600160a01b0383163b6134865760405162461bcd60e51b815260206004820152602660248201527f416464726573733a2064656c65676174652063616c6c20746f206e6f6e2d636f60448201527f6e747261637400000000000000000000000000000000000000000000000000006064820152608401610f5e565b600080846001600160a01b0316846040516134a191906144d5565b600060405180830381855af49150503d80600081146134dc576040519150601f19603f3d011682016040523d82523d6000602084013e6134e1565b606091505b509150915061350982826040518060600160405280602781526020016144f2602791396136bb565b95945050505050565b6000807f7fffffffffffffffffffffffffffffff5d576e7357a4501ddfe92f46681b20a083111561354957506000905060036135cd565b6040805160008082526020820180845289905260ff881692820192909252606081018690526080810185905260019060a0016020604051602081039080840390855afa15801561359d573d6000803e3d6000fd5b5050604051601f1901519150506001600160a01b0381166135c6576000600192509250506135cd565b9150600090505b94509492505050565b600061362b826040518060400160405280602081526020017f5361666545524332303a206c6f772d6c6576656c2063616c6c206661696c6564815250856001600160a01b03166136db9092919063ffffffff16565b8051909150156117555780806020019051810190613649919061438f565b6117555760405162461bcd60e51b815260206004820152602a60248201527f5361666545524332303a204552433230206f7065726174696f6e20646964206e60448201527f6f742073756363656564000000000000000000000000000000000000000000006064820152608401610f5e565b606083156136ca5750816136d4565b6136d483836136ea565b9392505050565b6060611dd48484600085613714565b8151156136fa5781518083602001fd5b8060405162461bcd60e51b8152600401610f5e9190613926565b60608247101561378c5760405162461bcd60e51b815260206004820152602660248201527f416464726573733a20696e73756666696369656e742062616c616e636520666f60448201527f722063616c6c00000000000000000000000000000000000000000000000000006064820152608401610f5e565b600080866001600160a01b031685876040516137a891906144d5565b60006040518083038185875af1925050503d80600081146137e5576040519150601f19603f3d011682016040523d82523d6000602084013e6137ea565b606091505b50915091506137fb87838387613806565b979650505050505050565b6060831561387557825160000361386e576001600160a01b0385163b61386e5760405162461bcd60e51b815260206004820152601d60248201527f416464726573733a2063616c6c20746f206e6f6e2d636f6e74726163740000006044820152606401610f5e565b5081611dd4565b611dd483836136ea565b6001600160a01b0381168114610d8a57600080fd5b600080604083850312156138a757600080fd5b82356138b28161387f565b946020939093013593505050565b6000602082840312156138d257600080fd5b81357fffffffff00000000000000000000000000000000000000000000000000000000811681146136d457600080fd5b60005b8381101561391d578181015183820152602001613905565b50506000910152565b6020815260008251806020840152613945816040850160208701613902565b601f01601f19169190910160400192915050565b60006020828403121561396b57600080fd5b5035919050565b60008083601f84011261398457600080fd5b50813567ffffffffffffffff81111561399c57600080fd5b602083019150836020828501011115610ef857600080fd5b600080600080600080600080600060c08a8c0312156139d257600080fd5b89356139dd8161387f565b985060208a01356139ed8161387f565b975060408a013567ffffffffffffffff8082168214613a0b57600080fd5b90975060608b01359080821115613a2157600080fd5b613a2d8d838e01613972565b909850965060808c0135915080821115613a4657600080fd5b613a528d838e01613972565b909650945060a08c0135915080821115613a6b57600080fd5b50613a788c828d01613972565b915080935050809150509295985092959850929598565b7f4e487b7100000000000000000000000000000000000000000000000000000000600052604160045260246000fd5b604051601f8201601f1916810167ffffffffffffffff81118282101715613ae757613ae7613a8f565b604052919050565b60006020808385031215613b0257600080fd5b823567ffffffffffffffff80821115613b1a57600080fd5b818501915085601f830112613b2e57600080fd5b813581811115613b4057613b40613a8f565b8060051b9150613b51848301613abe565b8181529183018401918481019088841115613b6b57600080fd5b938501935b83851015613b9c578435925060ff83168314613b8c5760008081fd5b8282529385019390850190613b70565b98975050505050505050565b600060208284031215613bba57600080fd5b81356136d48161387f565b60008060408385031215613bd857600080fd5b50508035926020909101359150565b60008083601f840112613bf957600080fd5b50813567ffffffffffffffff811115613c1157600080fd5b6020830191508360208260051b8501011115610ef857600080fd5b60008060008060008060008060a0898b031215613c4857600080fd5b8835613c538161387f565b97506020890135613c638161387f565b9650604089013567ffffffffffffffff80821115613c8057600080fd5b613c8c8c838d01613be7565b909850965060608b0135915080821115613ca557600080fd5b613cb18c838d01613be7565b909650945060808b0135915080821115613cca57600080fd5b50613cd78b828c01613972565b999c989b5096995094979396929594505050565b600080600060608486031215613d0057600080fd5b8335613d0b8161387f565b95602085013595506040909401359392505050565b60008060208385031215613d3357600080fd5b823567ffffffffffffffff811115613d4a57600080fd5b613d5685828601613972565b90969095509350505050565b60008060008060408587031215613d7857600080fd5b843567ffffffffffffffff80821115613d9057600080fd5b613d9c88838901613be7565b90965094506020870135915080821115613db557600080fd5b50613dc287828801613be7565b95989497509550505050565b6020808252825182820181905260009190848201906040850190845b81811015613e0657835183529284019291840191600101613dea565b50909695505050505050565b60008060408385031215613e2557600080fd5b8235613e308161387f565b915060208381013567ffffffffffffffff80821115613e4e57600080fd5b818601915086601f830112613e6257600080fd5b813581811115613e7457613e74613a8f565b613e8684601f19601f84011601613abe565b91508082528784828501011115613e9c57600080fd5b80848401858401376000848284010152508093505050509250929050565b6020808252825182820181905260009190848201906040850190845b81811015613e0657835160ff1683529284019291840191600101613ed6565b600080600060408486031215613f0a57600080fd5b83359250602084013567ffffffffffffffff811115613f2857600080fd5b613f3486828701613972565b9497909650939450505050565b60008060408385031215613f5457600080fd5b8235613f5f8161387f565b915060208301356bffffffffffffffffffffffff81168114613f8057600080fd5b809150509250929050565b8015158114610d8a57600080fd5b60008060408385031215613fac57600080fd5b8235613fb78161387f565b91506020830135613f8081613f8b565b600080600080600080600060a0888a031215613fe257600080fd5b873567ffffffffffffffff80821115613ffa57600080fd5b6140068b838c01613972565b909950975060208a013591508082111561401f57600080fd5b5061402c8a828b01613972565b909650945050604088013561404081613f8b565b925060608801356140508161387f565b915060808801356140608161387f565b8091505092959891949750929550565b6000806040838503121561408357600080fd5b823561408e8161387f565b91506020830135613f808161387f565b600080602083850312156140b157600080fd5b823567ffffffffffffffff8111156140c857600080fd5b613d5685828601613be7565b60008060008060008060a087890312156140ed57600080fd5b86356140f88161387f565b955060208701356141088161387f565b94506040870135935060608701359250608087013567ffffffffffffffff81111561413257600080fd5b61413e89828a01613972565b979a9699509497509295939492505050565b600181811c9082168061416457607f821691505b602082108103610d7a577f4e487b7100000000000000000000000000000000000000000000000000000000600052602260045260246000fd5b7f4e487b7100000000000000000000000000000000000000000000000000000000600052601160045260246000fd5b80820281158282048414176109f8576109f861419d565b600082614219577f4e487b7100000000000000000000000000000000000000000000000000000000600052601260045260246000fd5b500490565b601f82111561175557600081815260208120601f850160051c810160208610156142455750805b601f850160051c820191505b81811015611ead57828155600101614251565b67ffffffffffffffff83111561427c5761427c613a8f565b6142908361428a8354614150565b8361421e565b6000601f8411600181146142e257600085156142ac5750838201355b7fffffffffffffffffffffffffffffffffffffffffffffffffffffffffffffffff600387901b1c1916600186901b178355611739565b600083815260209020601f19861690835b8281101561431357868501358255602094850194600190920191016142f3565b508682101561434e577fffffffffffffffffffffffffffffffffffffffffffffffffffffffffffffffff60f88860031b161c19848701351681555b505060018560011b0183555050505050565b60208152816020820152818360408301376000818301604090810191909152601f909201601f19160101919050565b6000602082840312156143a157600080fd5b81516136d481613f8b565b7f4e487b7100000000000000000000000000000000000000000000000000000000600052603260045260246000fd5b60007fffffffffffffffffffffffffffffffffffffffff000000000000000000000000808860601b1683527fffffffffffffffff0000000000000000000000000000000000000000000000008760c01b166014840152808660601b16601c840152508360308301528251614456816050850160208701613902565b919091016050019695505050505050565b818103818111156109f8576109f861419d565b60006020828403121561448c57600080fd5b5051919050565b808201808211156109f8576109f861419d565b7f4e487b7100000000000000000000000000000000000000000000000000000000600052602160045260246000fd5b600082516144e7818460208701613902565b919091019291505056fe416464726573733a206c6f772d6c6576656c2064656c65676174652063616c6c206661696c6564a264697066735822122063c5b821c134b52ca3097e9fc4e39e696c34dbd18bddad2792dfb8ccd8eaf1b664736f6c63430008110033",
  "devdoc": {
    "errors": {
      "AccountBalanceOverflow()": [
        {
          "details": "The recipient's balance has overflowed."
        }
      ],
      "ArrayLengthsMismatch()": [
        {
          "details": "The lengths of the input arrays are not the same."
        }
      ],
      "InsufficientBalance()": [
        {
          "details": "Insufficient balance."
        }
      ],
      "NewOwnerIsZeroAddress()": [
        {
          "details": "The `newOwner` cannot be the zero address."
        }
      ],
      "NoHandoverRequest()": [
        {
          "details": "The `pendingOwner` does not have a valid handover request."
        }
      ],
      "NotOwnerNorApproved()": [
        {
          "details": "Only the token owner or an approved account can manage the tokens."
        }
      ],
      "TransferToNonERC1155ReceiverImplementer()": [
        {
          "details": "Cannot safely transfer to a contract that does not implement the ERC1155Receiver interface."
        }
      ],
      "TransferToZeroAddress()": [
        {
          "details": "Cannot mint or transfer to the zero address."
        }
      ],
      "Unauthorized()": [
        {
          "details": "The caller is not authorized to call the function."
        }
      ]
    },
    "kind": "dev",
    "methods": {
      "balanceOf(address,uint256)": {
        "details": "Returns the amount of `id` owned by `owner`."
      },
      "balanceOfBatch(address[],uint256[])": {
        "details": "Returns the amounts of `ids` for `owners. Requirements: - `owners` and `ids` must have the same length."
      },
      "cancelOwnershipHandover()": {
        "details": "Cancels the two-step ownership handover to the caller, if any."
      },
      "completeOwnershipHandover(address)": {
        "details": "Allows the owner to complete the two-step ownership handover to `pendingOwner`. Reverts if there is no existing ownership handover requested by `pendingOwner`."
      },
      "grantRoles(address,uint256)": {
        "details": "Allows the owner to grant `user` `roles`. If the `user` already has a role, then it will be an no-op for the role."
      },
      "hasAllRoles(address,uint256)": {
        "details": "Returns whether `user` has all of `roles`."
      },
      "hasAnyRole(address,uint256)": {
        "details": "Returns whether `user` has any of `roles`."
      },
      "isApprovedForAll(address,address)": {
        "details": "Returns whether `operator` is approved to manage the tokens of `owner`."
      },
      "ordinalsFromRoles(uint256)": {
        "details": "Convenience function to return an array of `ordinals` from the `roles` bitmap. This is meant for frontends like Etherscan, and is therefore not fully optimized. Not recommended to be called on-chain."
      },
      "owner()": {
        "details": "Returns the owner of the contract."
      },
      "ownershipHandoverExpiresAt(address)": {
        "details": "Returns the expiry timestamp for the two-step ownership handover to `pendingOwner`."
      },
      "ownershipHandoverValidFor()": {
        "details": "Returns how long a two-step ownership handover is valid for in seconds."
      },
      "proxiableUUID()": {
        "details": "Implementation of the ERC1822 {proxiableUUID} function. This returns the storage slot used by the implementation. It is used to validate the implementation's compatibility when performing an upgrade. IMPORTANT: A proxy pointing at a proxiable contract should not be considered proxiable itself, because this risks bricking a proxy that upgrades to it, by delegating to itself until out of gas. Thus it is critical that this function revert if invoked through a proxy. This is guaranteed by the `notDelegated` modifier."
      },
      "renounceOwnership()": {
        "details": "Allows the owner to renounce their ownership."
      },
      "renounceRoles(uint256)": {
        "details": "Allow the caller to remove their own roles. If the caller does not have a role, then it will be an no-op for the role."
      },
      "requestOwnershipHandover()": {
        "details": "Request a two-step ownership handover to the caller. The request will be automatically expire in 48 hours (172800 seconds) by default."
      },
      "revokeRoles(address,uint256)": {
        "details": "Allows the owner to remove `user` `roles`. If the `user` does not have a role, then it will be an no-op for the role."
      },
      "rolesFromOrdinals(uint8[])": {
        "details": "Convenience function to return a `roles` bitmap from an array of `ordinals`. This is meant for frontends like Etherscan, and is therefore not fully optimized. Not recommended to be called on-chain."
      },
      "rolesOf(address)": {
        "details": "Returns the roles of `user`."
      },
      "royaltyInfo(uint256,uint256)": {
        "details": "Returns how much royalty is owed and to whom, based on a sale price that may be denominated in any unit of exchange. The royalty amount is denominated and should be paid in that same unit of exchange."
      },
      "safeBatchTransferFrom(address,address,uint256[],uint256[],bytes)": {
        "details": "Transfers `amounts` of `ids` from `from` to `to`. Requirements: - `to` cannot be the zero address. - `from` must have at least `amount` of `id`. - `ids` and `amounts` must have the same length. - If the caller is not `from`,   it must be approved to manage the tokens of `from`. - If `to` refers to a smart contract, it must implement   {ERC1155-onERC1155BatchReveived}, which is called upon a batch transfer. Emits a {TransferBatch} event."
      },
      "transferOwnership(address)": {
        "details": "Allows the owner to transfer the ownership to `newOwner`."
      },
      "upgradeTo(address)": {
        "details": "Upgrade the implementation of the proxy to `newImplementation`. Calls {_authorizeUpgrade}. Emits an {Upgraded} event."
      },
      "upgradeToAndCall(address,bytes)": {
        "details": "Upgrade the implementation of the proxy to `newImplementation`, and subsequently execute the function call encoded in `data`. Calls {_authorizeUpgrade}. Emits an {Upgraded} event."
      },
      "uri(uint256)": {
        "details": "Returns the URI for token `id`. You can either return the same templated URI for all token IDs, (e.g. \"https://example.com/api/{id}.json\"), or return a unique URI for each `id`. See: https://eips.ethereum.org/EIPS/eip-1155#metadata"
      }
    },
    "version": 1
  },
  "userdoc": {
    "kind": "user",
    "methods": {},
    "version": 1
  },
  "storageLayout": {
    "storage": [
      {
        "astId": 683,
        "contract": "contracts/LinkForge1155.sol:LinkForge1155",
        "label": "_initialized",
        "offset": 0,
        "slot": "0",
        "type": "t_uint8"
      },
      {
        "astId": 686,
        "contract": "contracts/LinkForge1155.sol:LinkForge1155",
        "label": "_initializing",
        "offset": 1,
        "slot": "0",
        "type": "t_bool"
      },
      {
        "astId": 665,
        "contract": "contracts/LinkForge1155.sol:LinkForge1155",
        "label": "__gap",
        "offset": 0,
        "slot": "1",
        "type": "t_array(t_uint256)50_storage"
      },
      {
        "astId": 980,
        "contract": "contracts/LinkForge1155.sol:LinkForge1155",
        "label": "__gap",
        "offset": 0,
        "slot": "51",
        "type": "t_array(t_uint256)50_storage"
      }
    ],
    "types": {
      "t_array(t_uint256)50_storage": {
        "base": "t_uint256",
        "encoding": "inplace",
        "label": "uint256[50]",
        "numberOfBytes": "1600"
      },
      "t_bool": {
        "encoding": "inplace",
        "label": "bool",
        "numberOfBytes": "1"
      },
      "t_uint256": {
        "encoding": "inplace",
        "label": "uint256",
        "numberOfBytes": "32"
      },
      "t_uint8": {
        "encoding": "inplace",
        "label": "uint8",
        "numberOfBytes": "1"
      }
    }
  }
}