{
  "address": "0x7650173D9E39753bB0Aa0bE1d2E7fF981773c0A0",
  "abi": [
    {
      "inputs": [],
      "stateMutability": "nonpayable",
      "type": "constructor"
    },
    {
      "inputs": [],
      "name": "AccountBalanceOverflow",
      "type": "error"
    },
    {
      "inputs": [],
      "name": "BalanceQueryForZeroAddress",
      "type": "error"
    },
    {
      "inputs": [],
      "name": "GelatoRelayNotEnabled",
      "type": "error"
    },
    {
      "inputs": [],
      "name": "InvalidCertificate",
      "type": "error"
    },
    {
      "inputs": [],
      "name": "InvalidSignature",
      "type": "error"
    },
    {
      "inputs": [],
      "name": "InvalidSigner",
      "type": "error"
    },
    {
      "inputs": [],
      "name": "NewOwnerIsZeroAddress",
      "type": "error"
    },
    {
      "inputs": [],
      "name": "NoHandoverRequest",
      "type": "error"
    },
    {
      "inputs": [],
      "name": "NotOwnerNorApproved",
      "type": "error"
    },
    {
      "inputs": [],
      "name": "RoyaltyOverflow",
      "type": "error"
    },
    {
      "inputs": [],
      "name": "RoyaltyReceiverIsZeroAddress",
      "type": "error"
    },
    {
      "inputs": [],
      "name": "TokenAlreadyExists",
      "type": "error"
    },
    {
      "inputs": [],
      "name": "TokenDoesNotExist",
      "type": "error"
    },
    {
      "inputs": [],
      "name": "TransferFromIncorrectOwner",
      "type": "error"
    },
    {
      "inputs": [],
      "name": "TransferToNonERC721ReceiverImplementer",
      "type": "error"
    },
    {
      "inputs": [],
      "name": "TransferToZeroAddress",
      "type": "error"
    },
    {
      "inputs": [],
      "name": "Unauthorized",
      "type": "error"
    },
    {
      "inputs": [],
      "name": "ZeroAddress",
      "type": "error"
    },
    {
      "anonymous": false,
      "inputs": [
        {
          "indexed": false,
          "internalType": "address",
          "name": "previousAdmin",
          "type": "address"
        },
        {
          "indexed": false,
          "internalType": "address",
          "name": "newAdmin",
          "type": "address"
        }
      ],
      "name": "AdminChanged",
      "type": "event"
    },
    {
      "anonymous": false,
      "inputs": [
        {
          "indexed": true,
          "internalType": "address",
          "name": "owner",
          "type": "address"
        },
        {
          "indexed": true,
          "internalType": "address",
          "name": "account",
          "type": "address"
        },
        {
          "indexed": true,
          "internalType": "uint256",
          "name": "id",
          "type": "uint256"
        }
      ],
      "name": "Approval",
      "type": "event"
    },
    {
      "anonymous": false,
      "inputs": [
        {
          "indexed": true,
          "internalType": "address",
          "name": "owner",
          "type": "address"
        },
        {
          "indexed": true,
          "internalType": "address",
          "name": "operator",
          "type": "address"
        },
        {
          "indexed": false,
          "internalType": "bool",
          "name": "isApproved",
          "type": "bool"
        }
      ],
      "name": "ApprovalForAll",
      "type": "event"
    },
    {
      "anonymous": false,
      "inputs": [
        {
          "indexed": true,
          "internalType": "address",
          "name": "beacon",
          "type": "address"
        }
      ],
      "name": "BeaconUpgraded",
      "type": "event"
    },
    {
      "anonymous": false,
      "inputs": [
        {
          "indexed": false,
          "internalType": "address",
          "name": "recepiant",
          "type": "address"
        },
        {
          "indexed": false,
          "internalType": "uint256",
          "name": "edition",
          "type": "uint256"
        },
        {
          "indexed": false,
          "internalType": "uint256",
          "name": "amount",
          "type": "uint256"
        },
        {
          "indexed": false,
          "internalType": "address",
          "name": "token",
          "type": "address"
        },
        {
          "indexed": false,
          "internalType": "uint256",
          "name": "fee",
          "type": "uint256"
        }
      ],
      "name": "Claimed",
      "type": "event"
    },
    {
      "anonymous": false,
      "inputs": [
        {
          "indexed": false,
          "internalType": "uint8",
          "name": "version",
          "type": "uint8"
        }
      ],
      "name": "Initialized",
      "type": "event"
    },
    {
      "anonymous": false,
      "inputs": [
        {
          "indexed": true,
          "internalType": "address",
          "name": "pendingOwner",
          "type": "address"
        }
      ],
      "name": "OwnershipHandoverCanceled",
      "type": "event"
    },
    {
      "anonymous": false,
      "inputs": [
        {
          "indexed": true,
          "internalType": "address",
          "name": "pendingOwner",
          "type": "address"
        }
      ],
      "name": "OwnershipHandoverRequested",
      "type": "event"
    },
    {
      "anonymous": false,
      "inputs": [
        {
          "indexed": true,
          "internalType": "address",
          "name": "oldOwner",
          "type": "address"
        },
        {
          "indexed": true,
          "internalType": "address",
          "name": "newOwner",
          "type": "address"
        }
      ],
      "name": "OwnershipTransferred",
      "type": "event"
    },
    {
      "anonymous": false,
      "inputs": [
        {
          "indexed": true,
          "internalType": "address",
          "name": "user",
          "type": "address"
        },
        {
          "indexed": true,
          "internalType": "uint256",
          "name": "roles",
          "type": "uint256"
        }
      ],
      "name": "RolesUpdated",
      "type": "event"
    },
    {
      "anonymous": false,
      "inputs": [
        {
          "indexed": true,
          "internalType": "address",
          "name": "signer",
          "type": "address"
        }
      ],
      "name": "SignerRevoked",
      "type": "event"
    },
    {
      "anonymous": false,
      "inputs": [
        {
          "indexed": true,
          "internalType": "address",
          "name": "signer",
          "type": "address"
        }
      ],
      "name": "SignerUsed",
      "type": "event"
    },
    {
      "anonymous": false,
      "inputs": [
        {
          "indexed": true,
          "internalType": "address",
          "name": "from",
          "type": "address"
        },
        {
          "indexed": true,
          "internalType": "address",
          "name": "to",
          "type": "address"
        },
        {
          "indexed": true,
          "internalType": "uint256",
          "name": "id",
          "type": "uint256"
        }
      ],
      "name": "Transfer",
      "type": "event"
    },
    {
      "anonymous": false,
      "inputs": [
        {
          "indexed": false,
          "internalType": "string",
          "name": "value",
          "type": "string"
        },
        {
          "indexed": true,
          "internalType": "uint256",
          "name": "id",
          "type": "uint256"
        }
      ],
      "name": "URI",
      "type": "event"
    },
    {
      "anonymous": false,
      "inputs": [
        {
          "indexed": true,
          "internalType": "address",
          "name": "implementation",
          "type": "address"
        }
      ],
      "name": "Upgraded",
      "type": "event"
    },
    {
      "inputs": [
        {
          "internalType": "address",
          "name": "account",
          "type": "address"
        },
        {
          "internalType": "uint256",
          "name": "id",
          "type": "uint256"
        }
      ],
      "name": "approve",
      "outputs": [],
      "stateMutability": "payable",
      "type": "function"
    },
    {
      "inputs": [
        {
          "internalType": "address",
          "name": "owner",
          "type": "address"
        }
      ],
      "name": "balanceOf",
      "outputs": [
        {
          "internalType": "uint256",
          "name": "result",
          "type": "uint256"
        }
      ],
      "stateMutability": "view",
      "type": "function"
    },
    {
      "inputs": [],
      "name": "cancelOwnershipHandover",
      "outputs": [],
      "stateMutability": "payable",
      "type": "function"
    },
    {
      "inputs": [
        {
          "internalType": "address",
          "name": "recepiant",
          "type": "address"
        },
        {
          "internalType": "address",
          "name": "signer",
          "type": "address"
        },
        {
          "internalType": "uint64",
          "name": "deadline",
          "type": "uint64"
        },
        {
          "internalType": "bytes",
          "name": "data",
          "type": "bytes"
        },
        {
          "internalType": "bytes",
          "name": "signature",
          "type": "bytes"
        },
        {
          "internalType": "bytes",
          "name": "certificate",
          "type": "bytes"
        }
      ],
      "name": "claim",
      "outputs": [],
      "stateMutability": "payable",
      "type": "function"
    },
    {
      "inputs": [
        {
          "internalType": "address",
          "name": "recepiant",
          "type": "address"
        },
        {
          "internalType": "address",
          "name": "signer",
          "type": "address"
        },
        {
          "internalType": "uint64",
          "name": "deadline",
          "type": "uint64"
        },
        {
          "internalType": "bytes",
          "name": "data",
          "type": "bytes"
        },
        {
          "internalType": "bytes",
          "name": "signature",
          "type": "bytes"
        },
        {
          "internalType": "bytes",
          "name": "certificate",
          "type": "bytes"
        }
      ],
      "name": "claimThroughRelay",
      "outputs": [],
      "stateMutability": "nonpayable",
      "type": "function"
    },
    {
      "inputs": [
        {
          "internalType": "address",
          "name": "pendingOwner",
          "type": "address"
        }
      ],
      "name": "completeOwnershipHandover",
      "outputs": [],
      "stateMutability": "payable",
      "type": "function"
    },
    {
      "inputs": [],
      "name": "defautURI",
      "outputs": [
        {
          "internalType": "string",
          "name": "",
          "type": "string"
        }
      ],
      "stateMutability": "view",
      "type": "function"
    },
    {
      "inputs": [
        {
          "internalType": "address",
          "name": "to",
          "type": "address"
        },
        {
          "internalType": "uint256",
          "name": "edition",
          "type": "uint256"
        },
        {
          "internalType": "uint256",
          "name": "amount",
          "type": "uint256"
        }
      ],
      "name": "devMint",
      "outputs": [],
      "stateMutability": "nonpayable",
      "type": "function"
    },
    {
      "inputs": [],
      "name": "factory",
      "outputs": [
        {
          "internalType": "address",
          "name": "",
          "type": "address"
        }
      ],
      "stateMutability": "view",
      "type": "function"
    },
    {
      "inputs": [],
      "name": "gelatoRelayEnabled",
      "outputs": [
        {
          "internalType": "bool",
          "name": "",
          "type": "bool"
        }
      ],
      "stateMutability": "view",
      "type": "function"
    },
    {
      "inputs": [
        {
          "internalType": "uint256",
          "name": "id",
          "type": "uint256"
        }
      ],
      "name": "getApproved",
      "outputs": [
        {
          "internalType": "address",
          "name": "result",
          "type": "address"
        }
      ],
      "stateMutability": "view",
      "type": "function"
    },
    {
      "inputs": [],
      "name": "getCertificateAuthority",
      "outputs": [
        {
          "internalType": "address",
          "name": "",
          "type": "address"
        }
      ],
      "stateMutability": "view",
      "type": "function"
    },
    {
      "inputs": [
        {
          "internalType": "address",
          "name": "user",
          "type": "address"
        },
        {
          "internalType": "uint256",
          "name": "roles",
          "type": "uint256"
        }
      ],
      "name": "grantRoles",
      "outputs": [],
      "stateMutability": "payable",
      "type": "function"
    },
    {
      "inputs": [
        {
          "internalType": "address",
          "name": "user",
          "type": "address"
        },
        {
          "internalType": "uint256",
          "name": "roles",
          "type": "uint256"
        }
      ],
      "name": "hasAllRoles",
      "outputs": [
        {
          "internalType": "bool",
          "name": "result",
          "type": "bool"
        }
      ],
      "stateMutability": "view",
      "type": "function"
    },
    {
      "inputs": [
        {
          "internalType": "address",
          "name": "user",
          "type": "address"
        },
        {
          "internalType": "uint256",
          "name": "roles",
          "type": "uint256"
        }
      ],
      "name": "hasAnyRole",
      "outputs": [
        {
          "internalType": "bool",
          "name": "result",
          "type": "bool"
        }
      ],
      "stateMutability": "view",
      "type": "function"
    },
    {
      "inputs": [
        {
          "internalType": "string",
          "name": "name_",
          "type": "string"
        },
        {
          "internalType": "string",
          "name": "symbol_",
          "type": "string"
        },
        {
          "internalType": "bool",
          "name": "gelatoRelayEnabled_",
          "type": "bool"
        },
        {
          "internalType": "address",
          "name": "certificateAuthority_",
          "type": "address"
        },
        {
          "internalType": "address",
          "name": "factory_",
          "type": "address"
        }
      ],
      "name": "initialize",
      "outputs": [],
      "stateMutability": "nonpayable",
      "type": "function"
    },
    {
      "inputs": [
        {
          "internalType": "address",
          "name": "owner",
          "type": "address"
        },
        {
          "internalType": "address",
          "name": "operator",
          "type": "address"
        }
      ],
      "name": "isApprovedForAll",
      "outputs": [
        {
          "internalType": "bool",
          "name": "result",
          "type": "bool"
        }
      ],
      "stateMutability": "view",
      "type": "function"
    },
    {
      "inputs": [],
      "name": "name",
      "outputs": [
        {
          "internalType": "string",
          "name": "",
          "type": "string"
        }
      ],
      "stateMutability": "view",
      "type": "function"
    },
    {
      "inputs": [
        {
          "internalType": "uint256",
          "name": "roles",
          "type": "uint256"
        }
      ],
      "name": "ordinalsFromRoles",
      "outputs": [
        {
          "internalType": "uint8[]",
          "name": "ordinals",
          "type": "uint8[]"
        }
      ],
      "stateMutability": "pure",
      "type": "function"
    },
    {
      "inputs": [],
      "name": "owner",
      "outputs": [
        {
          "internalType": "address",
          "name": "result",
          "type": "address"
        }
      ],
      "stateMutability": "view",
      "type": "function"
    },
    {
      "inputs": [
        {
          "internalType": "uint256",
          "name": "id",
          "type": "uint256"
        }
      ],
      "name": "ownerOf",
      "outputs": [
        {
          "internalType": "address",
          "name": "result",
          "type": "address"
        }
      ],
      "stateMutability": "view",
      "type": "function"
    },
    {
      "inputs": [
        {
          "internalType": "address",
          "name": "pendingOwner",
          "type": "address"
        }
      ],
      "name": "ownershipHandoverExpiresAt",
      "outputs": [
        {
          "internalType": "uint256",
          "name": "result",
          "type": "uint256"
        }
      ],
      "stateMutability": "view",
      "type": "function"
    },
    {
      "inputs": [],
      "name": "ownershipHandoverValidFor",
      "outputs": [
        {
          "internalType": "uint64",
          "name": "",
          "type": "uint64"
        }
      ],
      "stateMutability": "view",
      "type": "function"
    },
    {
      "inputs": [],
      "name": "proxiableUUID",
      "outputs": [
        {
          "internalType": "bytes32",
          "name": "",
          "type": "bytes32"
        }
      ],
      "stateMutability": "view",
      "type": "function"
    },
    {
      "inputs": [],
      "name": "renounceOwnership",
      "outputs": [],
      "stateMutability": "payable",
      "type": "function"
    },
    {
      "inputs": [
        {
          "internalType": "uint256",
          "name": "roles",
          "type": "uint256"
        }
      ],
      "name": "renounceRoles",
      "outputs": [],
      "stateMutability": "payable",
      "type": "function"
    },
    {
      "inputs": [],
      "name": "requestOwnershipHandover",
      "outputs": [],
      "stateMutability": "payable",
      "type": "function"
    },
    {
      "inputs": [
        {
          "internalType": "address",
          "name": "user",
          "type": "address"
        },
        {
          "internalType": "uint256",
          "name": "roles",
          "type": "uint256"
        }
      ],
      "name": "revokeRoles",
      "outputs": [],
      "stateMutability": "payable",
      "type": "function"
    },
    {
      "inputs": [
        {
          "internalType": "address[]",
          "name": "signers",
          "type": "address[]"
        }
      ],
      "name": "revokeSigners",
      "outputs": [],
      "stateMutability": "nonpayable",
      "type": "function"
    },
    {
      "inputs": [
        {
          "internalType": "uint8[]",
          "name": "ordinals",
          "type": "uint8[]"
        }
      ],
      "name": "rolesFromOrdinals",
      "outputs": [
        {
          "internalType": "uint256",
          "name": "roles",
          "type": "uint256"
        }
      ],
      "stateMutability": "pure",
      "type": "function"
    },
    {
      "inputs": [
        {
          "internalType": "address",
          "name": "user",
          "type": "address"
        }
      ],
      "name": "rolesOf",
      "outputs": [
        {
          "internalType": "uint256",
          "name": "roles",
          "type": "uint256"
        }
      ],
      "stateMutability": "view",
      "type": "function"
    },
    {
      "inputs": [
        {
          "internalType": "uint256",
          "name": "tokenId",
          "type": "uint256"
        },
        {
          "internalType": "uint256",
          "name": "salePrice",
          "type": "uint256"
        }
      ],
      "name": "royaltyInfo",
      "outputs": [
        {
          "internalType": "address",
          "name": "receiver",
          "type": "address"
        },
        {
          "internalType": "uint256",
          "name": "royaltyAmount",
          "type": "uint256"
        }
      ],
      "stateMutability": "view",
      "type": "function"
    },
    {
      "inputs": [
        {
          "internalType": "address",
          "name": "from",
          "type": "address"
        },
        {
          "internalType": "address",
          "name": "to",
          "type": "address"
        },
        {
          "internalType": "uint256",
          "name": "id",
          "type": "uint256"
        }
      ],
      "name": "safeTransferFrom",
      "outputs": [],
      "stateMutability": "payable",
      "type": "function"
    },
    {
      "inputs": [
        {
          "internalType": "address",
          "name": "from",
          "type": "address"
        },
        {
          "internalType": "address",
          "name": "to",
          "type": "address"
        },
        {
          "internalType": "uint256",
          "name": "id",
          "type": "uint256"
        },
        {
          "internalType": "bytes",
          "name": "data",
          "type": "bytes"
        }
      ],
      "name": "safeTransferFrom",
      "outputs": [],
      "stateMutability": "payable",
      "type": "function"
    },
    {
      "inputs": [
        {
          "internalType": "address",
          "name": "operator",
          "type": "address"
        },
        {
          "internalType": "bool",
          "name": "isApproved",
          "type": "bool"
        }
      ],
      "name": "setApprovalForAll",
      "outputs": [],
      "stateMutability": "nonpayable",
      "type": "function"
    },
    {
      "inputs": [
        {
          "internalType": "address",
          "name": "certificateAuthority_",
          "type": "address"
        }
      ],
      "name": "setCertificateAuthority",
      "outputs": [],
      "stateMutability": "nonpayable",
      "type": "function"
    },
    {
      "inputs": [
        {
          "internalType": "string",
          "name": "defaultURI_",
          "type": "string"
        }
      ],
      "name": "setDefaultUri",
      "outputs": [],
      "stateMutability": "nonpayable",
      "type": "function"
    },
    {
      "inputs": [
        {
          "internalType": "address",
          "name": "receiver_",
          "type": "address"
        },
        {
          "internalType": "uint96",
          "name": "feeNumerator_",
          "type": "uint96"
        }
      ],
      "name": "setRoyalty",
      "outputs": [],
      "stateMutability": "nonpayable",
      "type": "function"
    },
    {
      "inputs": [
        {
          "internalType": "address",
          "name": "signer",
          "type": "address"
        }
      ],
      "name": "setUnlimitedSigner",
      "outputs": [],
      "stateMutability": "nonpayable",
      "type": "function"
    },
    {
      "inputs": [
        {
          "internalType": "uint256",
          "name": "edition",
          "type": "uint256"
        },
        {
          "internalType": "string",
          "name": "uri_",
          "type": "string"
        }
      ],
      "name": "setUri",
      "outputs": [],
      "stateMutability": "payable",
      "type": "function"
    },
    {
      "inputs": [
        {
          "internalType": "address",
          "name": "signer",
          "type": "address"
        }
      ],
      "name": "signerState",
      "outputs": [
        {
          "internalType": "int256",
          "name": "",
          "type": "int256"
        }
      ],
      "stateMutability": "view",
      "type": "function"
    },
    {
      "inputs": [
        {
          "internalType": "bytes4",
          "name": "interfaceId",
          "type": "bytes4"
        }
      ],
      "name": "supportsInterface",
      "outputs": [
        {
          "internalType": "bool",
          "name": "",
          "type": "bool"
        }
      ],
      "stateMutability": "view",
      "type": "function"
    },
    {
      "inputs": [],
      "name": "symbol",
      "outputs": [
        {
          "internalType": "string",
          "name": "",
          "type": "string"
        }
      ],
      "stateMutability": "view",
      "type": "function"
    },
    {
      "inputs": [],
      "name": "toggleGelatoRelayEnabled",
      "outputs": [],
      "stateMutability": "nonpayable",
      "type": "function"
    },
    {
      "inputs": [
        {
          "internalType": "uint256",
          "name": "tokenId",
          "type": "uint256"
        }
      ],
      "name": "tokenURI",
      "outputs": [
        {
          "internalType": "string",
          "name": "",
          "type": "string"
        }
      ],
      "stateMutability": "view",
      "type": "function"
    },
    {
      "inputs": [
        {
          "internalType": "address",
          "name": "from",
          "type": "address"
        },
        {
          "internalType": "address",
          "name": "to",
          "type": "address"
        },
        {
          "internalType": "uint256",
          "name": "id",
          "type": "uint256"
        }
      ],
      "name": "transferFrom",
      "outputs": [],
      "stateMutability": "payable",
      "type": "function"
    },
    {
      "inputs": [
        {
          "internalType": "address",
          "name": "newOwner",
          "type": "address"
        }
      ],
      "name": "transferOwnership",
      "outputs": [],
      "stateMutability": "payable",
      "type": "function"
    },
    {
      "inputs": [
        {
          "internalType": "address",
          "name": "newImplementation",
          "type": "address"
        }
      ],
      "name": "upgradeTo",
      "outputs": [],
      "stateMutability": "nonpayable",
      "type": "function"
    },
    {
      "inputs": [
        {
          "internalType": "address",
          "name": "newImplementation",
          "type": "address"
        },
        {
          "internalType": "bytes",
          "name": "data",
          "type": "bytes"
        }
      ],
      "name": "upgradeToAndCall",
      "outputs": [],
      "stateMutability": "payable",
      "type": "function"
    },
    {
      "inputs": [
        {
          "internalType": "uint256",
          "name": "edition",
          "type": "uint256"
        }
      ],
      "name": "uri",
      "outputs": [
        {
          "internalType": "string",
          "name": "",
          "type": "string"
        }
      ],
      "stateMutability": "view",
      "type": "function"
    },
    {
      "inputs": [],
      "name": "version",
      "outputs": [
        {
          "internalType": "uint256",
          "name": "",
          "type": "uint256"
        }
      ],
      "stateMutability": "pure",
      "type": "function"
    },
    {
      "inputs": [
        {
          "internalType": "uint256",
          "name": "amount",
          "type": "uint256"
        }
      ],
      "name": "withdraw",
      "outputs": [],
      "stateMutability": "nonpayable",
      "type": "function"
    },
    {
      "inputs": [
        {
          "internalType": "contract IERC20",
          "name": "token",
          "type": "address"
        },
        {
          "internalType": "uint256",
          "name": "amount",
          "type": "uint256"
        }
      ],
      "name": "withdrawERC20",
      "outputs": [],
      "stateMutability": "nonpayable",
      "type": "function"
    },
    {
      "stateMutability": "payable",
      "type": "receive"
    }
  ],
  "transactionHash": "0xe0bb9530a0af0020088e5c2f1ca5fc070a232b1d4b468bde4d1c46bf87d5c030",
  "args": [],
  "numDeployments": 2,
  "solcInputHash": "f9c84f6dd0438a20ad9a7e7f03eee217",
  "bytecode": "0x60a0604052306080523480156200001557600080fd5b5062000025565b60405180910390fd5b6200003a6200019e60201b62001f6d1760201c565b54610100900460ff1662000068576200005d6200019e60201b62001f6d1760201c565b5460ff16156200006c565b303b155b620000e05760405162461bcd60e51b815260206004820152603760248201527f455243373231415f5f496e697469616c697a61626c653a20636f6e747261637460448201527f20697320616c726561647920696e697469616c697a656400000000000000000060648201526084016200001c565b6000620000f76200019e60201b62001f6d1760201c565b54610100900460ff16159050801562000162576001620001216200019e60201b62001f6d1760201c565b60000160016101000a81548160ff0219169083151502179055506001620001526200019e60201b62001f6d1760201c565b805460ff19169115159190911790555b801562000197576000620001806200019e60201b62001f6d1760201c565b80549115156101000261ff00199092169190911790555b50620001c2565b7fee151c8401928dc223602bb187aff91b9a56c7cae5476ef1b3287b085a16c85f90565b6080516143f2620001fa600039600081816112c80152818161135e015281816114cb01528181611561015261162f01526143f26000f3fe60806040526004361061034e5760003560e01c8063514e62fc116101bb578063a1db9782116100f7578063d7533f0211610095578063f04e283e1161006f578063f04e283e1461099f578063f2fde38b146109b2578063f8f4bbc0146109c5578063fee81cf4146109da57600080fd5b8063d7533f021461092b578063e985e9c514610949578063e99814901461097f57600080fd5b8063b88d4fde116100d1578063b88d4fde146108ac578063c45a0155146108bf578063c87b56dd146108d4578063d1bd7409146108f457600080fd5b8063a1db97821461084c578063a22cb4651461086c578063a786aee91461088c57600080fd5b8063715018a611610164578063782f08ae1161013e578063782f08ae146107eb5780638da5cb5b146107fe5780638f2fc60b1461081757806395d89b411461083757600080fd5b8063715018a6146107a15780637359e41f146107a957806377ceaf55146107d657600080fd5b806354fd4d501161019557806354fd4d501461074d5780636352211e1461076157806370a082311461078157600080fd5b8063514e62fc146106f957806352d1902d1461073057806354d1f13d1461074557600080fd5b8063256929621161028a5780633659cfe61161023357806342d3ce991161020d57806342d3ce9914610671578063466a18de146106b35780634a4ee7b1146106d35780634f1ef286146106e657600080fd5b80633659cfe61461061e57806337075b041461063e57806342842e0e1461065e57600080fd5b80632de94807116102645780632de94807146105ab5780632e1a7d4d146105de578063349b4420146105fe57600080fd5b806325692962146105445780632a55205a1461054c5780632be55b9b1461058b57600080fd5b806313a661ed116102f75780631b50764d116102d15780631b50764d146104c75780631c10893f146104e75780631cd64df4146104fa57806323b872dd1461053157600080fd5b806313a661ed14610431578063183a4f6e1461045f5780631a6646d11461047257600080fd5b8063095ea7b311610328578063095ea7b3146103e95780630e89341c146103fe5780630fbee1411461041e57600080fd5b806301ffc9a71461035a57806306fdde031461038f578063081812fc146103b157600080fd5b3661035557005b600080fd5b34801561036657600080fd5b5061037a61037536600461382f565b610a0d565b60405190151581526020015b60405180910390f35b34801561039b57600080fd5b506103a4610a58565b6040516103869190613895565b3480156103bd57600080fd5b506103d16103cc3660046138c8565b610b0c565b6040516001600160a01b039091168152602001610386565b6103fc6103f73660046138f6565b610b64565b005b34801561040a57600080fd5b506103a46104193660046138c8565b610b73565b6103fc61042c366004613964565b610ca1565b34801561043d57600080fd5b5061045161044c366004613a9f565b610e18565b604051908152602001610386565b6103fc61046d3660046138c8565b610e41565b34801561047e57600080fd5b5061045161048d366004613b58565b6001600160a01b031660009081527f1f0c0848ffbdef50dbc17c19b3aa74d08d8b92b8a2dbbfbe840fa6ee068316e8602052604090205490565b3480156104d357600080fd5b506103fc6104e2366004613b58565b610e4e565b6103fc6104f53660046138f6565b610eb1565b34801561050657600080fd5b5061037a6105153660046138f6565b638b78c6d8600c90815260009290925260209091205481161490565b6103fc61053f366004613b75565b610ec3565b6103fc61100d565b34801561055857600080fd5b5061056c610567366004613bb6565b61105d565b604080516001600160a01b039093168352602083019190915201610386565b34801561059757600080fd5b506103fc6105a6366004613964565b6110d0565b3480156105b757600080fd5b506104516105c6366004613b58565b638b78c6d8600c908152600091909152602090205490565b3480156105ea57600080fd5b506103fc6105f93660046138c8565b6111b7565b34801561060a57600080fd5b506103fc610619366004613b58565b6111ec565b34801561062a57600080fd5b506103fc610639366004613b58565b6112be565b34801561064a57600080fd5b506103fc610659366004613bd8565b61142f565b6103fc61066c366004613b75565b61144b565b34801561067d57600080fd5b507f1f0c0848ffbdef50dbc17c19b3aa74d08d8b92b8a2dbbfbe840fa6ee068316e75461010090046001600160a01b03166103d1565b3480156106bf57600080fd5b506103fc6106ce366004613c0d565b611478565b6103fc6106e13660046138f6565b6114af565b6103fc6106f4366004613c4f565b6114c1565b34801561070557600080fd5b5061037a6107143660046138f6565b638b78c6d8600c90815260009290925260209091205416151590565b34801561073c57600080fd5b50610451611622565b6103fc6116e7565b34801561075957600080fd5b506001610451565b34801561076d57600080fd5b506103d161077c3660046138c8565b611723565b34801561078d57600080fd5b5061045161079c366004613b58565b611776565b6103fc6117c6565b3480156107b557600080fd5b506107c96107c43660046138c8565b6117da565b6040516103869190613cf7565b3480156107e257600080fd5b506103fc611813565b6103fc6107f9366004613d3e565b61186c565b34801561080a57600080fd5b50638b78c6d819546103d1565b34801561082357600080fd5b506103fc610832366004613d8a565b611937565b34801561084357600080fd5b506103a461194c565b34801561085857600080fd5b506103fc6108673660046138f6565b61197d565b34801561087857600080fd5b506103fc610887366004613de2565b611a0f565b34801561089857600080fd5b506103fc6108a7366004613e10565b611a65565b6103fc6108ba366004613eb9565b611cc7565b3480156108cb57600080fd5b506103d1611d1b565b3480156108e057600080fd5b506103a46108ef3660046138c8565b611d4e565b34801561090057600080fd5b507f1f0c0848ffbdef50dbc17c19b3aa74d08d8b92b8a2dbbfbe840fa6ee068316e75460ff1661037a565b34801561093757600080fd5b506040516202a3008152602001610386565b34801561095557600080fd5b5061037a610964366004613f2c565b601c52670a5a2e7a000000006008526000526030600c205490565b34801561098b57600080fd5b506103fc61099a366004613f5a565b611e8e565b6103fc6109ad366004613b58565b611ed8565b6103fc6109c0366004613b58565b611f15565b3480156109d157600080fd5b506103a4611f3c565b3480156109e657600080fd5b506104516109f5366004613b58565b63389a75e1600c908152600091909152602090205490565b6000632a55205a60e083901c9081146301ffc9a7919091141780610a525750610a52826301ffc9a760e09190911c9081146380ac58cd821417635b5e139f9091141790565b92915050565b60607f7a457599c00a46ec3b69247b2b7d56f536425166373ffe09f7937b245042a0ac6001018054610a8990613fcf565b80601f0160208091040260200160405190810160405280929190818152602001828054610ab590613fcf565b8015610b025780601f10610ad757610100808354040283529160200191610b02565b820191906000526020600020905b815481529060010190602001808311610ae557829003601f168201915b5050505050905090565b60008181527f7d8825530a5a2e7a000000000000000000000000000000000000000000000000601c52602081208201820180546001600160a01b0316610b5a5763ceea21b66000526004601cfd5b6001015492915050565b610b6f338383611f91565b5050565b60008181527f7a457599c00a46ec3b69247b2b7d56f536425166373ffe09f7937b245042a0b06020526040812080546060929190610bb090613fcf565b90501115610c755760008281527f7a457599c00a46ec3b69247b2b7d56f536425166373ffe09f7937b245042a0b0602052604090208054610bf090613fcf565b80601f0160208091040260200160405190810160405280929190818152602001828054610c1c90613fcf565b8015610c695780601f10610c3e57610100808354040283529160200191610c69565b820191906000526020600020905b815481529060010190602001808311610c4c57829003601f168201915b50505050509050919050565b7f7a457599c00a46ec3b69247b2b7d56f536425166373ffe09f7937b245042a0af8054610bf090613fcf565b6000610d18898989898080601f01602080910402602001604051908101604052809392919081815260200183838082843760009201919091525050604080516020601f8b01819004810282018101909252898152925089915088908190840183828082843760009201919091525061204792505050565b9050610d278a828b8888612191565b6001600160a01b03891660009081527f1f0c0848ffbdef50dbc17c19b3aa74d08d8b92b8a2dbbfbe840fa6ee068316e8602052604081205490811315610d99576040517f815e1d6400000000000000000000000000000000000000000000000000000000815260040160405180910390fd5b80610e00576001600160a01b038a1660008181527f1f0c0848ffbdef50dbc17c19b3aa74d08d8b92b8a2dbbfbe840fa6ee068316e8602052604080822060019055517fd11b52902456189cc3d9201056c9e5cc1da0569404bfa7b66c334e7bbaa42b549190a25b610e0b8b898961226a565b5050505050505050505050565b6000815160051b5b8015610e3b57828101516001901b90911790601f1901610e20565b50919050565b610e4b33826125eb565b50565b610e5661263a565b7f1f0c0848ffbdef50dbc17c19b3aa74d08d8b92b8a2dbbfbe840fa6ee068316e780546001600160a01b038316610100027fffffffffffffffffffffff0000000000000000000000000000000000000000ff90911617905550565b610eb961263a565b610b6f8282612655565b60008181527f7d8825530a5a2e7a0000000000000000000000000000000000000000000000003317601c52602090208101810180546001600160a01b039485169493841693811691908286148302610f365782610f285763ceea21b66000526004601cfd5b63a11481006000526004601cfd5b84610f495763ea553b346000526004601cfd5b856000528160010154925082331486331417610f77576030600c2054610f7757634b6e7f186000526004601cfd5b8215610f8557600082600101555b85851818905550601c600c81812080547fffffffffffffffffffffffffffffffffffffffffffffffffffffffffffffffff019055600084905220805460010163ffffffff8116610fdd576301336cea6000526004601cfd5b90558082847fddf252ad1be2c89b69c2b068fc378daa952ba7f163c4a11628f55a4df523b3ef600080a45b505050565b60006202a30067ffffffffffffffff164201905063389a75e1600c5233600052806020600c2055337fdbf36a107da19e49527a7176a1babf963b4b0ff8cde35ee35d6cd8f1f9ac7e1d600080a250565b600082815268aa4ec00224afccfdb76020526040812054606081901c91906127109083611091576020515490508060601c93505b606084901b18847fffffffffffffffffffffffffffffffffffffffffffffffffffffffffffffffff829004811182023d3d3e9396930204935090915050565b73abcc9b596420a9e9172fd5938620e265a0f9df9233146111385760405162461bcd60e51b815260206004820152600f60248201527f6f6e6c7947656c61746f52656c6179000000000000000000000000000000000060448201526064015b60405180910390fd5b7f1f0c0848ffbdef50dbc17c19b3aa74d08d8b92b8a2dbbfbe840fa6ee068316e75460ff16611193576040517fcd364b1700000000000000000000000000000000000000000000000000000000815260040160405180910390fd5b61119b6126a0565b6111ac898989898989898989610ca1565b505050505050505050565b6111bf61263a565b604051339082156108fc029083906000818181858888f19350505050158015610b6f573d6000803e3d6000fd5b6111f461263a565b6001600160a01b03811660009081527f1f0c0848ffbdef50dbc17c19b3aa74d08d8b92b8a2dbbfbe840fa6ee068316e8602052604090205415611263576040517f815e1d6400000000000000000000000000000000000000000000000000000000815260040160405180910390fd5b6001600160a01b031660009081527f1f0c0848ffbdef50dbc17c19b3aa74d08d8b92b8a2dbbfbe840fa6ee068316e8602052604090207f80000000000000000000000000000000000000000000000000000000000000009055565b6001600160a01b037f000000000000000000000000000000000000000000000000000000000000000016300361135c5760405162461bcd60e51b815260206004820152602c60248201527f46756e6374696f6e206d7573742062652063616c6c6564207468726f7567682060448201527f64656c656761746563616c6c0000000000000000000000000000000000000000606482015260840161112f565b7f00000000000000000000000000000000000000000000000000000000000000006001600160a01b031661138e612707565b6001600160a01b03161461140a5760405162461bcd60e51b815260206004820152602c60248201527f46756e6374696f6e206d7573742062652063616c6c6564207468726f7567682060448201527f6163746976652070726f78790000000000000000000000000000000000000000606482015260840161112f565b6114138161272f565b60408051600080825260208201909252610e4b918391906127af565b600161143a8161294f565b611445848484612982565b50505050565b611456838383610ec3565b813b156110085761100883838360405180602001604052806000815250612a63565b60026114838161294f565b7f7a457599c00a46ec3b69247b2b7d56f536425166373ffe09f7937b245042a0af611445838583614062565b6114b761263a565b610b6f82826125eb565b6001600160a01b037f000000000000000000000000000000000000000000000000000000000000000016300361155f5760405162461bcd60e51b815260206004820152602c60248201527f46756e6374696f6e206d7573742062652063616c6c6564207468726f7567682060448201527f64656c656761746563616c6c0000000000000000000000000000000000000000606482015260840161112f565b7f00000000000000000000000000000000000000000000000000000000000000006001600160a01b0316611591612707565b6001600160a01b03161461160d5760405162461bcd60e51b815260206004820152602c60248201527f46756e6374696f6e206d7573742062652063616c6c6564207468726f7567682060448201527f6163746976652070726f78790000000000000000000000000000000000000000606482015260840161112f565b6116168261272f565b610b6f828260016127af565b6000306001600160a01b037f000000000000000000000000000000000000000000000000000000000000000016146116c25760405162461bcd60e51b815260206004820152603860248201527f555550535570677261646561626c653a206d757374206e6f742062652063616c60448201527f6c6564207468726f7567682064656c656761746563616c6c0000000000000000606482015260840161112f565b507f360894a13ba1a3210667c828492db98dca3e2076cc3735a920a3ca505d382bbc90565b63389a75e1600c523360005260006020600c2055337ffa7b8eab7da67f412cc9575ed43464468f9bfbae89d1675917346ca6d8fe3c92600080a2565b60008181527f7d8825530a5a2e7a000000000000000000000000000000000000000000000000601c526020902081018101546001600160a01b0316806117715763ceea21b66000526004601cfd5b919050565b60008161178b57638f4eb6046000526004601cfd5b7f7d8825530a5a2e7a000000000000000000000000000000000000000000000000601c528160005263ffffffff601c600c2054169050919050565b6117ce61263a565b6117d86000612aed565b565b604051602081016000835b81835260051b6020169091019060010183811c806117e5575050601f198282030160051c8252604052919050565b61181b61263a565b7f1f0c0848ffbdef50dbc17c19b3aa74d08d8b92b8a2dbbfbe840fa6ee068316e780547fffffffffffffffffffffffffffffffffffffffffffffffffffffffffffffff00811660ff90911615179055565b60026118778161294f565b60008481527f7a457599c00a46ec3b69247b2b7d56f536425166373ffe09f7937b245042a0b0602052604090206118af838583614062565b50837f6bb7ff708619ba0610cba295a58592e0451dee2622938c8755667688daf3529b84846040516118e292919061415e565b60405180910390a23415611445576118f8611d1b565b6001600160a01b03166108fc349081150290604051600060405180830381858888f19350505050158015611930573d6000803e3d6000fd5b5050505050565b600461194281612b2b565b6110088383612b5e565b60607f7a457599c00a46ec3b69247b2b7d56f536425166373ffe09f7937b245042a0ac6002018054610a8990613fcf565b61198561263a565b6040517fa9059cbb000000000000000000000000000000000000000000000000000000008152336004820152602481018290526001600160a01b0383169063a9059cbb906044016020604051808303816000875af11580156119eb573d6000803e3d6000fd5b505050506040513d601f19601f82011682018060405250810190611008919061418d565b801515905081601c52670a5a2e7a0000000060085233600052806030600c2055806000528160601b60601c337f17307eab39ab6107e8899845ad3d59bd9653f200f220920489ca2b5937696c3160206000a35050565b7fee151c8401928dc223602bb187aff91b9a56c7cae5476ef1b3287b085a16c85f54610100900460ff16611abe577fee151c8401928dc223602bb187aff91b9a56c7cae5476ef1b3287b085a16c85f5460ff1615611ac2565b303b155b611b345760405162461bcd60e51b815260206004820152603760248201527f455243373231415f5f496e697469616c697a61626c653a20636f6e747261637460448201527f20697320616c726561647920696e697469616c697a6564000000000000000000606482015260840161112f565b7fee151c8401928dc223602bb187aff91b9a56c7cae5476ef1b3287b085a16c85f54610100900460ff16158015611bb1577fee151c8401928dc223602bb187aff91b9a56c7cae5476ef1b3287b085a16c85f80547fffffffffffffffffffffffffffffffffffffffffffffffffffffffffffff0000166101011790555b7f7a457599c00a46ec3b69247b2b7d56f536425166373ffe09f7937b245042a0ad611bdd888a83614062565b507f7a457599c00a46ec3b69247b2b7d56f536425166373ffe09f7937b245042a0ae611c0a868883614062565b507f7a457599c00a46ec3b69247b2b7d56f536425166373ffe09f7937b245042a0ac80547fffffffffffffffffffffffff0000000000000000000000000000000000000000166001600160a01b038416179055611c678484612bae565b611c6f612ccf565b8015611cbd577fee151c8401928dc223602bb187aff91b9a56c7cae5476ef1b3287b085a16c85f80547fffffffffffffffffffffffffffffffffffffffffffffffffffffffffffff00ff1690555b5050505050505050565b611cd2858585610ec3565b833b156119305761193085858585858080601f016020809104026020016040519081016040528093929190818152602001838380828437600092019190915250612a6392505050565b60007f7a457599c00a46ec3b69247b2b7d56f536425166373ffe09f7937b245042a0ac5b546001600160a01b0316919050565b60606000611d5f620f4240846141d9565b60008181527f7a457599c00a46ec3b69247b2b7d56f536425166373ffe09f7937b245042a0b06020526040812080549293509091611d9c90613fcf565b90501115611e625760008181527f7a457599c00a46ec3b69247b2b7d56f536425166373ffe09f7937b245042a0b0602052604090208054611ddc90613fcf565b80601f0160208091040260200160405190810160405280929190818152602001828054611e0890613fcf565b8015611e555780601f10611e2a57610100808354040283529160200191611e55565b820191906000526020600020905b815481529060010190602001808311611e3857829003601f168201915b5050505050915050919050565b7f7a457599c00a46ec3b69247b2b7d56f536425166373ffe09f7937b245042a0af8054611ddc90613fcf565b611e9661263a565b60005b8181101561100857611ed0838383818110611eb657611eb6614214565b9050602002016020810190611ecb9190613b58565b612cee565b600101611e99565b611ee061263a565b63389a75e1600c52806000526020600c208054421115611f0857636f5e88186000526004601cfd5b60009055610e4b81612aed565b611f1d61263a565b8060601b611f3357637448fbae6000526004601cfd5b610e4b81612aed565b60607f7a457599c00a46ec3b69247b2b7d56f536425166373ffe09f7937b245042a0ac6003018054610a8990613fcf565b7fee151c8401928dc223602bb187aff91b9a56c7cae5476ef1b3287b085a16c85f90565b60001960601c8281169250838116935081600052837f7d8825530a5a2e7a00000000000000000000000000000000000000000000000017601c5260206000208201820180548216915081611fed5763ceea21b66000526004601cfd5b81851485151761201357816000526030600c205461201357634b6e7f186000526004601cfd5b6001018390558183827f8c5be1e5ebec7d5bd14f71427d1e84f3dd0314c0f7b2291e5b200ac8c7c3b925600080a450505050565b6000806120c68686304688604051602001612066959493929190614243565b60408051601f1981840301815282825280516020918201207f19457468657265756d205369676e6564204d6573736167653a0a33320000000084830152603c8085019190915282518085039091018152605c909301909152815191012090565b9050428567ffffffffffffffff16101561210c576040517f1d39f94600000000000000000000000000000000000000000000000000000000815260040160405180910390fd5b7f1f0c0848ffbdef50dbc17c19b3aa74d08d8b92b8a2dbbfbe840fa6ee068316e75461010090046001600160a01b03166121468285612d52565b6001600160a01b031614612186576040517f1d39f94600000000000000000000000000000000000000000000000000000000815260040160405180910390fd5b90505b949350505050565b6040517fffffffffffffffffffffffffffffffffffffffff000000000000000000000000606087901b166020820152603481018590526000906121d690605401612066565b9050836001600160a01b03166122228285858080601f016020809104026020016040519081016040528093929190818152602001838380828437600092019190915250612d5292505050565b6001600160a01b031614612262576040517f8baa579f00000000000000000000000000000000000000000000000000000000815260040160405180910390fd5b505050505050565b60008061227983850185613bb6565b91509150612288858383612982565b6000612292611d1b565b905060008073abcc9b596420a9e9172fd5938620e265a0f9df9233036124e257367fffffffffffffffffffffffffffffffffffffffffffffffffffffffffffffffcc013560601c91506001600160a01b0383161561246f576040517f488772990000000000000000000000000000000000000000000000000000000081526001600160a01b038381166004830152841690634887729990602401602060405180830381865afa158015612349573d6000803e3d6000fd5b505050506040513d601f19601f8201168201806040525081019061236d91906142cf565b9050801561246f577fffffffffffffffffffffffff11111111111111111111111111111111111111126001600160a01b038316016123e1576040516001600160a01b0384169082156108fc029083906000818181858888f193505050501580156123db573d6000803e3d6000fd5b5061246f565b6040517fa9059cbb0000000000000000000000000000000000000000000000000000000081526001600160a01b0384811660048301526024820183905283169063a9059cbb906044016020604051808303816000875af1158015612449573d6000803e3d6000fd5b505050506040513d601f19601f8201168201806040525081019061246d919061418d565b505b7f4766921f5c59646d22d7d266a29164c8e9623684d8dfdbd931731dfdca025238888686856124a3601f19360135876142e8565b604080516001600160a01b03968716815260208101959095528401929092529092166060820152608081019190915260a00160405180910390a1611cbd565b826001600160a01b0316634412ebcc6040518163ffffffff1660e01b8152600401602060405180830381865afa158015612520573d6000803e3d6000fd5b505050506040513d601f19601f8201168201806040525081019061254491906142cf565b341461254f57600080fd5b5060405134906001600160a01b0384169082156108fc029083906000818181858888f19350505050158015612588573d6000803e3d6000fd5b50604080516001600160a01b038a1681526020810187905290810185905260006060820181905260808201527f4766921f5c59646d22d7d266a29164c8e9623684d8dfdbd931731dfdca0252389060a00160405180910390a15050505050505050565b638b78c6d8600c52816000526020600c20805482811681189250508181555080600c5160601c7f715ad5ce61fc9595c7b415289d59cf203f23a94fa06f04af7e489a0a76e1fe26600080a35050565b638b78c6d8195433146117d8576382b429006000526004601cfd5b638b78c6d8600c52816000526020600c208181541791508181555080600c5160601c7f715ad5ce61fc9595c7b415289d59cf203f23a94fa06f04af7e489a0a76e1fe26600080a35050565b6117d8367fffffffffffffffffffffffffffffffffffffffffffffffffffffffffffffffb8013560601c36601f190135367fffffffffffffffffffffffffffffffffffffffffffffffffffffffffffffffcc013560601c6001600160a01b03169190612d76565b60007f360894a13ba1a3210667c828492db98dca3e2076cc3735a920a3ca505d382bbc611d3f565b61273761263a565b61273f611d1b565b6040517f4c3b38d80000000000000000000000000000000000000000000000000000000081526001600160a01b0383811660048301529190911690634c3b38d89060240160006040518083038186803b15801561279b57600080fd5b505afa158015611930573d6000803e3d6000fd5b7f4910fdfa16fed3260ed0e7147f7cc6da11a60208b5b9406d12a635614ffd91435460ff16156127e25761100883612dc5565b826001600160a01b03166352d1902d6040518163ffffffff1660e01b8152600401602060405180830381865afa92505050801561283c575060408051601f3d908101601f19168201909252612839918101906142cf565b60015b6128ae5760405162461bcd60e51b815260206004820152602e60248201527f45524331393637557067726164653a206e657720696d706c656d656e7461746960448201527f6f6e206973206e6f742055555053000000000000000000000000000000000000606482015260840161112f565b7f360894a13ba1a3210667c828492db98dca3e2076cc3735a920a3ca505d382bbc81146129435760405162461bcd60e51b815260206004820152602960248201527f45524331393637557067726164653a20756e737570706f727465642070726f7860448201527f6961626c65555549440000000000000000000000000000000000000000000000606482015260840161112f565b50611008838383612e9b565b638b78c6d8600c5233600052806020600c205416610e4b57638b78c6d819543314610e4b576382b429006000526004601cfd5b60008281527f7a457599c00a46ec3b69247b2b7d56f536425166373ffe09f7937b245042a0b16020526040902054620f42406129be83836142e8565b11156129c957600080fd5b6000816129d985620f42406142fb565b6129e391906142e8565b905060005b83811015612a195760006129fc82846142e8565b9050612a088782612ec0565b50612a1281614312565b90506129e8565b5060008481527f7a457599c00a46ec3b69247b2b7d56f536425166373ffe09f7937b245042a0b1602052604081208054859290612a579084906142e8565b90915550505050505050565b60405163150b7a028082523360208301528560601b60601c604083015283606083015260808083015282518060a08401528015612aaa578060c08401826020870160045afa505b60208360a48301601c860160008a5af1612ad3573d15612ace573d6000803e3d6000fd5b600083525b508060e01b8251146122625763d1a57ed66000526004601cfd5b638b78c6d81980546001600160a01b039092169182907f8be0079c531659141344cd1fd0a4f28419497f9722a3daafe3b4186f6b6457e0600080a355565b638b78c6d819543314610e4b57638b78c6d8600c5233600052806020600c205416610e4b576382b429006000526004601cfd5b6bffffffffffffffffffffffff1661271080821115612b855763350a88b36000526004601cfd5b8260601b80612b9c5763b4457eaa6000526004601cfd5b90911768aa4ec00224afccfdb7555050565b7fee151c8401928dc223602bb187aff91b9a56c7cae5476ef1b3287b085a16c85f54610100900460ff16612c4a5760405162461bcd60e51b815260206004820152603460248201527f455243373231415f5f496e697469616c697a61626c653a20636f6e747261637460448201527f206973206e6f7420696e697469616c697a696e67000000000000000000000000606482015260840161112f565b7f1f0c0848ffbdef50dbc17c19b3aa74d08d8b92b8a2dbbfbe840fa6ee068316e780547fffffffffffffffffffffff000000000000000000000000000000000000000000168315157fffffffffffffffffffffff0000000000000000000000000000000000000000ff16176101006001600160a01b03841602179055610b6f33612f83565b6117d8733cc6cdda760b79bafa08df41ecfa224f810dceb66001612fbf565b6001600160a01b03811660008181527f1f0c0848ffbdef50dbc17c19b3aa74d08d8b92b8a2dbbfbe840fa6ee068316e8602052604080822060029055517f99a705a3c2c3339d0051f56b36a60fef91e30142c93353002617999f27aec4af9190a250565b6000806000612d618585613034565b91509150612d6e81613079565b509392505050565b80600003612d8357505050565b6001600160a01b03831673eeeeeeeeeeeeeeeeeeeeeeeeeeeeeeeeeeeeeeee14612dbb576110086001600160a01b03841683836131de565b611008828261325e565b6001600160a01b0381163b612e425760405162461bcd60e51b815260206004820152602d60248201527f455243313936373a206e657720696d706c656d656e746174696f6e206973206e60448201527f6f74206120636f6e747261637400000000000000000000000000000000000000606482015260840161112f565b7f360894a13ba1a3210667c828492db98dca3e2076cc3735a920a3ca505d382bbc80547fffffffffffffffffffffffff0000000000000000000000000000000000000000166001600160a01b0392909216919091179055565b612ea483613377565b600082511180612eb15750805b156110085761144583836133b7565b6001600160a01b039091169081612edf5763ea553b346000526004601cfd5b806000527f7d8825530a5a2e7a000000000000000000000000000000000000000000000000601c5260206000208101810180548060601b15612f295763c991cbb16000526004601cfd5b831790556000829052601c600c20805460010163ffffffff8116612f55576301336cea6000526004601cfd5b9055808260007fddf252ad1be2c89b69c2b068fc378daa952ba7f163c4a11628f55a4df523b3ef8180a45050565b6001600160a01b0316638b78c6d8198190558060007f8be0079c531659141344cd1fd0a4f28419497f9722a3daafe3b4186f6b6457e08180a350565b6001600160a01b0390911690637d3e3dbe81612fec5782612fe55750634420e486612fec565b5063a0af29035b8060e01b60005230600452826024526004600060446000806daaeb6d7670e522a718067333cd4e5af161302a578060005160e01c0361302a57600080fd5b5060006024525050565b600080825160410361306a5760208301516040840151606085015160001a61305e878285856134c2565b94509450505050613072565b506000905060025b9250929050565b600081600481111561308d5761308d61434a565b036130955750565b60018160048111156130a9576130a961434a565b036130f65760405162461bcd60e51b815260206004820152601860248201527f45434453413a20696e76616c6964207369676e61747572650000000000000000604482015260640161112f565b600281600481111561310a5761310a61434a565b036131575760405162461bcd60e51b815260206004820152601f60248201527f45434453413a20696e76616c6964207369676e6174757265206c656e67746800604482015260640161112f565b600381600481111561316b5761316b61434a565b03610e4b5760405162461bcd60e51b815260206004820152602260248201527f45434453413a20696e76616c6964207369676e6174757265202773272076616c60448201527f7565000000000000000000000000000000000000000000000000000000000000606482015260840161112f565b604080516001600160a01b038416602482015260448082018490528251808303909101815260649091019091526020810180517bffffffffffffffffffffffffffffffffffffffffffffffffffffffff167fa9059cbb00000000000000000000000000000000000000000000000000000000179052611008908490613586565b804710156132ae5760405162461bcd60e51b815260206004820152601d60248201527f416464726573733a20696e73756666696369656e742062616c616e6365000000604482015260640161112f565b6000826001600160a01b03168260405160006040518083038185875af1925050503d80600081146132fb576040519150601f19603f3d011682016040523d82523d6000602084013e613300565b606091505b50509050806110085760405162461bcd60e51b815260206004820152603a60248201527f416464726573733a20756e61626c6520746f2073656e642076616c75652c207260448201527f6563697069656e74206d61792068617665207265766572746564000000000000606482015260840161112f565b61338081612dc5565b6040516001600160a01b038216907fbc7cd75a20ee27fd9adebab32041f755214dbc6bffa90cc0225b39da2e5c2d3b90600090a250565b60606001600160a01b0383163b6134365760405162461bcd60e51b815260206004820152602660248201527f416464726573733a2064656c65676174652063616c6c20746f206e6f6e2d636f60448201527f6e74726163740000000000000000000000000000000000000000000000000000606482015260840161112f565b600080846001600160a01b0316846040516134519190614379565b600060405180830381855af49150503d806000811461348c576040519150601f19603f3d011682016040523d82523d6000602084013e613491565b606091505b50915091506134b982826040518060600160405280602781526020016143966027913961366b565b95945050505050565b6000807f7fffffffffffffffffffffffffffffff5d576e7357a4501ddfe92f46681b20a08311156134f9575060009050600361357d565b6040805160008082526020820180845289905260ff881692820192909252606081018690526080810185905260019060a0016020604051602081039080840390855afa15801561354d573d6000803e3d6000fd5b5050604051601f1901519150506001600160a01b0381166135765760006001925092505061357d565b9150600090505b94509492505050565b60006135db826040518060400160405280602081526020017f5361666545524332303a206c6f772d6c6576656c2063616c6c206661696c6564815250856001600160a01b031661368b9092919063ffffffff16565b80519091501561100857808060200190518101906135f9919061418d565b6110085760405162461bcd60e51b815260206004820152602a60248201527f5361666545524332303a204552433230206f7065726174696f6e20646964206e60448201527f6f74207375636365656400000000000000000000000000000000000000000000606482015260840161112f565b6060831561367a575081613684565b613684838361369a565b9392505050565b606061218984846000856136c4565b8151156136aa5781518083602001fd5b8060405162461bcd60e51b815260040161112f9190613895565b60608247101561373c5760405162461bcd60e51b815260206004820152602660248201527f416464726573733a20696e73756666696369656e742062616c616e636520666f60448201527f722063616c6c0000000000000000000000000000000000000000000000000000606482015260840161112f565b600080866001600160a01b031685876040516137589190614379565b60006040518083038185875af1925050503d8060008114613795576040519150601f19603f3d011682016040523d82523d6000602084013e61379a565b606091505b50915091506137ab878383876137b6565b979650505050505050565b6060831561382557825160000361381e576001600160a01b0385163b61381e5760405162461bcd60e51b815260206004820152601d60248201527f416464726573733a2063616c6c20746f206e6f6e2d636f6e7472616374000000604482015260640161112f565b5081612189565b612189838361369a565b60006020828403121561384157600080fd5b81357fffffffff000000000000000000000000000000000000000000000000000000008116811461368457600080fd5b60005b8381101561388c578181015183820152602001613874565b50506000910152565b60208152600082518060208401526138b4816040850160208701613871565b601f01601f19169190910160400192915050565b6000602082840312156138da57600080fd5b5035919050565b6001600160a01b0381168114610e4b57600080fd5b6000806040838503121561390957600080fd5b8235613914816138e1565b946020939093013593505050565b60008083601f84011261393457600080fd5b50813567ffffffffffffffff81111561394c57600080fd5b60208301915083602082850101111561307257600080fd5b600080600080600080600080600060c08a8c03121561398257600080fd5b893561398d816138e1565b985060208a013561399d816138e1565b975060408a013567ffffffffffffffff80821682146139bb57600080fd5b90975060608b013590808211156139d157600080fd5b6139dd8d838e01613922565b909850965060808c01359150808211156139f657600080fd5b613a028d838e01613922565b909650945060a08c0135915080821115613a1b57600080fd5b50613a288c828d01613922565b915080935050809150509295985092959850929598565b7f4e487b7100000000000000000000000000000000000000000000000000000000600052604160045260246000fd5b604051601f8201601f1916810167ffffffffffffffff81118282101715613a9757613a97613a3f565b604052919050565b60006020808385031215613ab257600080fd5b823567ffffffffffffffff80821115613aca57600080fd5b818501915085601f830112613ade57600080fd5b813581811115613af057613af0613a3f565b8060051b9150613b01848301613a6e565b8181529183018401918481019088841115613b1b57600080fd5b938501935b83851015613b4c578435925060ff83168314613b3c5760008081fd5b8282529385019390850190613b20565b98975050505050505050565b600060208284031215613b6a57600080fd5b8135613684816138e1565b600080600060608486031215613b8a57600080fd5b8335613b95816138e1565b92506020840135613ba5816138e1565b929592945050506040919091013590565b60008060408385031215613bc957600080fd5b50508035926020909101359150565b600080600060608486031215613bed57600080fd5b8335613bf8816138e1565b95602085013595506040909401359392505050565b60008060208385031215613c2057600080fd5b823567ffffffffffffffff811115613c3757600080fd5b613c4385828601613922565b90969095509350505050565b60008060408385031215613c6257600080fd5b8235613c6d816138e1565b915060208381013567ffffffffffffffff80821115613c8b57600080fd5b818601915086601f830112613c9f57600080fd5b813581811115613cb157613cb1613a3f565b613cc384601f19601f84011601613a6e565b91508082528784828501011115613cd957600080fd5b80848401858401376000848284010152508093505050509250929050565b6020808252825182820181905260009190848201906040850190845b81811015613d3257835160ff1683529284019291840191600101613d13565b50909695505050505050565b600080600060408486031215613d5357600080fd5b83359250602084013567ffffffffffffffff811115613d7157600080fd5b613d7d86828701613922565b9497909650939450505050565b60008060408385031215613d9d57600080fd5b8235613da8816138e1565b915060208301356bffffffffffffffffffffffff81168114613dc957600080fd5b809150509250929050565b8015158114610e4b57600080fd5b60008060408385031215613df557600080fd5b8235613e00816138e1565b91506020830135613dc981613dd4565b600080600080600080600060a0888a031215613e2b57600080fd5b873567ffffffffffffffff80821115613e4357600080fd5b613e4f8b838c01613922565b909950975060208a0135915080821115613e6857600080fd5b50613e758a828b01613922565b9096509450506040880135613e8981613dd4565b92506060880135613e99816138e1565b91506080880135613ea9816138e1565b8091505092959891949750929550565b600080600080600060808688031215613ed157600080fd5b8535613edc816138e1565b94506020860135613eec816138e1565b935060408601359250606086013567ffffffffffffffff811115613f0f57600080fd5b613f1b88828901613922565b969995985093965092949392505050565b60008060408385031215613f3f57600080fd5b8235613f4a816138e1565b91506020830135613dc9816138e1565b60008060208385031215613f6d57600080fd5b823567ffffffffffffffff80821115613f8557600080fd5b818501915085601f830112613f9957600080fd5b813581811115613fa857600080fd5b8660208260051b8501011115613fbd57600080fd5b60209290920196919550909350505050565b600181811c90821680613fe357607f821691505b602082108103610e3b577f4e487b7100000000000000000000000000000000000000000000000000000000600052602260045260246000fd5b601f82111561100857600081815260208120601f850160051c810160208610156140435750805b601f850160051c820191505b818110156122625782815560010161404f565b67ffffffffffffffff83111561407a5761407a613a3f565b61408e836140888354613fcf565b8361401c565b6000601f8411600181146140e057600085156140aa5750838201355b7fffffffffffffffffffffffffffffffffffffffffffffffffffffffffffffffff600387901b1c1916600186901b178355611930565b600083815260209020601f19861690835b8281101561411157868501358255602094850194600190920191016140f1565b508682101561414c577fffffffffffffffffffffffffffffffffffffffffffffffffffffffffffffffff60f88860031b161c19848701351681555b505060018560011b0183555050505050565b60208152816020820152818360408301376000818301604090810191909152601f909201601f19160101919050565b60006020828403121561419f57600080fd5b815161368481613dd4565b7f4e487b7100000000000000000000000000000000000000000000000000000000600052601160045260246000fd5b60008261420f577f4e487b7100000000000000000000000000000000000000000000000000000000600052601260045260246000fd5b500490565b7f4e487b7100000000000000000000000000000000000000000000000000000000600052603260045260246000fd5b60007fffffffffffffffffffffffffffffffffffffffff000000000000000000000000808860601b1683527fffffffffffffffff0000000000000000000000000000000000000000000000008760c01b166014840152808660601b16601c8401525083603083015282516142be816050850160208701613871565b919091016050019695505050505050565b6000602082840312156142e157600080fd5b5051919050565b80820180821115610a5257610a526141aa565b8082028115828204841417610a5257610a526141aa565b60007fffffffffffffffffffffffffffffffffffffffffffffffffffffffffffffffff8203614343576143436141aa565b5060010190565b7f4e487b7100000000000000000000000000000000000000000000000000000000600052602160045260246000fd5b6000825161438b818460208701613871565b919091019291505056fe416464726573733a206c6f772d6c6576656c2064656c65676174652063616c6c206661696c6564a264697066735822122025c341a6f523c23f2bc22b9de198674eaaab839eba05a9a16a3bb7b2cf06307664736f6c63430008110033",
  "devdoc": {
    "errors": {
      "AccountBalanceOverflow()": [
        {
          "details": "The recipient's balance has overflowed."
        }
      ],
      "BalanceQueryForZeroAddress()": [
        {
          "details": "Cannot query the balance for the zero address."
        }
      ],
      "NewOwnerIsZeroAddress()": [
        {
          "details": "The `newOwner` cannot be the zero address."
        }
      ],
      "NoHandoverRequest()": [
        {
          "details": "The `pendingOwner` does not have a valid handover request."
        }
      ],
      "NotOwnerNorApproved()": [
        {
          "details": "Only the token owner or an approved account can manage the token."
        }
      ],
      "RoyaltyOverflow()": [
        {
          "details": "The royalty fee numerator exceeds the fee denominator."
        }
      ],
      "RoyaltyReceiverIsZeroAddress()": [
        {
          "details": "The royalty receiver cannot be the zero address."
        }
      ],
      "TokenAlreadyExists()": [
        {
          "details": "The token already exists."
        }
      ],
      "TokenDoesNotExist()": [
        {
          "details": "The token does not exist."
        }
      ],
      "TransferFromIncorrectOwner()": [
        {
          "details": "The token must be owned by `from`."
        }
      ],
      "TransferToNonERC721ReceiverImplementer()": [
        {
          "details": "Cannot safely transfer to a contract that does not implement the ERC721Receiver interface."
        }
      ],
      "TransferToZeroAddress()": [
        {
          "details": "Cannot mint or transfer to the zero address."
        }
      ],
      "Unauthorized()": [
        {
          "details": "The caller is not authorized to call the function."
        }
      ]
    },
    "kind": "dev",
    "methods": {
      "approve(address,uint256)": {
        "details": "Sets `account` as the approved account to manage token `id`. Requirements: - Token `id` must exist. - The caller must be the owner of the token,   or an approved operator for the token owner. Emits a {Approval} event."
      },
      "balanceOf(address)": {
        "details": "Returns the number of tokens owned by `owner`. Requirements: - `owner` must not be the zero address."
      },
      "cancelOwnershipHandover()": {
        "details": "Cancels the two-step ownership handover to the caller, if any."
      },
      "completeOwnershipHandover(address)": {
        "details": "Allows the owner to complete the two-step ownership handover to `pendingOwner`. Reverts if there is no existing ownership handover requested by `pendingOwner`."
      },
      "getApproved(uint256)": {
        "details": "Returns the account approved to managed token `id`. Requirements: - Token `id` must exist."
      },
      "grantRoles(address,uint256)": {
        "details": "Allows the owner to grant `user` `roles`. If the `user` already has a role, then it will be an no-op for the role."
      },
      "hasAllRoles(address,uint256)": {
        "details": "Returns whether `user` has all of `roles`."
      },
      "hasAnyRole(address,uint256)": {
        "details": "Returns whether `user` has any of `roles`."
      },
      "isApprovedForAll(address,address)": {
        "details": "Returns whether `operator` is approved to manage the tokens of `owner`."
      },
      "name()": {
        "details": "Returns the token collection name."
      },
      "ordinalsFromRoles(uint256)": {
        "details": "Convenience function to return an array of `ordinals` from the `roles` bitmap. This is meant for frontends like Etherscan, and is therefore not fully optimized. Not recommended to be called on-chain."
      },
      "owner()": {
        "details": "Returns the owner of the contract."
      },
      "ownerOf(uint256)": {
        "details": "Returns the owner of token `id`. Requirements: - Token `id` must exist."
      },
      "ownershipHandoverExpiresAt(address)": {
        "details": "Returns the expiry timestamp for the two-step ownership handover to `pendingOwner`."
      },
      "ownershipHandoverValidFor()": {
        "details": "Returns how long a two-step ownership handover is valid for in seconds."
      },
      "proxiableUUID()": {
        "details": "Implementation of the ERC1822 {proxiableUUID} function. This returns the storage slot used by the implementation. It is used to validate the implementation's compatibility when performing an upgrade. IMPORTANT: A proxy pointing at a proxiable contract should not be considered proxiable itself, because this risks bricking a proxy that upgrades to it, by delegating to itself until out of gas. Thus it is critical that this function revert if invoked through a proxy. This is guaranteed by the `notDelegated` modifier."
      },
      "renounceOwnership()": {
        "details": "Allows the owner to renounce their ownership."
      },
      "renounceRoles(uint256)": {
        "details": "Allow the caller to remove their own roles. If the caller does not have a role, then it will be an no-op for the role."
      },
      "requestOwnershipHandover()": {
        "details": "Request a two-step ownership handover to the caller. The request will be automatically expire in 48 hours (172800 seconds) by default."
      },
      "revokeRoles(address,uint256)": {
        "details": "Allows the owner to remove `user` `roles`. If the `user` does not have a role, then it will be an no-op for the role."
      },
      "rolesFromOrdinals(uint8[])": {
        "details": "Convenience function to return a `roles` bitmap from an array of `ordinals`. This is meant for frontends like Etherscan, and is therefore not fully optimized. Not recommended to be called on-chain."
      },
      "rolesOf(address)": {
        "details": "Returns the roles of `user`."
      },
      "royaltyInfo(uint256,uint256)": {
        "details": "Returns the `receiver` and `royaltyAmount` for `tokenId` sold at `salePrice`."
      },
      "safeTransferFrom(address,address,uint256)": {
        "details": "Equivalent to `safeTransferFrom(from, to, id, \"\")`."
      },
      "safeTransferFrom(address,address,uint256,bytes)": {
        "details": "Transfers token `id` from `from` to `to`. Requirements: - Token `id` must exist. - `from` must be the owner of the token. - `to` cannot be the zero address. - The caller must be the owner of the token, or be approved to manage the token. - If `to` refers to a smart contract, it must implement   {IERC721Receiver-onERC721Received}, which is called upon a safe transfer. Emits a {Transfer} event."
      },
      "setApprovalForAll(address,bool)": {
        "details": "Sets whether `operator` is approved to manage the tokens of the caller. Emits a {ApprovalForAll} event."
      },
      "symbol()": {
        "details": "Returns the token collection symbol."
      },
      "transferFrom(address,address,uint256)": {
        "details": "Transfers token `id` from `from` to `to`. Requirements: - Token `id` must exist. - `from` must be the owner of the token. - `to` cannot be the zero address. - The caller must be the owner of the token, or be approved to manage the token. Emits a {Transfer} event."
      },
      "transferOwnership(address)": {
        "details": "Allows the owner to transfer the ownership to `newOwner`."
      },
      "upgradeTo(address)": {
        "details": "Upgrade the implementation of the proxy to `newImplementation`. Calls {_authorizeUpgrade}. Emits an {Upgraded} event."
      },
      "upgradeToAndCall(address,bytes)": {
        "details": "Upgrade the implementation of the proxy to `newImplementation`, and subsequently execute the function call encoded in `data`. Calls {_authorizeUpgrade}. Emits an {Upgraded} event."
      }
    },
    "version": 1
  },
  "userdoc": {
    "kind": "user",
    "methods": {},
    "version": 1
  },
  "storageLayout": {
    "storage": [
      {
        "astId": 683,
        "contract": "contracts/LinkForge721Edition.sol:LinkForge721Edition",
        "label": "_initialized",
        "offset": 0,
        "slot": "0",
        "type": "t_uint8"
      },
      {
        "astId": 686,
        "contract": "contracts/LinkForge721Edition.sol:LinkForge721Edition",
        "label": "_initializing",
        "offset": 1,
        "slot": "0",
        "type": "t_bool"
      },
      {
        "astId": 665,
        "contract": "contracts/LinkForge721Edition.sol:LinkForge721Edition",
        "label": "__gap",
        "offset": 0,
        "slot": "1",
        "type": "t_array(t_uint256)50_storage"
      },
      {
        "astId": 980,
        "contract": "contracts/LinkForge721Edition.sol:LinkForge721Edition",
        "label": "__gap",
        "offset": 0,
        "slot": "51",
        "type": "t_array(t_uint256)50_storage"
      }
    ],
    "types": {
      "t_array(t_uint256)50_storage": {
        "base": "t_uint256",
        "encoding": "inplace",
        "label": "uint256[50]",
        "numberOfBytes": "1600"
      },
      "t_bool": {
        "encoding": "inplace",
        "label": "bool",
        "numberOfBytes": "1"
      },
      "t_uint256": {
        "encoding": "inplace",
        "label": "uint256",
        "numberOfBytes": "32"
      },
      "t_uint8": {
        "encoding": "inplace",
        "label": "uint8",
        "numberOfBytes": "1"
      }
    }
  }
}