{
  "address": "0x428842d6372889ec0ecEF3aa472B04183497047b",
  "abi": [
    {
      "inputs": [],
      "name": "GelatoRelayNotEnabled",
      "type": "error"
    },
    {
      "inputs": [],
      "name": "InvalidCertificate",
      "type": "error"
    },
    {
      "inputs": [],
      "name": "InvalidSignature",
      "type": "error"
    },
    {
      "inputs": [],
      "name": "UsedSigner",
      "type": "error"
    },
    {
      "inputs": [],
      "name": "ZeroAddress",
      "type": "error"
    },
    {
      "anonymous": false,
      "inputs": [
        {
          "indexed": true,
          "internalType": "address",
          "name": "account",
          "type": "address"
        },
        {
          "indexed": true,
          "internalType": "address",
          "name": "operator",
          "type": "address"
        },
        {
          "indexed": false,
          "internalType": "bool",
          "name": "approved",
          "type": "bool"
        }
      ],
      "name": "ApprovalForAll",
      "type": "event"
    },
    {
      "anonymous": false,
      "inputs": [
        {
          "indexed": false,
          "internalType": "uint8",
          "name": "version",
          "type": "uint8"
        }
      ],
      "name": "Initialized",
      "type": "event"
    },
    {
      "anonymous": false,
      "inputs": [
        {
          "indexed": true,
          "internalType": "address",
          "name": "previousOwner",
          "type": "address"
        },
        {
          "indexed": true,
          "internalType": "address",
          "name": "newOwner",
          "type": "address"
        }
      ],
      "name": "OwnershipTransferred",
      "type": "event"
    },
    {
      "anonymous": false,
      "inputs": [
        {
          "indexed": true,
          "internalType": "address",
          "name": "operator",
          "type": "address"
        },
        {
          "indexed": true,
          "internalType": "address",
          "name": "from",
          "type": "address"
        },
        {
          "indexed": true,
          "internalType": "address",
          "name": "to",
          "type": "address"
        },
        {
          "indexed": false,
          "internalType": "uint256[]",
          "name": "ids",
          "type": "uint256[]"
        },
        {
          "indexed": false,
          "internalType": "uint256[]",
          "name": "values",
          "type": "uint256[]"
        }
      ],
      "name": "TransferBatch",
      "type": "event"
    },
    {
      "anonymous": false,
      "inputs": [
        {
          "indexed": true,
          "internalType": "address",
          "name": "operator",
          "type": "address"
        },
        {
          "indexed": true,
          "internalType": "address",
          "name": "from",
          "type": "address"
        },
        {
          "indexed": true,
          "internalType": "address",
          "name": "to",
          "type": "address"
        },
        {
          "indexed": false,
          "internalType": "uint256",
          "name": "id",
          "type": "uint256"
        },
        {
          "indexed": false,
          "internalType": "uint256",
          "name": "value",
          "type": "uint256"
        }
      ],
      "name": "TransferSingle",
      "type": "event"
    },
    {
      "anonymous": false,
      "inputs": [
        {
          "indexed": false,
          "internalType": "string",
          "name": "value",
          "type": "string"
        },
        {
          "indexed": true,
          "internalType": "uint256",
          "name": "id",
          "type": "uint256"
        }
      ],
      "name": "URI",
      "type": "event"
    },
    {
      "inputs": [
        {
          "internalType": "address",
          "name": "account",
          "type": "address"
        },
        {
          "internalType": "uint256",
          "name": "id",
          "type": "uint256"
        }
      ],
      "name": "balanceOf",
      "outputs": [
        {
          "internalType": "uint256",
          "name": "",
          "type": "uint256"
        }
      ],
      "stateMutability": "view",
      "type": "function"
    },
    {
      "inputs": [
        {
          "internalType": "address[]",
          "name": "accounts",
          "type": "address[]"
        },
        {
          "internalType": "uint256[]",
          "name": "ids",
          "type": "uint256[]"
        }
      ],
      "name": "balanceOfBatch",
      "outputs": [
        {
          "internalType": "uint256[]",
          "name": "",
          "type": "uint256[]"
        }
      ],
      "stateMutability": "view",
      "type": "function"
    },
    {
      "inputs": [
        {
          "internalType": "address",
          "name": "claimant",
          "type": "address"
        },
        {
          "internalType": "address",
          "name": "signer",
          "type": "address"
        },
        {
          "internalType": "uint64",
          "name": "deadline",
          "type": "uint64"
        },
        {
          "internalType": "bytes",
          "name": "data",
          "type": "bytes"
        },
        {
          "internalType": "bytes",
          "name": "signature",
          "type": "bytes"
        },
        {
          "internalType": "bytes",
          "name": "certificate",
          "type": "bytes"
        }
      ],
      "name": "claim",
      "outputs": [],
      "stateMutability": "nonpayable",
      "type": "function"
    },
    {
      "inputs": [
        {
          "internalType": "address",
          "name": "claimant",
          "type": "address"
        },
        {
          "internalType": "address",
          "name": "signer",
          "type": "address"
        },
        {
          "internalType": "uint64",
          "name": "deadline",
          "type": "uint64"
        },
        {
          "internalType": "bytes",
          "name": "data",
          "type": "bytes"
        },
        {
          "internalType": "bytes",
          "name": "signature",
          "type": "bytes"
        },
        {
          "internalType": "bytes",
          "name": "certificate",
          "type": "bytes"
        }
      ],
      "name": "claimThroughRelay",
      "outputs": [],
      "stateMutability": "nonpayable",
      "type": "function"
    },
    {
      "inputs": [],
      "name": "factory",
      "outputs": [
        {
          "internalType": "address",
          "name": "",
          "type": "address"
        }
      ],
      "stateMutability": "view",
      "type": "function"
    },
    {
      "inputs": [],
      "name": "gelatoRelayEnabled",
      "outputs": [
        {
          "internalType": "bool",
          "name": "",
          "type": "bool"
        }
      ],
      "stateMutability": "view",
      "type": "function"
    },
    {
      "inputs": [],
      "name": "getCertificateAuthority",
      "outputs": [
        {
          "internalType": "address",
          "name": "",
          "type": "address"
        }
      ],
      "stateMutability": "view",
      "type": "function"
    },
    {
      "inputs": [
        {
          "internalType": "string",
          "name": "name_",
          "type": "string"
        },
        {
          "internalType": "string",
          "name": "symbol_",
          "type": "string"
        },
        {
          "internalType": "bool",
          "name": "gelatoRelayEnabled_",
          "type": "bool"
        },
        {
          "internalType": "address",
          "name": "certificateAuthority_",
          "type": "address"
        },
        {
          "internalType": "address",
          "name": "factory_",
          "type": "address"
        }
      ],
      "name": "initialize",
      "outputs": [],
      "stateMutability": "nonpayable",
      "type": "function"
    },
    {
      "inputs": [
        {
          "internalType": "address",
          "name": "account",
          "type": "address"
        },
        {
          "internalType": "address",
          "name": "operator",
          "type": "address"
        }
      ],
      "name": "isApprovedForAll",
      "outputs": [
        {
          "internalType": "bool",
          "name": "",
          "type": "bool"
        }
      ],
      "stateMutability": "view",
      "type": "function"
    },
    {
      "inputs": [
        {
          "internalType": "address",
          "name": "signer",
          "type": "address"
        }
      ],
      "name": "isUsedSigner",
      "outputs": [
        {
          "internalType": "bool",
          "name": "",
          "type": "bool"
        }
      ],
      "stateMutability": "view",
      "type": "function"
    },
    {
      "inputs": [],
      "name": "name",
      "outputs": [
        {
          "internalType": "string",
          "name": "",
          "type": "string"
        }
      ],
      "stateMutability": "view",
      "type": "function"
    },
    {
      "inputs": [],
      "name": "owner",
      "outputs": [
        {
          "internalType": "address",
          "name": "",
          "type": "address"
        }
      ],
      "stateMutability": "view",
      "type": "function"
    },
    {
      "inputs": [],
      "name": "renounceOwnership",
      "outputs": [],
      "stateMutability": "nonpayable",
      "type": "function"
    },
    {
      "inputs": [
        {
          "internalType": "address",
          "name": "from",
          "type": "address"
        },
        {
          "internalType": "address",
          "name": "to",
          "type": "address"
        },
        {
          "internalType": "uint256[]",
          "name": "ids",
          "type": "uint256[]"
        },
        {
          "internalType": "uint256[]",
          "name": "amounts",
          "type": "uint256[]"
        },
        {
          "internalType": "bytes",
          "name": "data",
          "type": "bytes"
        }
      ],
      "name": "safeBatchTransferFrom",
      "outputs": [],
      "stateMutability": "nonpayable",
      "type": "function"
    },
    {
      "inputs": [
        {
          "internalType": "address",
          "name": "from",
          "type": "address"
        },
        {
          "internalType": "address",
          "name": "to",
          "type": "address"
        },
        {
          "internalType": "uint256",
          "name": "id",
          "type": "uint256"
        },
        {
          "internalType": "uint256",
          "name": "amount",
          "type": "uint256"
        },
        {
          "internalType": "bytes",
          "name": "data",
          "type": "bytes"
        }
      ],
      "name": "safeTransferFrom",
      "outputs": [],
      "stateMutability": "nonpayable",
      "type": "function"
    },
    {
      "inputs": [
        {
          "internalType": "address",
          "name": "operator",
          "type": "address"
        },
        {
          "internalType": "bool",
          "name": "approved",
          "type": "bool"
        }
      ],
      "name": "setApprovalForAll",
      "outputs": [],
      "stateMutability": "nonpayable",
      "type": "function"
    },
    {
      "inputs": [
        {
          "internalType": "address",
          "name": "certificateAuthority_",
          "type": "address"
        }
      ],
      "name": "setCertificateAuthority",
      "outputs": [],
      "stateMutability": "nonpayable",
      "type": "function"
    },
    {
      "inputs": [
        {
          "internalType": "uint256",
          "name": "id",
          "type": "uint256"
        },
        {
          "internalType": "string",
          "name": "uri_",
          "type": "string"
        }
      ],
      "name": "setUri",
      "outputs": [],
      "stateMutability": "nonpayable",
      "type": "function"
    },
    {
      "inputs": [
        {
          "internalType": "bytes4",
          "name": "interfaceId",
          "type": "bytes4"
        }
      ],
      "name": "supportsInterface",
      "outputs": [
        {
          "internalType": "bool",
          "name": "",
          "type": "bool"
        }
      ],
      "stateMutability": "view",
      "type": "function"
    },
    {
      "inputs": [],
      "name": "symbol",
      "outputs": [
        {
          "internalType": "string",
          "name": "",
          "type": "string"
        }
      ],
      "stateMutability": "view",
      "type": "function"
    },
    {
      "inputs": [],
      "name": "toggleGelatoRelay",
      "outputs": [],
      "stateMutability": "nonpayable",
      "type": "function"
    },
    {
      "inputs": [
        {
          "internalType": "address",
          "name": "newOwner",
          "type": "address"
        }
      ],
      "name": "transferOwnership",
      "outputs": [],
      "stateMutability": "nonpayable",
      "type": "function"
    },
    {
      "inputs": [
        {
          "internalType": "uint256",
          "name": "id",
          "type": "uint256"
        }
      ],
      "name": "uri",
      "outputs": [
        {
          "internalType": "string",
          "name": "",
          "type": "string"
        }
      ],
      "stateMutability": "view",
      "type": "function"
    },
    {
      "inputs": [
        {
          "internalType": "uint256",
          "name": "amount",
          "type": "uint256"
        }
      ],
      "name": "withdraw",
      "outputs": [],
      "stateMutability": "nonpayable",
      "type": "function"
    },
    {
      "inputs": [
        {
          "internalType": "contract IERC20",
          "name": "token",
          "type": "address"
        },
        {
          "internalType": "uint256",
          "name": "amount",
          "type": "uint256"
        }
      ],
      "name": "withdrawERC20",
      "outputs": [],
      "stateMutability": "nonpayable",
      "type": "function"
    },
    {
      "stateMutability": "payable",
      "type": "receive"
    }
  ],
  "transactionHash": "0xda0ae2e7850eaeec3053c4697a2b632cd6bab2110b85d058ed90ed99bb0140b9",
  "args": [],
  "numDeployments": 1,
  "solcInputHash": "9c30e154cfcd545b5b26741290cebdd2",
  "bytecode": "0x60806040523480156200001157600080fd5b506200001c62000022565b620000e4565b600254610100900460ff16156200008f5760405162461bcd60e51b815260206004820152602760248201527f496e697469616c697a61626c653a20636f6e747261637420697320696e697469604482015266616c697a696e6760c81b606482015260840160405180910390fd5b60025460ff9081161015620000e2576002805460ff191660ff9081179091556040519081527f7f26b83ff96e1f2b6a682f133852f6798a09c465da95921460cefb38474024989060200160405180910390a15b565b6137bf80620000f46000396000f3fe6080604052600436106101995760003560e01c80634e1273f4116100e1578063a22cb4651161008a578063d1bd740911610064578063d1bd740914610486578063e985e9c5146104a0578063f242432a146104e9578063f2fde38b1461050957600080fd5b8063a22cb46514610426578063a786aee914610446578063c45a01551461046657600080fd5b80638da5cb5b116100bb5780638da5cb5b146103d357806395d89b41146103f1578063a1db97821461040657600080fd5b80634e1273f414610371578063715018a61461039e578063782f08ae146103b357600080fd5b80631b50764d116101435780632eb2c2d61161011d5780632eb2c2d61461030557806342d3ce9914610325578063493c242b1461035c57600080fd5b80631b50764d146102a55780632be55b9b146102c55780632e1a7d4d146102e557600080fd5b80630e89341c116101745780630e89341c1461022a5780630fbee1411461024a578063150b7b6d1461026c57600080fd5b8062fdd58e146101a557806301ffc9a7146101d857806306fdde031461020857600080fd5b366101a057005b600080fd5b3480156101b157600080fd5b506101c56101c0366004612a04565b610529565b6040519081526020015b60405180910390f35b3480156101e457600080fd5b506101f86101f3366004612a5e565b6105d7565b60405190151581526020016101cf565b34801561021457600080fd5b5061021d6106ba565b6040516101cf9190612ad2565b34801561023657600080fd5b5061021d610245366004612ae5565b610748565b34801561025657600080fd5b5061026a610265366004612b40565b6107ea565b005b34801561027857600080fd5b506101f8610287366004612c1b565b6001600160a01b031660009081526001602052604090205460ff1690565b3480156102b157600080fd5b5061026a6102c0366004612c1b565b61091d565b3480156102d157600080fd5b5061026a6102e0366004612b40565b610931565b3480156102f157600080fd5b5061026a610300366004612ae5565b6109f4565b34801561031157600080fd5b5061026a610320366004612d9d565b610a2d565b34801561033157600080fd5b5060005461010090046001600160a01b03165b6040516001600160a01b0390911681526020016101cf565b34801561036857600080fd5b5061026a610acf565b34801561037d57600080fd5b5061039161038c366004612e4b565b610b09565b6040516101cf9190612f53565b3480156103aa57600080fd5b5061026a610c47565b3480156103bf57600080fd5b5061026a6103ce366004612f66565b610c5b565b3480156103df57600080fd5b506035546001600160a01b0316610344565b3480156103fd57600080fd5b5061021d610cbc565b34801561041257600080fd5b5061026a610421366004612a04565b610cc9565b34801561043257600080fd5b5061026a610441366004612fc0565b610d60565b34801561045257600080fd5b5061026a610461366004612ff9565b610d6b565b34801561047257600080fd5b50606754610344906001600160a01b031681565b34801561049257600080fd5b506000546101f89060ff1681565b3480156104ac57600080fd5b506101f86104bb3660046130a2565b6001600160a01b039182166000908152609b6020908152604080832093909416825291909152205460ff1690565b3480156104f557600080fd5b5061026a6105043660046130d0565b610f21565b34801561051557600080fd5b5061026a610524366004612c1b565b610fbc565b60006001600160a01b0383166105ac5760405162461bcd60e51b815260206004820152602a60248201527f455243313135353a2061646472657373207a65726f206973206e6f742061207660448201527f616c6964206f776e65720000000000000000000000000000000000000000000060648201526084015b60405180910390fd5b506000818152609a602090815260408083206001600160a01b03861684529091529020545b92915050565b60007fffffffff0000000000000000000000000000000000000000000000000000000082167fd9b67a2600000000000000000000000000000000000000000000000000000000148061066a57507fffffffff0000000000000000000000000000000000000000000000000000000082167f0e89341c00000000000000000000000000000000000000000000000000000000145b806105d157507f01ffc9a7000000000000000000000000000000000000000000000000000000007fffffffff000000000000000000000000000000000000000000000000000000008316146105d1565b60cc80546106c790613139565b80601f01602080910402602001604051908101604052809291908181526020018280546106f390613139565b80156107405780601f1061071557610100808354040283529160200191610740565b820191906000526020600020905b81548152906001019060200180831161072357829003601f168201915b505050505081565b600081815260ce6020526040902080546060919061076590613139565b80601f016020809104026020016040519081016040528092919081815260200182805461079190613139565b80156107de5780601f106107b3576101008083540402835291602001916107de565b820191906000526020600020905b8154815290600101906020018083116107c157829003601f168201915b50505050509050919050565b6000610861898989898080601f01602080910402602001604051908101604052809392919081815260200183838082843760009201919091525050604080516020601f8b01819004810282018101909252898152925089915088908190840183828082843760009201919091525061104992505050565b90506108708a828b8888611174565b6001600160a01b03891660009081526001602052604090205460ff16156108c2576040517e11115500000000000000000000000000000000000000000000000000000000815260040160405180910390fd5b6001600160a01b038916600090815260016020819052604090912080547fffffffffffffffffffffffffffffffffffffffffffffffffffffffffffffff001690911790556109118a888861124d565b50505050505050505050565b61092561147f565b61092e816114d9565b50565b73abcc9b596420a9e9172fd5938620e265a0f9df9233146109945760405162461bcd60e51b815260206004820152600f60248201527f6f6e6c7947656c61746f52656c6179000000000000000000000000000000000060448201526064016105a3565b60005460ff166109d0576040517fcd364b1700000000000000000000000000000000000000000000000000000000815260040160405180910390fd5b6109d8611558565b6109e98989898989898989896107ea565b505050505050505050565b6109fc61147f565b604051339082156108fc029083906000818181858888f19350505050158015610a29573d6000803e3d6000fd5b5050565b6001600160a01b038516331480610a495750610a4985336104bb565b610abb5760405162461bcd60e51b815260206004820152602e60248201527f455243313135353a2063616c6c6572206973206e6f7420746f6b656e206f776e60448201527f6572206f7220617070726f76656400000000000000000000000000000000000060648201526084016105a3565b610ac885858585856115bf565b5050505050565b610ad761147f565b600080547fffffffffffffffffffffffffffffffffffffffffffffffffffffffffffffff00811660ff90911615179055565b60608151835114610b825760405162461bcd60e51b815260206004820152602960248201527f455243313135353a206163636f756e747320616e6420696473206c656e67746860448201527f206d69736d61746368000000000000000000000000000000000000000000000060648201526084016105a3565b6000835167ffffffffffffffff811115610b9e57610b9e612c38565b604051908082528060200260200182016040528015610bc7578160200160208202803683370190505b50905060005b8451811015610c3f57610c12858281518110610beb57610beb61318c565b6020026020010151858381518110610c0557610c0561318c565b6020026020010151610529565b828281518110610c2457610c2461318c565b6020908102919091010152610c38816131ea565b9050610bcd565b509392505050565b610c4f61147f565b610c596000611858565b565b610c6361147f565b600083815260ce60205260409020610c7c828483613268565b50827f6bb7ff708619ba0610cba295a58592e0451dee2622938c8755667688daf3529b8383604051610caf929190613364565b60405180910390a2505050565b60cd80546106c790613139565b610cd161147f565b6040517fa9059cbb000000000000000000000000000000000000000000000000000000008152336004820152602481018290526001600160a01b0383169063a9059cbb906044016020604051808303816000875af1158015610d37573d6000803e3d6000fd5b505050506040513d601f19601f82011682018060405250810190610d5b9190613393565b505050565b610a293383836118c2565b600254610100900460ff1615808015610d8b5750600254600160ff909116105b80610da55750303b158015610da5575060025460ff166001145b610e175760405162461bcd60e51b815260206004820152602e60248201527f496e697469616c697a61626c653a20636f6e747261637420697320616c72656160448201527f647920696e697469616c697a656400000000000000000000000000000000000060648201526084016105a3565b600280547fffffffffffffffffffffffffffffffffffffffffffffffffffffffffffffff001660011790558015610e7557600280547fffffffffffffffffffffffffffffffffffffffffffffffffffffffffffff00ff166101001790555b610e8d604051806020016040528060008152506119d4565b60cc610e9a888a83613268565b5060cd610ea8868883613268565b50610eb4848484611a5a565b8015610f1757600280547fffffffffffffffffffffffffffffffffffffffffffffffffffffffffffff00ff169055604051600181527f7f26b83ff96e1f2b6a682f133852f6798a09c465da95921460cefb38474024989060200160405180910390a15b5050505050505050565b6001600160a01b038516331480610f3d5750610f3d85336104bb565b610faf5760405162461bcd60e51b815260206004820152602e60248201527f455243313135353a2063616c6c6572206973206e6f7420746f6b656e206f776e60448201527f6572206f7220617070726f76656400000000000000000000000000000000000060648201526084016105a3565b610ac88585858585611b50565b610fc461147f565b6001600160a01b0381166110405760405162461bcd60e51b815260206004820152602660248201527f4f776e61626c653a206e6577206f776e657220697320746865207a65726f206160448201527f646472657373000000000000000000000000000000000000000000000000000060648201526084016105a3565b61092e81611858565b6000806110c886863046886040516020016110689594939291906133b0565b60408051601f1981840301815282825280516020918201207f19457468657265756d205369676e6564204d6573736167653a0a33320000000084830152603c8085019190915282518085039091018152605c909301909152815191012090565b9050428567ffffffffffffffff16101561110e576040517f1d39f94600000000000000000000000000000000000000000000000000000000815260040160405180910390fd5b60005461010090046001600160a01b03166111298285611d1f565b6001600160a01b031614611169576040517f1d39f94600000000000000000000000000000000000000000000000000000000815260040160405180910390fd5b90505b949350505050565b6040517fffffffffffffffffffffffffffffffffffffffff000000000000000000000000606087901b166020820152603481018590526000906111b990605401611068565b9050836001600160a01b03166112058285858080601f016020809104026020016040519081016040528093929190818152602001838380828437600092019190915250611d1f92505050565b6001600160a01b031614611245576040517f8baa579f00000000000000000000000000000000000000000000000000000000815260040160405180910390fd5b505050505050565b60008061125c8385018561343c565b9150915060005a905061128086848460405180602001604052806000815250611d3b565b60005a905073abcc9b596420a9e9172fd5938620e265a0f9df9233036114765761c3506112ad828461345e565b11156112b857600080fd5b6000367fffffffffffffffffffffffffffffffffffffffffffffffffffffffffffffffcc013560601c6067546040517fb88c91480000000000000000000000000000000000000000000000000000000081526001600160a01b0380841660048301529293506000929091169063b88c914890602401602060405180830381865afa15801561134a573d6000803e3d6000fd5b505050506040513d601f19601f8201168201806040525081019061136e9190613471565b905080156109e9577fffffffffffffffffffffffff11111111111111111111111111111111111111126001600160a01b038316016113e6576067546040516001600160a01b039091169082156108fc029083906000818181858888f193505050501580156113e0573d6000803e3d6000fd5b506109e9565b6067546040517fa9059cbb0000000000000000000000000000000000000000000000000000000081526001600160a01b039182166004820152602481018390529083169063a9059cbb906044016020604051808303816000875af1158015611452573d6000803e3d6000fd5b505050506040513d601f19601f820116820180604052508101906109119190613393565b50505050505050565b6035546001600160a01b03163314610c595760405162461bcd60e51b815260206004820181905260248201527f4f776e61626c653a2063616c6c6572206973206e6f7420746865206f776e657260448201526064016105a3565b6001600160a01b038116611519576040517fd92e233d00000000000000000000000000000000000000000000000000000000815260040160405180910390fd5b600080546001600160a01b03909216610100027fffffffffffffffffffffff0000000000000000000000000000000000000000ff909216919091179055565b610c59367fffffffffffffffffffffffffffffffffffffffffffffffffffffffffffffffb8013560601c36601f190135367fffffffffffffffffffffffffffffffffffffffffffffffffffffffffffffffcc013560601c6001600160a01b03169190611e64565b81518351146116365760405162461bcd60e51b815260206004820152602860248201527f455243313135353a2069647320616e6420616d6f756e7473206c656e6774682060448201527f6d69736d6174636800000000000000000000000000000000000000000000000060648201526084016105a3565b6001600160a01b0384166116b25760405162461bcd60e51b815260206004820152602560248201527f455243313135353a207472616e7366657220746f20746865207a65726f20616460448201527f647265737300000000000000000000000000000000000000000000000000000060648201526084016105a3565b3360005b84518110156117f25760008582815181106116d3576116d361318c565b6020026020010151905060008583815181106116f1576116f161318c565b6020908102919091018101516000848152609a835260408082206001600160a01b038e1683529093529190912054909150818110156117985760405162461bcd60e51b815260206004820152602a60248201527f455243313135353a20696e73756666696369656e742062616c616e636520666f60448201527f72207472616e736665720000000000000000000000000000000000000000000060648201526084016105a3565b6000838152609a602090815260408083206001600160a01b038e8116855292528083208585039055908b168252812080548492906117d790849061348a565b92505081905550505050806117eb906131ea565b90506116b6565b50846001600160a01b0316866001600160a01b0316826001600160a01b03167f4a39dc06d4c0dbc64b70af90fd698a233a518aa5d07e595d983b8c0526c8f7fb878760405161184292919061349d565b60405180910390a4611245818787878787611eb3565b603580546001600160a01b038381167fffffffffffffffffffffffff0000000000000000000000000000000000000000831681179093556040519116919082907f8be0079c531659141344cd1fd0a4f28419497f9722a3daafe3b4186f6b6457e090600090a35050565b816001600160a01b0316836001600160a01b0316036119495760405162461bcd60e51b815260206004820152602960248201527f455243313135353a2073657474696e6720617070726f76616c2073746174757360448201527f20666f722073656c66000000000000000000000000000000000000000000000060648201526084016105a3565b6001600160a01b038381166000818152609b602090815260408083209487168084529482529182902080547fffffffffffffffffffffffffffffffffffffffffffffffffffffffffffffff001686151590811790915591519182527f17307eab39ab6107e8899845ad3d59bd9653f200f220920489ca2b5937696c31910160405180910390a3505050565b600254610100900460ff16611a515760405162461bcd60e51b815260206004820152602b60248201527f496e697469616c697a61626c653a20636f6e7472616374206973206e6f74206960448201527f6e697469616c697a696e6700000000000000000000000000000000000000000060648201526084016105a3565b61092e816120b7565b600254610100900460ff16611ad75760405162461bcd60e51b815260206004820152602b60248201527f496e697469616c697a61626c653a20636f6e7472616374206973206e6f74206960448201527f6e697469616c697a696e6700000000000000000000000000000000000000000060648201526084016105a3565b600080547fffffffffffffffffffffffffffffffffffffffffffffffffffffffffffffff0016841515179055611b0c826114d9565b611b1461213d565b606780547fffffffffffffffffffffffff0000000000000000000000000000000000000000166001600160a01b03929092169190911790555050565b6001600160a01b038416611bcc5760405162461bcd60e51b815260206004820152602560248201527f455243313135353a207472616e7366657220746f20746865207a65726f20616460448201527f647265737300000000000000000000000000000000000000000000000000000060648201526084016105a3565b336000611bd8856121c2565b90506000611be5856121c2565b90506000868152609a602090815260408083206001600160a01b038c16845290915290205485811015611c805760405162461bcd60e51b815260206004820152602a60248201527f455243313135353a20696e73756666696369656e742062616c616e636520666f60448201527f72207472616e736665720000000000000000000000000000000000000000000060648201526084016105a3565b6000878152609a602090815260408083206001600160a01b038d8116855292528083208985039055908a16825281208054889290611cbf90849061348a565b909155505060408051888152602081018890526001600160a01b03808b16928c821692918816917fc3d58168c5ae7397731d063d5bbf3d657854427343f4c083240f7aacaa2d0f62910160405180910390a46109e9848a8a8a8a8a61220d565b6000806000611d2e8585612368565b91509150610c3f816123ad565b6001600160a01b038416611db75760405162461bcd60e51b815260206004820152602160248201527f455243313135353a206d696e7420746f20746865207a65726f2061646472657360448201527f730000000000000000000000000000000000000000000000000000000000000060648201526084016105a3565b336000611dc3856121c2565b90506000611dd0856121c2565b90506000868152609a602090815260408083206001600160a01b038b16845290915281208054879290611e0490849061348a565b909155505060408051878152602081018790526001600160a01b03808a1692600092918716917fc3d58168c5ae7397731d063d5bbf3d657854427343f4c083240f7aacaa2d0f62910160405180910390a46114768360008989898961220d565b80600003611e7157505050565b6001600160a01b03831673eeeeeeeeeeeeeeeeeeeeeeeeeeeeeeeeeeeeeeee14611ea957610d5b6001600160a01b0384168383612512565b610d5b8282612592565b6001600160a01b0384163b15611245576040517fbc197c810000000000000000000000000000000000000000000000000000000081526001600160a01b0385169063bc197c8190611f1090899089908890889088906004016134cb565b6020604051808303816000875af1925050508015611f4b575060408051601f3d908101601f19168201909252611f4891810190613529565b60015b61200057611f57613546565b806308c379a003611f905750611f6b613562565b80611f765750611f92565b8060405162461bcd60e51b81526004016105a39190612ad2565b505b60405162461bcd60e51b815260206004820152603460248201527f455243313135353a207472616e7366657220746f206e6f6e2d4552433131353560448201527f526563656976657220696d706c656d656e74657200000000000000000000000060648201526084016105a3565b7fffffffff0000000000000000000000000000000000000000000000000000000081167fbc197c8100000000000000000000000000000000000000000000000000000000146114765760405162461bcd60e51b815260206004820152602860248201527f455243313135353a204552433131353552656365697665722072656a6563746560448201527f6420746f6b656e7300000000000000000000000000000000000000000000000060648201526084016105a3565b600254610100900460ff166121345760405162461bcd60e51b815260206004820152602b60248201527f496e697469616c697a61626c653a20636f6e7472616374206973206e6f74206960448201527f6e697469616c697a696e6700000000000000000000000000000000000000000060648201526084016105a3565b61092e816126ab565b600254610100900460ff166121ba5760405162461bcd60e51b815260206004820152602b60248201527f496e697469616c697a61626c653a20636f6e7472616374206973206e6f74206960448201527f6e697469616c697a696e6700000000000000000000000000000000000000000060648201526084016105a3565b610c596126b7565b604080516001808252818301909252606091600091906020808301908036833701905050905082816000815181106121fc576121fc61318c565b602090810291909101015292915050565b6001600160a01b0384163b15611245576040517ff23a6e610000000000000000000000000000000000000000000000000000000081526001600160a01b0385169063f23a6e619061226a908990899088908890889060040161360a565b6020604051808303816000875af19250505080156122a5575060408051601f3d908101601f191682019092526122a291810190613529565b60015b6122b157611f57613546565b7fffffffff0000000000000000000000000000000000000000000000000000000081167ff23a6e6100000000000000000000000000000000000000000000000000000000146114765760405162461bcd60e51b815260206004820152602860248201527f455243313135353a204552433131353552656365697665722072656a6563746560448201527f6420746f6b656e7300000000000000000000000000000000000000000000000060648201526084016105a3565b600080825160410361239e5760208301516040840151606085015160001a6123928782858561273d565b945094505050506123a6565b506000905060025b9250929050565b60008160048111156123c1576123c1613642565b036123c95750565b60018160048111156123dd576123dd613642565b0361242a5760405162461bcd60e51b815260206004820152601860248201527f45434453413a20696e76616c6964207369676e6174757265000000000000000060448201526064016105a3565b600281600481111561243e5761243e613642565b0361248b5760405162461bcd60e51b815260206004820152601f60248201527f45434453413a20696e76616c6964207369676e6174757265206c656e6774680060448201526064016105a3565b600381600481111561249f5761249f613642565b0361092e5760405162461bcd60e51b815260206004820152602260248201527f45434453413a20696e76616c6964207369676e6174757265202773272076616c60448201527f756500000000000000000000000000000000000000000000000000000000000060648201526084016105a3565b604080516001600160a01b038416602482015260448082018490528251808303909101815260649091019091526020810180517bffffffffffffffffffffffffffffffffffffffffffffffffffffffff167fa9059cbb00000000000000000000000000000000000000000000000000000000179052610d5b908490612801565b804710156125e25760405162461bcd60e51b815260206004820152601d60248201527f416464726573733a20696e73756666696369656e742062616c616e636500000060448201526064016105a3565b6000826001600160a01b03168260405160006040518083038185875af1925050503d806000811461262f576040519150601f19603f3d011682016040523d82523d6000602084013e612634565b606091505b5050905080610d5b5760405162461bcd60e51b815260206004820152603a60248201527f416464726573733a20756e61626c6520746f2073656e642076616c75652c207260448201527f6563697069656e74206d6179206861766520726576657274656400000000000060648201526084016105a3565b609c610a298282613671565b600254610100900460ff166127345760405162461bcd60e51b815260206004820152602b60248201527f496e697469616c697a61626c653a20636f6e7472616374206973206e6f74206960448201527f6e697469616c697a696e6700000000000000000000000000000000000000000060648201526084016105a3565b610c5933611858565b6000807f7fffffffffffffffffffffffffffffff5d576e7357a4501ddfe92f46681b20a083111561277457506000905060036127f8565b6040805160008082526020820180845289905260ff881692820192909252606081018690526080810185905260019060a0016020604051602081039080840390855afa1580156127c8573d6000803e3d6000fd5b5050604051601f1901519150506001600160a01b0381166127f1576000600192509250506127f8565b9150600090505b94509492505050565b6000612856826040518060400160405280602081526020017f5361666545524332303a206c6f772d6c6576656c2063616c6c206661696c6564815250856001600160a01b03166128e69092919063ffffffff16565b805190915015610d5b57808060200190518101906128749190613393565b610d5b5760405162461bcd60e51b815260206004820152602a60248201527f5361666545524332303a204552433230206f7065726174696f6e20646964206e60448201527f6f7420737563636565640000000000000000000000000000000000000000000060648201526084016105a3565b606061116c848460008585600080866001600160a01b0316858760405161290d919061376d565b60006040518083038185875af1925050503d806000811461294a576040519150601f19603f3d011682016040523d82523d6000602084013e61294f565b606091505b50915091506129608783838761296b565b979650505050505050565b606083156129da5782516000036129d3576001600160a01b0385163b6129d35760405162461bcd60e51b815260206004820152601d60248201527f416464726573733a2063616c6c20746f206e6f6e2d636f6e747261637400000060448201526064016105a3565b508161116c565b61116c8383815115611f765781518083602001fd5b6001600160a01b038116811461092e57600080fd5b60008060408385031215612a1757600080fd5b8235612a22816129ef565b946020939093013593505050565b7fffffffff000000000000000000000000000000000000000000000000000000008116811461092e57600080fd5b600060208284031215612a7057600080fd5b8135612a7b81612a30565b9392505050565b60005b83811015612a9d578181015183820152602001612a85565b50506000910152565b60008151808452612abe816020860160208601612a82565b601f01601f19169290920160200192915050565b602081526000612a7b6020830184612aa6565b600060208284031215612af757600080fd5b5035919050565b60008083601f840112612b1057600080fd5b50813567ffffffffffffffff811115612b2857600080fd5b6020830191508360208285010111156123a657600080fd5b600080600080600080600080600060c08a8c031215612b5e57600080fd5b8935612b69816129ef565b985060208a0135612b79816129ef565b975060408a013567ffffffffffffffff8082168214612b9757600080fd5b90975060608b01359080821115612bad57600080fd5b612bb98d838e01612afe565b909850965060808c0135915080821115612bd257600080fd5b612bde8d838e01612afe565b909650945060a08c0135915080821115612bf757600080fd5b50612c048c828d01612afe565b915080935050809150509295985092959850929598565b600060208284031215612c2d57600080fd5b8135612a7b816129ef565b7f4e487b7100000000000000000000000000000000000000000000000000000000600052604160045260246000fd5b601f19601f830116810181811067ffffffffffffffff82111715612c8d57612c8d612c38565b6040525050565b600067ffffffffffffffff821115612cae57612cae612c38565b5060051b60200190565b600082601f830112612cc957600080fd5b81356020612cd682612c94565b604051612ce38282612c67565b83815260059390931b8501820192828101915086841115612d0357600080fd5b8286015b84811015612d1e5780358352918301918301612d07565b509695505050505050565b600082601f830112612d3a57600080fd5b813567ffffffffffffffff811115612d5457612d54612c38565b604051612d6b6020601f19601f8501160182612c67565b818152846020838601011115612d8057600080fd5b816020850160208301376000918101602001919091529392505050565b600080600080600060a08688031215612db557600080fd5b8535612dc0816129ef565b94506020860135612dd0816129ef565b9350604086013567ffffffffffffffff80821115612ded57600080fd5b612df989838a01612cb8565b94506060880135915080821115612e0f57600080fd5b612e1b89838a01612cb8565b93506080880135915080821115612e3157600080fd5b50612e3e88828901612d29565b9150509295509295909350565b60008060408385031215612e5e57600080fd5b823567ffffffffffffffff80821115612e7657600080fd5b818501915085601f830112612e8a57600080fd5b81356020612e9782612c94565b604051612ea48282612c67565b83815260059390931b8501820192828101915089841115612ec457600080fd5b948201945b83861015612eeb578535612edc816129ef565b82529482019490820190612ec9565b96505086013592505080821115612f0157600080fd5b50612f0e85828601612cb8565b9150509250929050565b600081518084526020808501945080840160005b83811015612f4857815187529582019590820190600101612f2c565b509495945050505050565b602081526000612a7b6020830184612f18565b600080600060408486031215612f7b57600080fd5b83359250602084013567ffffffffffffffff811115612f9957600080fd5b612fa586828701612afe565b9497909650939450505050565b801515811461092e57600080fd5b60008060408385031215612fd357600080fd5b8235612fde816129ef565b91506020830135612fee81612fb2565b809150509250929050565b600080600080600080600060a0888a03121561301457600080fd5b873567ffffffffffffffff8082111561302c57600080fd5b6130388b838c01612afe565b909950975060208a013591508082111561305157600080fd5b5061305e8a828b01612afe565b909650945050604088013561307281612fb2565b92506060880135613082816129ef565b91506080880135613092816129ef565b8091505092959891949750929550565b600080604083850312156130b557600080fd5b82356130c0816129ef565b91506020830135612fee816129ef565b600080600080600060a086880312156130e857600080fd5b85356130f3816129ef565b94506020860135613103816129ef565b93506040860135925060608601359150608086013567ffffffffffffffff81111561312d57600080fd5b612e3e88828901612d29565b600181811c9082168061314d57607f821691505b602082108103613186577f4e487b7100000000000000000000000000000000000000000000000000000000600052602260045260246000fd5b50919050565b7f4e487b7100000000000000000000000000000000000000000000000000000000600052603260045260246000fd5b7f4e487b7100000000000000000000000000000000000000000000000000000000600052601160045260246000fd5b60007fffffffffffffffffffffffffffffffffffffffffffffffffffffffffffffffff820361321b5761321b6131bb565b5060010190565b601f821115610d5b57600081815260208120601f850160051c810160208610156132495750805b601f850160051c820191505b8181101561124557828155600101613255565b67ffffffffffffffff83111561328057613280612c38565b6132948361328e8354613139565b83613222565b6000601f8411600181146132e657600085156132b05750838201355b7fffffffffffffffffffffffffffffffffffffffffffffffffffffffffffffffff600387901b1c1916600186901b178355610ac8565b600083815260209020601f19861690835b8281101561331757868501358255602094850194600190920191016132f7565b5086821015613352577fffffffffffffffffffffffffffffffffffffffffffffffffffffffffffffffff60f88860031b161c19848701351681555b505060018560011b0183555050505050565b60208152816020820152818360408301376000818301604090810191909152601f909201601f19160101919050565b6000602082840312156133a557600080fd5b8151612a7b81612fb2565b60007fffffffffffffffffffffffffffffffffffffffff000000000000000000000000808860601b1683527fffffffffffffffff0000000000000000000000000000000000000000000000008760c01b166014840152808660601b16601c84015250836030830152825161342b816050850160208701612a82565b919091016050019695505050505050565b6000806040838503121561344f57600080fd5b50508035926020909101359150565b818103818111156105d1576105d16131bb565b60006020828403121561348357600080fd5b5051919050565b808201808211156105d1576105d16131bb565b6040815260006134b06040830185612f18565b82810360208401526134c28185612f18565b95945050505050565b60006001600160a01b03808816835280871660208401525060a060408301526134f760a0830186612f18565b82810360608401526135098186612f18565b9050828103608084015261351d8185612aa6565b98975050505050505050565b60006020828403121561353b57600080fd5b8151612a7b81612a30565b600060033d111561355f5760046000803e5060005160e01c5b90565b600060443d10156135705790565b6040517ffffffffffffffffffffffffffffffffffffffffffffffffffffffffffffffffc803d016004833e81513d67ffffffffffffffff81602484011181841117156135be57505050505090565b82850191508151818111156135d65750505050505090565b843d87010160208285010111156135f05750505050505090565b6135ff60208286010187612c67565b509095945050505050565b60006001600160a01b03808816835280871660208401525084604083015283606083015260a0608083015261296060a0830184612aa6565b7f4e487b7100000000000000000000000000000000000000000000000000000000600052602160045260246000fd5b815167ffffffffffffffff81111561368b5761368b612c38565b61369f816136998454613139565b84613222565b602080601f8311600181146136f257600084156136bc5750858301515b7fffffffffffffffffffffffffffffffffffffffffffffffffffffffffffffffff600386901b1c1916600185901b178555611245565b600085815260208120601f198616915b8281101561372157888601518255948401946001909101908401613702565b508582101561375d57878501517fffffffffffffffffffffffffffffffffffffffffffffffffffffffffffffffff600388901b60f8161c191681555b5050505050600190811b01905550565b6000825161377f818460208701612a82565b919091019291505056fea26469706673582212203983f57dbbe462fadc878ee29f10f5e2ced5d11525522b0c450724efd406ec3164736f6c63430008110033",
  "devdoc": {
    "kind": "dev",
    "methods": {
      "balanceOf(address,uint256)": {
        "details": "See {IERC1155-balanceOf}. Requirements: - `account` cannot be the zero address."
      },
      "balanceOfBatch(address[],uint256[])": {
        "details": "See {IERC1155-balanceOfBatch}. Requirements: - `accounts` and `ids` must have the same length."
      },
      "isApprovedForAll(address,address)": {
        "details": "See {IERC1155-isApprovedForAll}."
      },
      "owner()": {
        "details": "Returns the address of the current owner."
      },
      "renounceOwnership()": {
        "details": "Leaves the contract without owner. It will not be possible to call `onlyOwner` functions anymore. Can only be called by the current owner. NOTE: Renouncing ownership will leave the contract without an owner, thereby removing any functionality that is only available to the owner."
      },
      "safeBatchTransferFrom(address,address,uint256[],uint256[],bytes)": {
        "details": "See {IERC1155-safeBatchTransferFrom}."
      },
      "safeTransferFrom(address,address,uint256,uint256,bytes)": {
        "details": "See {IERC1155-safeTransferFrom}."
      },
      "setApprovalForAll(address,bool)": {
        "details": "See {IERC1155-setApprovalForAll}."
      },
      "supportsInterface(bytes4)": {
        "details": "See {IERC165-supportsInterface}."
      },
      "transferOwnership(address)": {
        "details": "Transfers ownership of the contract to a new account (`newOwner`). Can only be called by the current owner."
      }
    },
    "version": 1
  },
  "userdoc": {
    "kind": "user",
    "methods": {},
    "version": 1
  },
  "storageLayout": {
    "storage": [
      {
        "astId": 4528,
        "contract": "contracts/Claimable1155.sol:Claimable1155",
        "label": "gelatoRelayEnabled",
        "offset": 0,
        "slot": "0",
        "type": "t_bool"
      },
      {
        "astId": 4530,
        "contract": "contracts/Claimable1155.sol:Claimable1155",
        "label": "defaultCertificateAuthority",
        "offset": 1,
        "slot": "0",
        "type": "t_address"
      },
      {
        "astId": 4534,
        "contract": "contracts/Claimable1155.sol:Claimable1155",
        "label": "usedSigner",
        "offset": 0,
        "slot": "1",
        "type": "t_mapping(t_address,t_bool)"
      },
      {
        "astId": 426,
        "contract": "contracts/Claimable1155.sol:Claimable1155",
        "label": "_initialized",
        "offset": 0,
        "slot": "2",
        "type": "t_uint8"
      },
      {
        "astId": 429,
        "contract": "contracts/Claimable1155.sol:Claimable1155",
        "label": "_initializing",
        "offset": 1,
        "slot": "2",
        "type": "t_bool"
      },
      {
        "astId": 2336,
        "contract": "contracts/Claimable1155.sol:Claimable1155",
        "label": "__gap",
        "offset": 0,
        "slot": "3",
        "type": "t_array(t_uint256)50_storage"
      },
      {
        "astId": 298,
        "contract": "contracts/Claimable1155.sol:Claimable1155",
        "label": "_owner",
        "offset": 0,
        "slot": "53",
        "type": "t_address"
      },
      {
        "astId": 418,
        "contract": "contracts/Claimable1155.sol:Claimable1155",
        "label": "__gap",
        "offset": 0,
        "slot": "54",
        "type": "t_array(t_uint256)49_storage"
      },
      {
        "astId": 5000,
        "contract": "contracts/Claimable1155.sol:Claimable1155",
        "label": "factory",
        "offset": 0,
        "slot": "103",
        "type": "t_address"
      },
      {
        "astId": 2916,
        "contract": "contracts/Claimable1155.sol:Claimable1155",
        "label": "__gap",
        "offset": 0,
        "slot": "104",
        "type": "t_array(t_uint256)50_storage"
      },
      {
        "astId": 617,
        "contract": "contracts/Claimable1155.sol:Claimable1155",
        "label": "_balances",
        "offset": 0,
        "slot": "154",
        "type": "t_mapping(t_uint256,t_mapping(t_address,t_uint256))"
      },
      {
        "astId": 623,
        "contract": "contracts/Claimable1155.sol:Claimable1155",
        "label": "_operatorApprovals",
        "offset": 0,
        "slot": "155",
        "type": "t_mapping(t_address,t_mapping(t_address,t_bool))"
      },
      {
        "astId": 625,
        "contract": "contracts/Claimable1155.sol:Claimable1155",
        "label": "_uri",
        "offset": 0,
        "slot": "156",
        "type": "t_string_storage"
      },
      {
        "astId": 1832,
        "contract": "contracts/Claimable1155.sol:Claimable1155",
        "label": "__gap",
        "offset": 0,
        "slot": "157",
        "type": "t_array(t_uint256)47_storage"
      },
      {
        "astId": 4797,
        "contract": "contracts/Claimable1155.sol:Claimable1155",
        "label": "name",
        "offset": 0,
        "slot": "204",
        "type": "t_string_storage"
      },
      {
        "astId": 4799,
        "contract": "contracts/Claimable1155.sol:Claimable1155",
        "label": "symbol",
        "offset": 0,
        "slot": "205",
        "type": "t_string_storage"
      },
      {
        "astId": 4803,
        "contract": "contracts/Claimable1155.sol:Claimable1155",
        "label": "_uri",
        "offset": 0,
        "slot": "206",
        "type": "t_mapping(t_uint256,t_string_storage)"
      }
    ],
    "types": {
      "t_address": {
        "encoding": "inplace",
        "label": "address",
        "numberOfBytes": "20"
      },
      "t_array(t_uint256)47_storage": {
        "base": "t_uint256",
        "encoding": "inplace",
        "label": "uint256[47]",
        "numberOfBytes": "1504"
      },
      "t_array(t_uint256)49_storage": {
        "base": "t_uint256",
        "encoding": "inplace",
        "label": "uint256[49]",
        "numberOfBytes": "1568"
      },
      "t_array(t_uint256)50_storage": {
        "base": "t_uint256",
        "encoding": "inplace",
        "label": "uint256[50]",
        "numberOfBytes": "1600"
      },
      "t_bool": {
        "encoding": "inplace",
        "label": "bool",
        "numberOfBytes": "1"
      },
      "t_mapping(t_address,t_bool)": {
        "encoding": "mapping",
        "key": "t_address",
        "label": "mapping(address => bool)",
        "numberOfBytes": "32",
        "value": "t_bool"
      },
      "t_mapping(t_address,t_mapping(t_address,t_bool))": {
        "encoding": "mapping",
        "key": "t_address",
        "label": "mapping(address => mapping(address => bool))",
        "numberOfBytes": "32",
        "value": "t_mapping(t_address,t_bool)"
      },
      "t_mapping(t_address,t_uint256)": {
        "encoding": "mapping",
        "key": "t_address",
        "label": "mapping(address => uint256)",
        "numberOfBytes": "32",
        "value": "t_uint256"
      },
      "t_mapping(t_uint256,t_mapping(t_address,t_uint256))": {
        "encoding": "mapping",
        "key": "t_uint256",
        "label": "mapping(uint256 => mapping(address => uint256))",
        "numberOfBytes": "32",
        "value": "t_mapping(t_address,t_uint256)"
      },
      "t_mapping(t_uint256,t_string_storage)": {
        "encoding": "mapping",
        "key": "t_uint256",
        "label": "mapping(uint256 => string)",
        "numberOfBytes": "32",
        "value": "t_string_storage"
      },
      "t_string_storage": {
        "encoding": "bytes",
        "label": "string",
        "numberOfBytes": "32"
      },
      "t_uint256": {
        "encoding": "inplace",
        "label": "uint256",
        "numberOfBytes": "32"
      },
      "t_uint8": {
        "encoding": "inplace",
        "label": "uint8",
        "numberOfBytes": "1"
      }
    }
  }
}