{
  "address": "0x7747907A53d838279e4d9251220e7C410Dbd09a3",
  "abi": [
    {
      "inputs": [],
      "name": "ApprovalCallerNotOwnerNorApproved",
      "type": "error"
    },
    {
      "inputs": [],
      "name": "ApprovalQueryForNonexistentToken",
      "type": "error"
    },
    {
      "inputs": [],
      "name": "BalanceQueryForZeroAddress",
      "type": "error"
    },
    {
      "inputs": [],
      "name": "GelatoRelayNotEnabled",
      "type": "error"
    },
    {
      "inputs": [],
      "name": "InvalidCertificate",
      "type": "error"
    },
    {
      "inputs": [],
      "name": "InvalidSignature",
      "type": "error"
    },
    {
      "inputs": [],
      "name": "InvalidSigner",
      "type": "error"
    },
    {
      "inputs": [],
      "name": "MintERC2309QuantityExceedsLimit",
      "type": "error"
    },
    {
      "inputs": [],
      "name": "MintToZeroAddress",
      "type": "error"
    },
    {
      "inputs": [],
      "name": "MintZeroQuantity",
      "type": "error"
    },
    {
      "inputs": [],
      "name": "OwnerQueryForNonexistentToken",
      "type": "error"
    },
    {
      "inputs": [],
      "name": "OwnershipNotInitializedForExtraData",
      "type": "error"
    },
    {
      "inputs": [],
      "name": "SoulBound",
      "type": "error"
    },
    {
      "inputs": [],
      "name": "TransferCallerNotOwnerNorApproved",
      "type": "error"
    },
    {
      "inputs": [],
      "name": "TransferFromIncorrectOwner",
      "type": "error"
    },
    {
      "inputs": [],
      "name": "TransferToNonERC721ReceiverImplementer",
      "type": "error"
    },
    {
      "inputs": [],
      "name": "TransferToZeroAddress",
      "type": "error"
    },
    {
      "inputs": [],
      "name": "URIQueryForNonexistentToken",
      "type": "error"
    },
    {
      "inputs": [],
      "name": "ZeroAddress",
      "type": "error"
    },
    {
      "anonymous": false,
      "inputs": [
        {
          "indexed": true,
          "internalType": "address",
          "name": "owner",
          "type": "address"
        },
        {
          "indexed": true,
          "internalType": "address",
          "name": "approved",
          "type": "address"
        },
        {
          "indexed": true,
          "internalType": "uint256",
          "name": "tokenId",
          "type": "uint256"
        }
      ],
      "name": "Approval",
      "type": "event"
    },
    {
      "anonymous": false,
      "inputs": [
        {
          "indexed": true,
          "internalType": "address",
          "name": "owner",
          "type": "address"
        },
        {
          "indexed": true,
          "internalType": "address",
          "name": "operator",
          "type": "address"
        },
        {
          "indexed": false,
          "internalType": "bool",
          "name": "approved",
          "type": "bool"
        }
      ],
      "name": "ApprovalForAll",
      "type": "event"
    },
    {
      "anonymous": false,
      "inputs": [
        {
          "indexed": true,
          "internalType": "uint256",
          "name": "fromTokenId",
          "type": "uint256"
        },
        {
          "indexed": false,
          "internalType": "uint256",
          "name": "toTokenId",
          "type": "uint256"
        },
        {
          "indexed": true,
          "internalType": "address",
          "name": "from",
          "type": "address"
        },
        {
          "indexed": true,
          "internalType": "address",
          "name": "to",
          "type": "address"
        }
      ],
      "name": "ConsecutiveTransfer",
      "type": "event"
    },
    {
      "anonymous": false,
      "inputs": [
        {
          "indexed": false,
          "internalType": "uint8",
          "name": "version",
          "type": "uint8"
        }
      ],
      "name": "Initialized",
      "type": "event"
    },
    {
      "anonymous": false,
      "inputs": [
        {
          "indexed": true,
          "internalType": "address",
          "name": "previousOwner",
          "type": "address"
        },
        {
          "indexed": true,
          "internalType": "address",
          "name": "newOwner",
          "type": "address"
        }
      ],
      "name": "OwnershipTransferred",
      "type": "event"
    },
    {
      "anonymous": false,
      "inputs": [
        {
          "indexed": false,
          "internalType": "address",
          "name": "signer",
          "type": "address"
        }
      ],
      "name": "SignerRevoked",
      "type": "event"
    },
    {
      "anonymous": false,
      "inputs": [
        {
          "indexed": false,
          "internalType": "address",
          "name": "signer",
          "type": "address"
        }
      ],
      "name": "SignerUsed",
      "type": "event"
    },
    {
      "anonymous": false,
      "inputs": [
        {
          "indexed": true,
          "internalType": "address",
          "name": "from",
          "type": "address"
        },
        {
          "indexed": true,
          "internalType": "address",
          "name": "to",
          "type": "address"
        },
        {
          "indexed": true,
          "internalType": "uint256",
          "name": "tokenId",
          "type": "uint256"
        }
      ],
      "name": "Transfer",
      "type": "event"
    },
    {
      "inputs": [
        {
          "internalType": "address",
          "name": "to",
          "type": "address"
        },
        {
          "internalType": "uint256",
          "name": "tokenId",
          "type": "uint256"
        }
      ],
      "name": "approve",
      "outputs": [],
      "stateMutability": "payable",
      "type": "function"
    },
    {
      "inputs": [
        {
          "internalType": "address",
          "name": "owner",
          "type": "address"
        }
      ],
      "name": "balanceOf",
      "outputs": [
        {
          "internalType": "uint256",
          "name": "",
          "type": "uint256"
        }
      ],
      "stateMutability": "view",
      "type": "function"
    },
    {
      "inputs": [],
      "name": "baseURI",
      "outputs": [
        {
          "internalType": "string",
          "name": "",
          "type": "string"
        }
      ],
      "stateMutability": "view",
      "type": "function"
    },
    {
      "inputs": [
        {
          "internalType": "address",
          "name": "claimant",
          "type": "address"
        },
        {
          "internalType": "address",
          "name": "signer",
          "type": "address"
        },
        {
          "internalType": "uint64",
          "name": "deadline",
          "type": "uint64"
        },
        {
          "internalType": "bytes",
          "name": "data",
          "type": "bytes"
        },
        {
          "internalType": "bytes",
          "name": "signature",
          "type": "bytes"
        },
        {
          "internalType": "bytes",
          "name": "certificate",
          "type": "bytes"
        }
      ],
      "name": "claim",
      "outputs": [],
      "stateMutability": "payable",
      "type": "function"
    },
    {
      "inputs": [
        {
          "internalType": "address",
          "name": "claimant",
          "type": "address"
        },
        {
          "internalType": "address",
          "name": "signer",
          "type": "address"
        },
        {
          "internalType": "uint64",
          "name": "deadline",
          "type": "uint64"
        },
        {
          "internalType": "bytes",
          "name": "data",
          "type": "bytes"
        },
        {
          "internalType": "bytes",
          "name": "signature",
          "type": "bytes"
        },
        {
          "internalType": "bytes",
          "name": "certificate",
          "type": "bytes"
        }
      ],
      "name": "claimThroughRelay",
      "outputs": [],
      "stateMutability": "nonpayable",
      "type": "function"
    },
    {
      "inputs": [],
      "name": "gelatoRelayEnabled",
      "outputs": [
        {
          "internalType": "bool",
          "name": "",
          "type": "bool"
        }
      ],
      "stateMutability": "view",
      "type": "function"
    },
    {
      "inputs": [
        {
          "internalType": "uint256",
          "name": "",
          "type": "uint256"
        }
      ],
      "name": "getApproved",
      "outputs": [
        {
          "internalType": "address",
          "name": "",
          "type": "address"
        }
      ],
      "stateMutability": "pure",
      "type": "function"
    },
    {
      "inputs": [],
      "name": "getCertificateAuthority",
      "outputs": [
        {
          "internalType": "address",
          "name": "",
          "type": "address"
        }
      ],
      "stateMutability": "view",
      "type": "function"
    },
    {
      "inputs": [
        {
          "internalType": "string",
          "name": "name_",
          "type": "string"
        },
        {
          "internalType": "string",
          "name": "symbol_",
          "type": "string"
        },
        {
          "internalType": "bool",
          "name": "gelatoRelayEnabled_",
          "type": "bool"
        },
        {
          "internalType": "address",
          "name": "certificateAuthority_",
          "type": "address"
        }
      ],
      "name": "initialize",
      "outputs": [],
      "stateMutability": "nonpayable",
      "type": "function"
    },
    {
      "inputs": [
        {
          "internalType": "address",
          "name": "owner",
          "type": "address"
        },
        {
          "internalType": "address",
          "name": "operator",
          "type": "address"
        }
      ],
      "name": "isApprovedForAll",
      "outputs": [
        {
          "internalType": "bool",
          "name": "",
          "type": "bool"
        }
      ],
      "stateMutability": "view",
      "type": "function"
    },
    {
      "inputs": [],
      "name": "name",
      "outputs": [
        {
          "internalType": "string",
          "name": "",
          "type": "string"
        }
      ],
      "stateMutability": "view",
      "type": "function"
    },
    {
      "inputs": [],
      "name": "owner",
      "outputs": [
        {
          "internalType": "address",
          "name": "",
          "type": "address"
        }
      ],
      "stateMutability": "view",
      "type": "function"
    },
    {
      "inputs": [
        {
          "internalType": "uint256",
          "name": "tokenId",
          "type": "uint256"
        }
      ],
      "name": "ownerOf",
      "outputs": [
        {
          "internalType": "address",
          "name": "",
          "type": "address"
        }
      ],
      "stateMutability": "view",
      "type": "function"
    },
    {
      "inputs": [],
      "name": "renounceOwnership",
      "outputs": [],
      "stateMutability": "nonpayable",
      "type": "function"
    },
    {
      "inputs": [
        {
          "internalType": "address[]",
          "name": "signers",
          "type": "address[]"
        }
      ],
      "name": "revokeSigners",
      "outputs": [],
      "stateMutability": "nonpayable",
      "type": "function"
    },
    {
      "inputs": [
        {
          "internalType": "address",
          "name": "from",
          "type": "address"
        },
        {
          "internalType": "address",
          "name": "to",
          "type": "address"
        },
        {
          "internalType": "uint256",
          "name": "tokenId",
          "type": "uint256"
        }
      ],
      "name": "safeTransferFrom",
      "outputs": [],
      "stateMutability": "payable",
      "type": "function"
    },
    {
      "inputs": [
        {
          "internalType": "address",
          "name": "from",
          "type": "address"
        },
        {
          "internalType": "address",
          "name": "to",
          "type": "address"
        },
        {
          "internalType": "uint256",
          "name": "tokenId",
          "type": "uint256"
        },
        {
          "internalType": "bytes",
          "name": "_data",
          "type": "bytes"
        }
      ],
      "name": "safeTransferFrom",
      "outputs": [],
      "stateMutability": "payable",
      "type": "function"
    },
    {
      "inputs": [
        {
          "internalType": "address",
          "name": "",
          "type": "address"
        },
        {
          "internalType": "bool",
          "name": "",
          "type": "bool"
        }
      ],
      "name": "setApprovalForAll",
      "outputs": [],
      "stateMutability": "pure",
      "type": "function"
    },
    {
      "inputs": [
        {
          "internalType": "string",
          "name": "baseURI_",
          "type": "string"
        }
      ],
      "name": "setBaseURI",
      "outputs": [],
      "stateMutability": "nonpayable",
      "type": "function"
    },
    {
      "inputs": [
        {
          "internalType": "address",
          "name": "certificateAuthority_",
          "type": "address"
        }
      ],
      "name": "setCertificateAuthority",
      "outputs": [],
      "stateMutability": "nonpayable",
      "type": "function"
    },
    {
      "inputs": [
        {
          "internalType": "address",
          "name": "signer",
          "type": "address"
        }
      ],
      "name": "signerState",
      "outputs": [
        {
          "internalType": "uint256",
          "name": "",
          "type": "uint256"
        }
      ],
      "stateMutability": "view",
      "type": "function"
    },
    {
      "inputs": [
        {
          "internalType": "bytes4",
          "name": "interfaceId",
          "type": "bytes4"
        }
      ],
      "name": "supportsInterface",
      "outputs": [
        {
          "internalType": "bool",
          "name": "",
          "type": "bool"
        }
      ],
      "stateMutability": "view",
      "type": "function"
    },
    {
      "inputs": [],
      "name": "symbol",
      "outputs": [
        {
          "internalType": "string",
          "name": "",
          "type": "string"
        }
      ],
      "stateMutability": "view",
      "type": "function"
    },
    {
      "inputs": [],
      "name": "toggleGelatoRelayEnabled",
      "outputs": [],
      "stateMutability": "nonpayable",
      "type": "function"
    },
    {
      "inputs": [
        {
          "internalType": "uint256",
          "name": "tokenId",
          "type": "uint256"
        }
      ],
      "name": "tokenURI",
      "outputs": [
        {
          "internalType": "string",
          "name": "",
          "type": "string"
        }
      ],
      "stateMutability": "view",
      "type": "function"
    },
    {
      "inputs": [],
      "name": "totalSupply",
      "outputs": [
        {
          "internalType": "uint256",
          "name": "",
          "type": "uint256"
        }
      ],
      "stateMutability": "view",
      "type": "function"
    },
    {
      "inputs": [
        {
          "internalType": "address",
          "name": "from",
          "type": "address"
        },
        {
          "internalType": "address",
          "name": "to",
          "type": "address"
        },
        {
          "internalType": "uint256",
          "name": "tokenId",
          "type": "uint256"
        }
      ],
      "name": "transferFrom",
      "outputs": [],
      "stateMutability": "payable",
      "type": "function"
    },
    {
      "inputs": [
        {
          "internalType": "address",
          "name": "newOwner",
          "type": "address"
        }
      ],
      "name": "transferOwnership",
      "outputs": [],
      "stateMutability": "nonpayable",
      "type": "function"
    },
    {
      "inputs": [
        {
          "internalType": "uint256",
          "name": "amount",
          "type": "uint256"
        }
      ],
      "name": "withdraw",
      "outputs": [],
      "stateMutability": "nonpayable",
      "type": "function"
    },
    {
      "inputs": [
        {
          "internalType": "contract IERC20",
          "name": "token",
          "type": "address"
        },
        {
          "internalType": "uint256",
          "name": "amount",
          "type": "uint256"
        }
      ],
      "name": "withdrawERC20",
      "outputs": [],
      "stateMutability": "nonpayable",
      "type": "function"
    },
    {
      "stateMutability": "payable",
      "type": "receive"
    }
  ],
  "transactionHash": "0x20ff9984e4c5c3c309226f46cf9fca770fb34aeca4e3a332e9d503225d926c25",
  "args": [],
  "numDeployments": 1,
  "solcInputHash": "b51cde590d5f91dc984cfb643a02a668",
  "bytecode": "0x60806040523480156200001157600080fd5b506200001c62000022565b620000e4565b600054610100900460ff16156200008f5760405162461bcd60e51b815260206004820152602760248201527f496e697469616c697a61626c653a20636f6e747261637420697320696e697469604482015266616c697a696e6760c81b606482015260840160405180910390fd5b60005460ff9081161015620000e2576000805460ff191660ff9081179091556040519081527f7f26b83ff96e1f2b6a682f133852f6798a09c465da95921460cefb38474024989060200160405180910390a15b565b61379280620000f46000396000f3fe6080604052600436106101d15760003560e01c80636352211e116100f7578063a1db978211610095578063d1bd740911610064578063d1bd7409146105af578063e985e9c5146105e6578063e99814901461065b578063f2fde38b1461067b57600080fd5b8063a1db97821461053c578063a22cb4651461055c578063b88d4fde1461057c578063c87b56dd1461058f57600080fd5b8063715018a6116100d1578063715018a6146104d257806377ceaf55146104e75780638da5cb5b146104fc57806395d89b411461052757600080fd5b80636352211e1461047d5780636c0360eb1461049d57806370a08231146104b257600080fd5b80631b50764d1161016f57806342842e0e1161013e57806342842e0e146103db57806342d3ce99146103ee5780634f6671f21461043d57806355f804b31461045d57600080fd5b80631b50764d1461036857806323b872dd146103885780632be55b9b1461039b5780632e1a7d4d146103bb57600080fd5b8063095ea7b3116101ab578063095ea7b3146102795780630fbee1411461028e57806318160ddd146102a15780631a6646d11461030657600080fd5b806301ffc9a7146101dd57806306fdde0314610212578063081812fc1461023457600080fd5b366101d857005b600080fd5b3480156101e957600080fd5b506101fd6101f8366004612ddb565b61069b565b60405190151581526020015b60405180910390f35b34801561021e57600080fd5b50610227610780565b6040516102099190612e4f565b34801561024057600080fd5b5061025461024f366004612e62565b610834565b60405173ffffffffffffffffffffffffffffffffffffffff9091168152602001610209565b61028c610287366004612e9d565b610868565b005b61028c61029c366004612f0b565b610878565b3480156102ad57600080fd5b507f2569078dfb4b0305704d3008e7403993ae9601b85f7ae5e742de3de8f8011c41547f2569078dfb4b0305704d3008e7403993ae9601b85f7ae5e742de3de8f8011c405403600019015b604051908152602001610209565b34801561031257600080fd5b506102f8610321366004612fe6565b73ffffffffffffffffffffffffffffffffffffffff1660009081527f2b73ab9b3209ce7eae820eed4a32c3835beefde84461cc159b893543f9607571602052604090205490565b34801561037457600080fd5b5061028c610383366004612fe6565b610a0e565b61028c610396366004613003565b610a22565b3480156103a757600080fd5b5061028c6103b6366004612f0b565b610da4565b3480156103c757600080fd5b5061028c6103d6366004612e62565b610e8b565b61028c6103e9366004613003565b610ec0565b3480156103fa57600080fd5b507f2b73ab9b3209ce7eae820eed4a32c3835beefde84461cc159b893543f960757054610100900473ffffffffffffffffffffffffffffffffffffffff16610254565b34801561044957600080fd5b5061028c610458366004613052565b610ee0565b34801561046957600080fd5b5061028c6104783660046130e7565b611276565b34801561048957600080fd5b50610254610498366004612e62565b61128b565b3480156104a957600080fd5b50610227611296565b3480156104be57600080fd5b506102f86104cd366004612fe6565b611324565b3480156104de57600080fd5b5061028c6113c5565b3480156104f357600080fd5b5061028c6113d9565b34801561050857600080fd5b5060335473ffffffffffffffffffffffffffffffffffffffff16610254565b34801561053357600080fd5b50610227611432565b34801561054857600080fd5b5061028c610557366004612e9d565b611463565b34801561056857600080fd5b5061028c610577366004613129565b611502565b61028c61058a366004613191565b611534565b34801561059b57600080fd5b506102276105aa366004612e62565b6115a4565b3480156105bb57600080fd5b507f2b73ab9b3209ce7eae820eed4a32c3835beefde84461cc159b893543f96075705460ff166101fd565b3480156105f257600080fd5b506101fd610601366004613271565b73ffffffffffffffffffffffffffffffffffffffff91821660009081527f2569078dfb4b0305704d3008e7403993ae9601b85f7ae5e742de3de8f8011c476020908152604080832093909416825291909152205460ff1690565b34801561066757600080fd5b5061028c61067636600461329f565b6115d8565b34801561068757600080fd5b5061028c610696366004612fe6565b611622565b60007f01ffc9a7000000000000000000000000000000000000000000000000000000007fffffffff000000000000000000000000000000000000000000000000000000008316148061072e57507f80ac58cd000000000000000000000000000000000000000000000000000000007fffffffff000000000000000000000000000000000000000000000000000000008316145b8061077a57507f5b5e139f000000000000000000000000000000000000000000000000000000007fffffffff000000000000000000000000000000000000000000000000000000008316145b92915050565b60607f2569078dfb4b0305704d3008e7403993ae9601b85f7ae5e742de3de8f8011c4060020180546107b190613314565b80601f01602080910402602001604051908101604052809291908181526020018280546107dd90613314565b801561082a5780601f106107ff5761010080835404028352916020019161082a565b820191906000526020600020905b81548152906001019060200180831161080d57829003601f168201915b5050505050905090565b60006040517f24cf071e00000000000000000000000000000000000000000000000000000000815260040160405180910390fd5b610874828260016116bc565b5050565b60006108ef898989898080601f01602080910402602001604051908101604052809392919081815260200183838082843760009201919091525050604080516020601f8b01819004810282018101909252898152925089915088908190840183828082843760009201919091525061181692505050565b90506108fe8a828b888861197a565b73ffffffffffffffffffffffffffffffffffffffff891660009081527f2b73ab9b3209ce7eae820eed4a32c3835beefde84461cc159b893543f960757160205260409020541561097a576040517f815e1d6400000000000000000000000000000000000000000000000000000000815260040160405180910390fd5b73ffffffffffffffffffffffffffffffffffffffff891660008181527f2b73ab9b3209ce7eae820eed4a32c3835beefde84461cc159b893543f9607571602090815260409182902060019055815192835290517fd11b52902456189cc3d9201056c9e5cc1da0569404bfa7b66c334e7bbaa42b549281900390910190a1610a028a8888611a65565b50505050505050505050565b610a16611a70565b610a1f81611ad7565b50565b6000610a2d82611b90565b90508373ffffffffffffffffffffffffffffffffffffffff168173ffffffffffffffffffffffffffffffffffffffff1614610a94576040517fa114810000000000000000000000000000000000000000000000000000000000815260040160405180910390fd5b60008281527f2569078dfb4b0305704d3008e7403993ae9601b85f7ae5e742de3de8f8011c466020526040902080543380821473ffffffffffffffffffffffffffffffffffffffff881690911417610b6f5773ffffffffffffffffffffffffffffffffffffffff861660009081527f2569078dfb4b0305704d3008e7403993ae9601b85f7ae5e742de3de8f8011c476020908152604080832033845290915290205460ff16610b6f576040517f59c896be00000000000000000000000000000000000000000000000000000000815260040160405180910390fd5b73ffffffffffffffffffffffffffffffffffffffff8516610bbc576040517fea553b3400000000000000000000000000000000000000000000000000000000815260040160405180910390fd5b610bc98686866001611cc3565b8015610bd457600082555b73ffffffffffffffffffffffffffffffffffffffff86811660009081527f2569078dfb4b0305704d3008e7403993ae9601b85f7ae5e742de3de8f8011c4560205260408082208054600019019055918716808252919020805460010190554260a01b177c02000000000000000000000000000000000000000000000000000000001760008581527f2569078dfb4b0305704d3008e7403993ae9601b85f7ae5e742de3de8f8011c4460205260408120919091557c020000000000000000000000000000000000000000000000000000000084169003610d40576001840160008181527f2569078dfb4b0305704d3008e7403993ae9601b85f7ae5e742de3de8f8011c4460205260408120549003610d3e577f2569078dfb4b0305704d3008e7403993ae9601b85f7ae5e742de3de8f8011c40548114610d3e5760008181527f2569078dfb4b0305704d3008e7403993ae9601b85f7ae5e742de3de8f8011c44602052604090208490555b505b838573ffffffffffffffffffffffffffffffffffffffff168773ffffffffffffffffffffffffffffffffffffffff167fddf252ad1be2c89b69c2b068fc378daa952ba7f163c4a11628f55a4df523b3ef60405160405180910390a45b505050505050565b73abcc9b596420a9e9172fd5938620e265a0f9df923314610e0c5760405162461bcd60e51b815260206004820152600f60248201527f6f6e6c7947656c61746f52656c6179000000000000000000000000000000000060448201526064015b60405180910390fd5b7f2b73ab9b3209ce7eae820eed4a32c3835beefde84461cc159b893543f96075705460ff16610e67576040517fcd364b1700000000000000000000000000000000000000000000000000000000815260040160405180910390fd5b610e6f611d11565b610e80898989898989898989610878565b505050505050505050565b610e93611a70565b604051339082156108fc029083906000818181858888f19350505050158015610874573d6000803e3d6000fd5b610edb83838360405180602001604052806000815250611534565b505050565b7fee151c8401928dc223602bb187aff91b9a56c7cae5476ef1b3287b085a16c85f54610100900460ff16610f39577fee151c8401928dc223602bb187aff91b9a56c7cae5476ef1b3287b085a16c85f5460ff1615610f3d565b303b155b610faf5760405162461bcd60e51b815260206004820152603760248201527f455243373231415f5f496e697469616c697a61626c653a20636f6e747261637460448201527f20697320616c726561647920696e697469616c697a65640000000000000000006064820152608401610e03565b7fee151c8401928dc223602bb187aff91b9a56c7cae5476ef1b3287b085a16c85f54610100900460ff1615801561102c577fee151c8401928dc223602bb187aff91b9a56c7cae5476ef1b3287b085a16c85f80547fffffffffffffffffffffffffffffffffffffffffffffffffffffffffffff0000166101011790555b600054610100900460ff161580801561104c5750600054600160ff909116105b806110665750303b158015611066575060005460ff166001145b6110d85760405162461bcd60e51b815260206004820152602e60248201527f496e697469616c697a61626c653a20636f6e747261637420697320616c72656160448201527f647920696e697469616c697a65640000000000000000000000000000000000006064820152608401610e03565b600080547fffffffffffffffffffffffffffffffffffffffffffffffffffffffffffffff00166001179055801561113657600080547fffffffffffffffffffffffffffffffffffffffffffffffffffffffffffff00ff166101001790555b6111408484611d85565b6111b388888080601f01602080910402602001604051908101604052809392919081815260200183838082843760009201919091525050604080516020601f8c018190048102820181019092528a815292508a9150899081908401838280828437600092019190915250611e5e92505050565b6111bb611f04565b801561121e57600080547fffffffffffffffffffffffffffffffffffffffffffffffffffffffffffff00ff169055604051600181527f7f26b83ff96e1f2b6a682f133852f6798a09c465da95921460cefb38474024989060200160405180910390a15b50801561126d577fee151c8401928dc223602bb187aff91b9a56c7cae5476ef1b3287b085a16c85f80547fffffffffffffffffffffffffffffffffffffffffffffffffffffffffffff00ff1690555b50505050505050565b61127e611a70565b6065610edb8284836133ad565b600061077a82611b90565b606580546112a390613314565b80601f01602080910402602001604051908101604052809291908181526020018280546112cf90613314565b801561131c5780601f106112f15761010080835404028352916020019161131c565b820191906000526020600020905b8154815290600101906020018083116112ff57829003601f168201915b505050505081565b600073ffffffffffffffffffffffffffffffffffffffff8216611373576040517f8f4eb60400000000000000000000000000000000000000000000000000000000815260040160405180910390fd5b5073ffffffffffffffffffffffffffffffffffffffff1660009081527f2569078dfb4b0305704d3008e7403993ae9601b85f7ae5e742de3de8f8011c45602052604090205467ffffffffffffffff1690565b6113cd611a70565b6113d76000611f89565b565b6113e1611a70565b7f2b73ab9b3209ce7eae820eed4a32c3835beefde84461cc159b893543f960757080547fffffffffffffffffffffffffffffffffffffffffffffffffffffffffffffff00811660ff90911615179055565b60607f2569078dfb4b0305704d3008e7403993ae9601b85f7ae5e742de3de8f8011c4060030180546107b190613314565b61146b611a70565b6040517fa9059cbb0000000000000000000000000000000000000000000000000000000081523360048201526024810182905273ffffffffffffffffffffffffffffffffffffffff83169063a9059cbb906044016020604051808303816000875af11580156114de573d6000803e3d6000fd5b505050506040513d601f19601f82011682018060405250810190610edb919061346e565b6040517f24cf071e00000000000000000000000000000000000000000000000000000000815260040160405180910390fd5b61153f848484610a22565b73ffffffffffffffffffffffffffffffffffffffff83163b1561159e5761156884848484612000565b61159e576040517fd1a57ed600000000000000000000000000000000000000000000000000000000815260040160405180910390fd5b50505050565b606060656115b183612158565b6040516020016115c292919061348b565b6040516020818303038152906040529050919050565b6115e0611a70565b60005b81811015610edb5761161a83838381811061160057611600613530565b90506020020160208101906116159190612fe6565b6121f8565b6001016115e3565b61162a611a70565b73ffffffffffffffffffffffffffffffffffffffff81166116b35760405162461bcd60e51b815260206004820152602660248201527f4f776e61626c653a206e6577206f776e657220697320746865207a65726f206160448201527f64647265737300000000000000000000000000000000000000000000000000006064820152608401610e03565b610a1f81611f89565b60006116c78361128b565b90508115611775573373ffffffffffffffffffffffffffffffffffffffff8216146117755773ffffffffffffffffffffffffffffffffffffffff811660009081527f2569078dfb4b0305704d3008e7403993ae9601b85f7ae5e742de3de8f8011c476020908152604080832033845290915290205460ff16611775576040517fcfb3b94200000000000000000000000000000000000000000000000000000000815260040160405180910390fd5b60008381527f2569078dfb4b0305704d3008e7403993ae9601b85f7ae5e742de3de8f8011c46602052604080822080547fffffffffffffffffffffffff00000000000000000000000000000000000000001673ffffffffffffffffffffffffffffffffffffffff88811691821790925591518693918516917f8c5be1e5ebec7d5bd14f71427d1e84f3dd0314c0f7b2291e5b200ac8c7c3b92591a450505050565b600080611895868630468860405160200161183595949392919061355f565b60408051601f1981840301815282825280516020918201207f19457468657265756d205369676e6564204d6573736167653a0a33320000000084830152603c8085019190915282518085039091018152605c909301909152815191012090565b9050428567ffffffffffffffff1610156118db576040517f1d39f94600000000000000000000000000000000000000000000000000000000815260040160405180910390fd5b7f2b73ab9b3209ce7eae820eed4a32c3835beefde84461cc159b893543f960757054610100900473ffffffffffffffffffffffffffffffffffffffff166119228285612278565b73ffffffffffffffffffffffffffffffffffffffff161461196f576040517f1d39f94600000000000000000000000000000000000000000000000000000000815260040160405180910390fd5b90505b949350505050565b6040517fffffffffffffffffffffffffffffffffffffffff000000000000000000000000606087901b166020820152603481018590526000906119bf90605401611835565b90508373ffffffffffffffffffffffffffffffffffffffff16611a188285858080601f01602080910402602001604051908101604052809392919081815260200183838082843760009201919091525061227892505050565b73ffffffffffffffffffffffffffffffffffffffff1614610d9c576040517f8baa579f00000000000000000000000000000000000000000000000000000000815260040160405180910390fd5b610edb83600161229c565b60335473ffffffffffffffffffffffffffffffffffffffff1633146113d75760405162461bcd60e51b815260206004820181905260248201527f4f776e61626c653a2063616c6c6572206973206e6f7420746865206f776e65726044820152606401610e03565b73ffffffffffffffffffffffffffffffffffffffff8116611b24576040517fd92e233d00000000000000000000000000000000000000000000000000000000815260040160405180910390fd5b7f2b73ab9b3209ce7eae820eed4a32c3835beefde84461cc159b893543f960757080547fffffffffffffffffffffff0000000000000000000000000000000000000000ff1661010073ffffffffffffffffffffffffffffffffffffffff90931692909202919091179055565b600081600111611c91575060008181527f2569078dfb4b0305704d3008e7403993ae9601b85f7ae5e742de3de8f8011c446020526040812054907c010000000000000000000000000000000000000000000000000000000082169003611c915780600003611c8c577f2569078dfb4b0305704d3008e7403993ae9601b85f7ae5e742de3de8f8011c40548210611c52576040517fdf2d9b4200000000000000000000000000000000000000000000000000000000815260040160405180910390fd5b506000190160008181527f2569078dfb4b0305704d3008e7403993ae9601b85f7ae5e742de3de8f8011c4460205260409020548015611c52575b919050565b6040517fdf2d9b4200000000000000000000000000000000000000000000000000000000815260040160405180910390fd5b73ffffffffffffffffffffffffffffffffffffffff84161561159e576040517f24cf071e00000000000000000000000000000000000000000000000000000000815260040160405180910390fd5b6113d7367fffffffffffffffffffffffffffffffffffffffffffffffffffffffffffffffb8013560601c36601f190135367fffffffffffffffffffffffffffffffffffffffffffffffffffffffffffffffcc013560601c73ffffffffffffffffffffffffffffffffffffffff169190612463565b600054610100900460ff16611e025760405162461bcd60e51b815260206004820152602b60248201527f496e697469616c697a61626c653a20636f6e7472616374206973206e6f74206960448201527f6e697469616c697a696e670000000000000000000000000000000000000000006064820152608401610e03565b7f2b73ab9b3209ce7eae820eed4a32c3835beefde84461cc159b893543f960757080547fffffffffffffffffffffffffffffffffffffffffffffffffffffffffffffff0016831515179055611e5681611ad7565b610874611f04565b7fee151c8401928dc223602bb187aff91b9a56c7cae5476ef1b3287b085a16c85f54610100900460ff16611efa5760405162461bcd60e51b815260206004820152603460248201527f455243373231415f5f496e697469616c697a61626c653a20636f6e747261637460448201527f206973206e6f7420696e697469616c697a696e670000000000000000000000006064820152608401610e03565b61087482826124cc565b600054610100900460ff16611f815760405162461bcd60e51b815260206004820152602b60248201527f496e697469616c697a61626c653a20636f6e7472616374206973206e6f74206960448201527f6e697469616c697a696e670000000000000000000000000000000000000000006064820152608401610e03565b6113d76125e8565b6033805473ffffffffffffffffffffffffffffffffffffffff8381167fffffffffffffffffffffffff0000000000000000000000000000000000000000831681179093556040519116919082907f8be0079c531659141344cd1fd0a4f28419497f9722a3daafe3b4186f6b6457e090600090a35050565b6040517f150b7a0200000000000000000000000000000000000000000000000000000000815260009073ffffffffffffffffffffffffffffffffffffffff85169063150b7a029061205b9033908990889088906004016135eb565b6020604051808303816000875af1925050508015612096575060408051601f3d908101601f1916820190925261209391810190613634565b60015b61210d573d8080156120c4576040519150601f19603f3d011682016040523d82523d6000602084013e6120c9565b606091505b508051600003612105576040517fd1a57ed600000000000000000000000000000000000000000000000000000000815260040160405180910390fd5b805181602001fd5b7fffffffff00000000000000000000000000000000000000000000000000000000167f150b7a0200000000000000000000000000000000000000000000000000000000149050611972565b606060006121658361266e565b600101905060008167ffffffffffffffff81111561218557612185613162565b6040519080825280601f01601f1916602001820160405280156121af576020820181803683370190505b5090508181016020015b600019017f3031323334353637383961626364656600000000000000000000000000000000600a86061a8153600a85049450846121b957509392505050565b73ffffffffffffffffffffffffffffffffffffffff811660008181527f2b73ab9b3209ce7eae820eed4a32c3835beefde84461cc159b893543f9607571602090815260409182902060029055815192835290517f99a705a3c2c3339d0051f56b36a60fef91e30142c93353002617999f27aec4af9281900390910190a150565b60008060006122878585612750565b9150915061229481612795565b509392505050565b7f2569078dfb4b0305704d3008e7403993ae9601b85f7ae5e742de3de8f8011c405460008290036122f9576040517fb562e8dd00000000000000000000000000000000000000000000000000000000815260040160405180910390fd5b6123066000848385611cc3565b73ffffffffffffffffffffffffffffffffffffffff831660008181527f2569078dfb4b0305704d3008e7403993ae9601b85f7ae5e742de3de8f8011c456020908152604080832080546801000000000000000188020190558483527f2569078dfb4b0305704d3008e7403993ae9601b85f7ae5e742de3de8f8011c4490915281206001851460e11b4260a01b178317905582840190839083907fddf252ad1be2c89b69c2b068fc378daa952ba7f163c4a11628f55a4df523b3ef8180a4600183015b81811461240057808360007fddf252ad1be2c89b69c2b068fc378daa952ba7f163c4a11628f55a4df523b3ef600080a46001016123c8565b508160000361243b576040517f2e07630000000000000000000000000000000000000000000000000000000000815260040160405180910390fd5b7f2569078dfb4b0305704d3008e7403993ae9601b85f7ae5e742de3de8f8011c405550505050565b8060000361247057505050565b73ffffffffffffffffffffffffffffffffffffffff831673eeeeeeeeeeeeeeeeeeeeeeeeeeeeeeeeeeeeeeee146124c257610edb73ffffffffffffffffffffffffffffffffffffffff841683836128fa565b610edb8282612987565b7fee151c8401928dc223602bb187aff91b9a56c7cae5476ef1b3287b085a16c85f54610100900460ff166125685760405162461bcd60e51b815260206004820152603460248201527f455243373231415f5f496e697469616c697a61626c653a20636f6e747261637460448201527f206973206e6f7420696e697469616c697a696e670000000000000000000000006064820152608401610e03565b7f2569078dfb4b0305704d3008e7403993ae9601b85f7ae5e742de3de8f8011c426125938382613651565b507f2569078dfb4b0305704d3008e7403993ae9601b85f7ae5e742de3de8f8011c436125bf8282613651565b5060017f2569078dfb4b0305704d3008e7403993ae9601b85f7ae5e742de3de8f8011c40555050565b600054610100900460ff166126655760405162461bcd60e51b815260206004820152602b60248201527f496e697469616c697a61626c653a20636f6e7472616374206973206e6f74206960448201527f6e697469616c697a696e670000000000000000000000000000000000000000006064820152608401610e03565b6113d733611f89565b6000807a184f03e93ff9f4daa797ed6e38ed64bf6a1f01000000000000000083106126b7577a184f03e93ff9f4daa797ed6e38ed64bf6a1f010000000000000000830492506040015b6d04ee2d6d415b85acef810000000083106126e3576d04ee2d6d415b85acef8100000000830492506020015b662386f26fc10000831061270157662386f26fc10000830492506010015b6305f5e1008310612719576305f5e100830492506008015b612710831061272d57612710830492506004015b6064831061273f576064830492506002015b600a831061077a5760010192915050565b60008082516041036127865760208301516040840151606085015160001a61277a87828585612aad565b9450945050505061278e565b506000905060025b9250929050565b60008160048111156127a9576127a9613711565b036127b15750565b60018160048111156127c5576127c5613711565b036128125760405162461bcd60e51b815260206004820152601860248201527f45434453413a20696e76616c6964207369676e617475726500000000000000006044820152606401610e03565b600281600481111561282657612826613711565b036128735760405162461bcd60e51b815260206004820152601f60248201527f45434453413a20696e76616c6964207369676e6174757265206c656e677468006044820152606401610e03565b600381600481111561288757612887613711565b03610a1f5760405162461bcd60e51b815260206004820152602260248201527f45434453413a20696e76616c6964207369676e6174757265202773272076616c60448201527f75650000000000000000000000000000000000000000000000000000000000006064820152608401610e03565b6040805173ffffffffffffffffffffffffffffffffffffffff8416602482015260448082018490528251808303909101815260649091019091526020810180517bffffffffffffffffffffffffffffffffffffffffffffffffffffffff167fa9059cbb00000000000000000000000000000000000000000000000000000000179052610edb908490612b7e565b804710156129d75760405162461bcd60e51b815260206004820152601d60248201527f416464726573733a20696e73756666696369656e742062616c616e63650000006044820152606401610e03565b60008273ffffffffffffffffffffffffffffffffffffffff168260405160006040518083038185875af1925050503d8060008114612a31576040519150601f19603f3d011682016040523d82523d6000602084013e612a36565b606091505b5050905080610edb5760405162461bcd60e51b815260206004820152603a60248201527f416464726573733a20756e61626c6520746f2073656e642076616c75652c207260448201527f6563697069656e74206d617920686176652072657665727465640000000000006064820152608401610e03565b6000807f7fffffffffffffffffffffffffffffff5d576e7357a4501ddfe92f46681b20a0831115612ae45750600090506003612b75565b6040805160008082526020820180845289905260ff881692820192909252606081018690526080810185905260019060a0016020604051602081039080840390855afa158015612b38573d6000803e3d6000fd5b5050604051601f19015191505073ffffffffffffffffffffffffffffffffffffffff8116612b6e57600060019250925050612b75565b9150600090505b94509492505050565b6000612be0826040518060400160405280602081526020017f5361666545524332303a206c6f772d6c6576656c2063616c6c206661696c65648152508573ffffffffffffffffffffffffffffffffffffffff16612c709092919063ffffffff16565b805190915015610edb5780806020019051810190612bfe919061346e565b610edb5760405162461bcd60e51b815260206004820152602a60248201527f5361666545524332303a204552433230206f7065726174696f6e20646964206e60448201527f6f742073756363656564000000000000000000000000000000000000000000006064820152608401610e03565b60606119728484600085856000808673ffffffffffffffffffffffffffffffffffffffff168587604051612ca49190613740565b60006040518083038185875af1925050503d8060008114612ce1576040519150601f19603f3d011682016040523d82523d6000602084013e612ce6565b606091505b5091509150612cf787838387612d02565b979650505050505050565b60608315612d7e578251600003612d775773ffffffffffffffffffffffffffffffffffffffff85163b612d775760405162461bcd60e51b815260206004820152601d60248201527f416464726573733a2063616c6c20746f206e6f6e2d636f6e74726163740000006044820152606401610e03565b5081611972565b6119728383815115612d935781518083602001fd5b8060405162461bcd60e51b8152600401610e039190612e4f565b7fffffffff0000000000000000000000000000000000000000000000000000000081168114610a1f57600080fd5b600060208284031215612ded57600080fd5b8135612df881612dad565b9392505050565b60005b83811015612e1a578181015183820152602001612e02565b50506000910152565b60008151808452612e3b816020860160208601612dff565b601f01601f19169290920160200192915050565b602081526000612df86020830184612e23565b600060208284031215612e7457600080fd5b5035919050565b73ffffffffffffffffffffffffffffffffffffffff81168114610a1f57600080fd5b60008060408385031215612eb057600080fd5b8235612ebb81612e7b565b946020939093013593505050565b60008083601f840112612edb57600080fd5b50813567ffffffffffffffff811115612ef357600080fd5b60208301915083602082850101111561278e57600080fd5b600080600080600080600080600060c08a8c031215612f2957600080fd5b8935612f3481612e7b565b985060208a0135612f4481612e7b565b975060408a013567ffffffffffffffff8082168214612f6257600080fd5b90975060608b01359080821115612f7857600080fd5b612f848d838e01612ec9565b909850965060808c0135915080821115612f9d57600080fd5b612fa98d838e01612ec9565b909650945060a08c0135915080821115612fc257600080fd5b50612fcf8c828d01612ec9565b915080935050809150509295985092959850929598565b600060208284031215612ff857600080fd5b8135612df881612e7b565b60008060006060848603121561301857600080fd5b833561302381612e7b565b9250602084013561303381612e7b565b929592945050506040919091013590565b8015158114610a1f57600080fd5b6000806000806000806080878903121561306b57600080fd5b863567ffffffffffffffff8082111561308357600080fd5b61308f8a838b01612ec9565b909850965060208901359150808211156130a857600080fd5b506130b589828a01612ec9565b90955093505060408701356130c981613044565b915060608701356130d981612e7b565b809150509295509295509295565b600080602083850312156130fa57600080fd5b823567ffffffffffffffff81111561311157600080fd5b61311d85828601612ec9565b90969095509350505050565b6000806040838503121561313c57600080fd5b823561314781612e7b565b9150602083013561315781613044565b809150509250929050565b7f4e487b7100000000000000000000000000000000000000000000000000000000600052604160045260246000fd5b600080600080608085870312156131a757600080fd5b84356131b281612e7b565b935060208501356131c281612e7b565b925060408501359150606085013567ffffffffffffffff808211156131e657600080fd5b818701915087601f8301126131fa57600080fd5b81358181111561320c5761320c613162565b604051601f8201601f19908116603f0116810190838211818310171561323457613234613162565b816040528281528a602084870101111561324d57600080fd5b82602086016020830137600060208483010152809550505050505092959194509250565b6000806040838503121561328457600080fd5b823561328f81612e7b565b9150602083013561315781612e7b565b600080602083850312156132b257600080fd5b823567ffffffffffffffff808211156132ca57600080fd5b818501915085601f8301126132de57600080fd5b8135818111156132ed57600080fd5b8660208260051b850101111561330257600080fd5b60209290920196919550909350505050565b600181811c9082168061332857607f821691505b602082108103613361577f4e487b7100000000000000000000000000000000000000000000000000000000600052602260045260246000fd5b50919050565b601f821115610edb57600081815260208120601f850160051c8101602086101561338e5750805b601f850160051c820191505b81811015610d9c5782815560010161339a565b67ffffffffffffffff8311156133c5576133c5613162565b6133d9836133d38354613314565b83613367565b6000601f84116001811461340d57600085156133f55750838201355b600019600387901b1c1916600186901b178355613467565b600083815260209020601f19861690835b8281101561343e578685013582556020948501946001909201910161341e565b508682101561345b5760001960f88860031b161c19848701351681555b505060018560011b0183555b5050505050565b60006020828403121561348057600080fd5b8151612df881613044565b600080845461349981613314565b600182811680156134b157600181146134e457613513565b7fffffffffffffffffffffffffffffffffffffffffffffffffffffffffffffff0084168752821515830287019450613513565b8860005260208060002060005b8581101561350a5781548a8201529084019082016134f1565b50505082870194505b505050508351613527818360208801612dff565b01949350505050565b7f4e487b7100000000000000000000000000000000000000000000000000000000600052603260045260246000fd5b60007fffffffffffffffffffffffffffffffffffffffff000000000000000000000000808860601b1683527fffffffffffffffff0000000000000000000000000000000000000000000000008760c01b166014840152808660601b16601c8401525083603083015282516135da816050850160208701612dff565b919091016050019695505050505050565b600073ffffffffffffffffffffffffffffffffffffffff80871683528086166020840152508360408301526080606083015261362a6080830184612e23565b9695505050505050565b60006020828403121561364657600080fd5b8151612df881612dad565b815167ffffffffffffffff81111561366b5761366b613162565b61367f816136798454613314565b84613367565b602080601f8311600181146136b4576000841561369c5750858301515b600019600386901b1c1916600185901b178555610d9c565b600085815260208120601f198616915b828110156136e3578886015182559484019460019091019084016136c4565b50858210156137015787850151600019600388901b60f8161c191681555b5050505050600190811b01905550565b7f4e487b7100000000000000000000000000000000000000000000000000000000600052602160045260246000fd5b60008251613752818460208701612dff565b919091019291505056fea26469706673582212208d2a5aab03b951df326ede481ba36abea9d5d4865284d1f5849a1da7c4a20edd64736f6c63430008110033",
  "devdoc": {
    "kind": "dev",
    "methods": {
      "approve(address,uint256)": {
        "details": "Gives permission to `to` to transfer `tokenId` token to another account. See {ERC721A-_approve}. Requirements: - The caller must own the token or be an approved operator."
      },
      "balanceOf(address)": {
        "details": "Returns the number of tokens in `owner`'s account."
      },
      "isApprovedForAll(address,address)": {
        "details": "Returns if the `operator` is allowed to manage all of the assets of `owner`. See {setApprovalForAll}."
      },
      "name()": {
        "details": "Returns the token collection name."
      },
      "owner()": {
        "details": "Returns the address of the current owner."
      },
      "ownerOf(uint256)": {
        "details": "Returns the owner of the `tokenId` token. Requirements: - `tokenId` must exist."
      },
      "renounceOwnership()": {
        "details": "Leaves the contract without owner. It will not be possible to call `onlyOwner` functions anymore. Can only be called by the current owner. NOTE: Renouncing ownership will leave the contract without an owner, thereby removing any functionality that is only available to the owner."
      },
      "safeTransferFrom(address,address,uint256)": {
        "details": "Equivalent to `safeTransferFrom(from, to, tokenId, '')`."
      },
      "safeTransferFrom(address,address,uint256,bytes)": {
        "details": "Safely transfers `tokenId` token from `from` to `to`. Requirements: - `from` cannot be the zero address. - `to` cannot be the zero address. - `tokenId` token must exist and be owned by `from`. - If the caller is not `from`, it must be approved to move this token by either {approve} or {setApprovalForAll}. - If `to` refers to a smart contract, it must implement {IERC721Receiver-onERC721Received}, which is called upon a safe transfer. Emits a {Transfer} event."
      },
      "supportsInterface(bytes4)": {
        "details": "Returns true if this contract implements the interface defined by `interfaceId`. See the corresponding [EIP section](https://eips.ethereum.org/EIPS/eip-165#how-interfaces-are-identified) to learn more about how these ids are created. This function call must use less than 30000 gas."
      },
      "symbol()": {
        "details": "Returns the token collection symbol."
      },
      "tokenURI(uint256)": {
        "details": "Returns the Uniform Resource Identifier (URI) for `tokenId` token."
      },
      "totalSupply()": {
        "details": "Returns the total number of tokens in existence. Burned tokens will reduce the count. To get the total number of tokens minted, please see {_totalMinted}."
      },
      "transferFrom(address,address,uint256)": {
        "details": "Transfers `tokenId` from `from` to `to`. Requirements: - `from` cannot be the zero address. - `to` cannot be the zero address. - `tokenId` token must be owned by `from`. - If the caller is not `from`, it must be approved to move this token by either {approve} or {setApprovalForAll}. Emits a {Transfer} event."
      },
      "transferOwnership(address)": {
        "details": "Transfers ownership of the contract to a new account (`newOwner`). Can only be called by the current owner."
      }
    },
    "version": 1
  },
  "userdoc": {
    "errors": {
      "ApprovalCallerNotOwnerNorApproved()": [
        {
          "notice": "The caller must own the token or be an approved operator."
        }
      ],
      "ApprovalQueryForNonexistentToken()": [
        {
          "notice": "The token does not exist."
        }
      ],
      "BalanceQueryForZeroAddress()": [
        {
          "notice": "Cannot query the balance for the zero address."
        }
      ],
      "MintERC2309QuantityExceedsLimit()": [
        {
          "notice": "The `quantity` minted with ERC2309 exceeds the safety limit."
        }
      ],
      "MintToZeroAddress()": [
        {
          "notice": "Cannot mint to the zero address."
        }
      ],
      "MintZeroQuantity()": [
        {
          "notice": "The quantity of tokens minted must be more than zero."
        }
      ],
      "OwnerQueryForNonexistentToken()": [
        {
          "notice": "The token does not exist."
        }
      ],
      "OwnershipNotInitializedForExtraData()": [
        {
          "notice": "The `extraData` cannot be set on an unintialized ownership slot."
        }
      ],
      "TransferCallerNotOwnerNorApproved()": [
        {
          "notice": "The caller must own the token or be an approved operator."
        }
      ],
      "TransferFromIncorrectOwner()": [
        {
          "notice": "The token must be owned by `from`."
        }
      ],
      "TransferToNonERC721ReceiverImplementer()": [
        {
          "notice": "Cannot safely transfer to a contract that does not implement the ERC721Receiver interface."
        }
      ],
      "TransferToZeroAddress()": [
        {
          "notice": "Cannot transfer to the zero address."
        }
      ],
      "URIQueryForNonexistentToken()": [
        {
          "notice": "The token does not exist."
        }
      ]
    },
    "kind": "user",
    "methods": {},
    "version": 1
  },
  "storageLayout": {
    "storage": [
      {
        "astId": 834,
        "contract": "contracts/demo/LinkForge721Demo.sol:LinkForge721Demo",
        "label": "_initialized",
        "offset": 0,
        "slot": "0",
        "type": "t_uint8"
      },
      {
        "astId": 837,
        "contract": "contracts/demo/LinkForge721Demo.sol:LinkForge721Demo",
        "label": "_initializing",
        "offset": 1,
        "slot": "0",
        "type": "t_bool"
      },
      {
        "astId": 3098,
        "contract": "contracts/demo/LinkForge721Demo.sol:LinkForge721Demo",
        "label": "__gap",
        "offset": 0,
        "slot": "1",
        "type": "t_array(t_uint256)50_storage"
      },
      {
        "astId": 298,
        "contract": "contracts/demo/LinkForge721Demo.sol:LinkForge721Demo",
        "label": "_owner",
        "offset": 0,
        "slot": "51",
        "type": "t_address"
      },
      {
        "astId": 418,
        "contract": "contracts/demo/LinkForge721Demo.sol:LinkForge721Demo",
        "label": "__gap",
        "offset": 0,
        "slot": "52",
        "type": "t_array(t_uint256)49_storage"
      },
      {
        "astId": 6465,
        "contract": "contracts/demo/LinkForge721Demo.sol:LinkForge721Demo",
        "label": "baseURI",
        "offset": 0,
        "slot": "101",
        "type": "t_string_storage"
      }
    ],
    "types": {
      "t_address": {
        "encoding": "inplace",
        "label": "address",
        "numberOfBytes": "20"
      },
      "t_array(t_uint256)49_storage": {
        "base": "t_uint256",
        "encoding": "inplace",
        "label": "uint256[49]",
        "numberOfBytes": "1568"
      },
      "t_array(t_uint256)50_storage": {
        "base": "t_uint256",
        "encoding": "inplace",
        "label": "uint256[50]",
        "numberOfBytes": "1600"
      },
      "t_bool": {
        "encoding": "inplace",
        "label": "bool",
        "numberOfBytes": "1"
      },
      "t_string_storage": {
        "encoding": "bytes",
        "label": "string",
        "numberOfBytes": "32"
      },
      "t_uint256": {
        "encoding": "inplace",
        "label": "uint256",
        "numberOfBytes": "32"
      },
      "t_uint8": {
        "encoding": "inplace",
        "label": "uint8",
        "numberOfBytes": "1"
      }
    }
  }
}