{
  "address": "0xe9595dfc5765bc0C24d04Ad682f1A932310950f4",
  "abi": [
    {
      "inputs": [],
      "stateMutability": "nonpayable",
      "type": "constructor"
    },
    {
      "inputs": [],
      "name": "ApprovalCallerNotOwnerNorApproved",
      "type": "error"
    },
    {
      "inputs": [],
      "name": "ApprovalQueryForNonexistentToken",
      "type": "error"
    },
    {
      "inputs": [],
      "name": "BalanceQueryForZeroAddress",
      "type": "error"
    },
    {
      "inputs": [],
      "name": "GelatoRelayNotEnabled",
      "type": "error"
    },
    {
      "inputs": [],
      "name": "InvalidCertificate",
      "type": "error"
    },
    {
      "inputs": [],
      "name": "InvalidSignature",
      "type": "error"
    },
    {
      "inputs": [],
      "name": "MintERC2309QuantityExceedsLimit",
      "type": "error"
    },
    {
      "inputs": [],
      "name": "MintToZeroAddress",
      "type": "error"
    },
    {
      "inputs": [],
      "name": "MintZeroQuantity",
      "type": "error"
    },
    {
      "inputs": [],
      "name": "OwnerQueryForNonexistentToken",
      "type": "error"
    },
    {
      "inputs": [],
      "name": "OwnershipNotInitializedForExtraData",
      "type": "error"
    },
    {
      "inputs": [],
      "name": "TransferCallerNotOwnerNorApproved",
      "type": "error"
    },
    {
      "inputs": [],
      "name": "TransferFromIncorrectOwner",
      "type": "error"
    },
    {
      "inputs": [],
      "name": "TransferToNonERC721ReceiverImplementer",
      "type": "error"
    },
    {
      "inputs": [],
      "name": "TransferToZeroAddress",
      "type": "error"
    },
    {
      "inputs": [],
      "name": "URIQueryForNonexistentToken",
      "type": "error"
    },
    {
      "inputs": [],
      "name": "UsedSigner",
      "type": "error"
    },
    {
      "inputs": [],
      "name": "ZeroAddress",
      "type": "error"
    },
    {
      "anonymous": false,
      "inputs": [
        {
          "indexed": true,
          "internalType": "address",
          "name": "owner",
          "type": "address"
        },
        {
          "indexed": true,
          "internalType": "address",
          "name": "approved",
          "type": "address"
        },
        {
          "indexed": true,
          "internalType": "uint256",
          "name": "tokenId",
          "type": "uint256"
        }
      ],
      "name": "Approval",
      "type": "event"
    },
    {
      "anonymous": false,
      "inputs": [
        {
          "indexed": true,
          "internalType": "address",
          "name": "owner",
          "type": "address"
        },
        {
          "indexed": true,
          "internalType": "address",
          "name": "operator",
          "type": "address"
        },
        {
          "indexed": false,
          "internalType": "bool",
          "name": "approved",
          "type": "bool"
        }
      ],
      "name": "ApprovalForAll",
      "type": "event"
    },
    {
      "anonymous": false,
      "inputs": [
        {
          "indexed": true,
          "internalType": "uint256",
          "name": "fromTokenId",
          "type": "uint256"
        },
        {
          "indexed": false,
          "internalType": "uint256",
          "name": "toTokenId",
          "type": "uint256"
        },
        {
          "indexed": true,
          "internalType": "address",
          "name": "from",
          "type": "address"
        },
        {
          "indexed": true,
          "internalType": "address",
          "name": "to",
          "type": "address"
        }
      ],
      "name": "ConsecutiveTransfer",
      "type": "event"
    },
    {
      "anonymous": false,
      "inputs": [
        {
          "indexed": false,
          "internalType": "uint8",
          "name": "version",
          "type": "uint8"
        }
      ],
      "name": "Initialized",
      "type": "event"
    },
    {
      "anonymous": false,
      "inputs": [
        {
          "indexed": true,
          "internalType": "address",
          "name": "previousOwner",
          "type": "address"
        },
        {
          "indexed": true,
          "internalType": "address",
          "name": "newOwner",
          "type": "address"
        }
      ],
      "name": "OwnershipTransferred",
      "type": "event"
    },
    {
      "anonymous": false,
      "inputs": [
        {
          "indexed": true,
          "internalType": "address",
          "name": "from",
          "type": "address"
        },
        {
          "indexed": true,
          "internalType": "address",
          "name": "to",
          "type": "address"
        },
        {
          "indexed": true,
          "internalType": "uint256",
          "name": "tokenId",
          "type": "uint256"
        }
      ],
      "name": "Transfer",
      "type": "event"
    },
    {
      "inputs": [
        {
          "internalType": "address",
          "name": "to",
          "type": "address"
        },
        {
          "internalType": "uint256",
          "name": "tokenId",
          "type": "uint256"
        }
      ],
      "name": "approve",
      "outputs": [],
      "stateMutability": "payable",
      "type": "function"
    },
    {
      "inputs": [
        {
          "internalType": "address",
          "name": "owner",
          "type": "address"
        }
      ],
      "name": "balanceOf",
      "outputs": [
        {
          "internalType": "uint256",
          "name": "",
          "type": "uint256"
        }
      ],
      "stateMutability": "view",
      "type": "function"
    },
    {
      "inputs": [
        {
          "internalType": "address",
          "name": "claimant",
          "type": "address"
        },
        {
          "internalType": "address",
          "name": "signer",
          "type": "address"
        },
        {
          "internalType": "uint64",
          "name": "deadline",
          "type": "uint64"
        },
        {
          "internalType": "bytes",
          "name": "data",
          "type": "bytes"
        },
        {
          "internalType": "bytes",
          "name": "signature",
          "type": "bytes"
        },
        {
          "internalType": "bytes",
          "name": "certificate",
          "type": "bytes"
        }
      ],
      "name": "claim",
      "outputs": [],
      "stateMutability": "nonpayable",
      "type": "function"
    },
    {
      "inputs": [
        {
          "internalType": "address",
          "name": "claimant",
          "type": "address"
        },
        {
          "internalType": "address",
          "name": "signer",
          "type": "address"
        },
        {
          "internalType": "uint64",
          "name": "deadline",
          "type": "uint64"
        },
        {
          "internalType": "bytes",
          "name": "data",
          "type": "bytes"
        },
        {
          "internalType": "bytes",
          "name": "signature",
          "type": "bytes"
        },
        {
          "internalType": "bytes",
          "name": "certificate",
          "type": "bytes"
        }
      ],
      "name": "claimThroughRelay",
      "outputs": [],
      "stateMutability": "nonpayable",
      "type": "function"
    },
    {
      "inputs": [],
      "name": "gelatoRelayEnabled",
      "outputs": [
        {
          "internalType": "bool",
          "name": "",
          "type": "bool"
        }
      ],
      "stateMutability": "view",
      "type": "function"
    },
    {
      "inputs": [
        {
          "internalType": "uint256",
          "name": "tokenId",
          "type": "uint256"
        }
      ],
      "name": "getApproved",
      "outputs": [
        {
          "internalType": "address",
          "name": "",
          "type": "address"
        }
      ],
      "stateMutability": "view",
      "type": "function"
    },
    {
      "inputs": [],
      "name": "getCertificateAuthority",
      "outputs": [
        {
          "internalType": "address",
          "name": "",
          "type": "address"
        }
      ],
      "stateMutability": "view",
      "type": "function"
    },
    {
      "inputs": [
        {
          "internalType": "bool",
          "name": "gelatoRelayEnabled_",
          "type": "bool"
        },
        {
          "internalType": "string",
          "name": "name_",
          "type": "string"
        },
        {
          "internalType": "string",
          "name": "symbol_",
          "type": "string"
        }
      ],
      "name": "initialize",
      "outputs": [],
      "stateMutability": "nonpayable",
      "type": "function"
    },
    {
      "inputs": [
        {
          "internalType": "address",
          "name": "owner",
          "type": "address"
        },
        {
          "internalType": "address",
          "name": "operator",
          "type": "address"
        }
      ],
      "name": "isApprovedForAll",
      "outputs": [
        {
          "internalType": "bool",
          "name": "",
          "type": "bool"
        }
      ],
      "stateMutability": "view",
      "type": "function"
    },
    {
      "inputs": [
        {
          "internalType": "address",
          "name": "signer",
          "type": "address"
        }
      ],
      "name": "isUsedSigner",
      "outputs": [
        {
          "internalType": "bool",
          "name": "",
          "type": "bool"
        }
      ],
      "stateMutability": "view",
      "type": "function"
    },
    {
      "inputs": [],
      "name": "name",
      "outputs": [
        {
          "internalType": "string",
          "name": "",
          "type": "string"
        }
      ],
      "stateMutability": "view",
      "type": "function"
    },
    {
      "inputs": [],
      "name": "owner",
      "outputs": [
        {
          "internalType": "address",
          "name": "",
          "type": "address"
        }
      ],
      "stateMutability": "view",
      "type": "function"
    },
    {
      "inputs": [
        {
          "internalType": "uint256",
          "name": "tokenId",
          "type": "uint256"
        }
      ],
      "name": "ownerOf",
      "outputs": [
        {
          "internalType": "address",
          "name": "",
          "type": "address"
        }
      ],
      "stateMutability": "view",
      "type": "function"
    },
    {
      "inputs": [],
      "name": "renounceOwnership",
      "outputs": [],
      "stateMutability": "nonpayable",
      "type": "function"
    },
    {
      "inputs": [
        {
          "internalType": "address",
          "name": "from",
          "type": "address"
        },
        {
          "internalType": "address",
          "name": "to",
          "type": "address"
        },
        {
          "internalType": "uint256",
          "name": "tokenId",
          "type": "uint256"
        }
      ],
      "name": "safeTransferFrom",
      "outputs": [],
      "stateMutability": "payable",
      "type": "function"
    },
    {
      "inputs": [
        {
          "internalType": "address",
          "name": "from",
          "type": "address"
        },
        {
          "internalType": "address",
          "name": "to",
          "type": "address"
        },
        {
          "internalType": "uint256",
          "name": "tokenId",
          "type": "uint256"
        },
        {
          "internalType": "bytes",
          "name": "_data",
          "type": "bytes"
        }
      ],
      "name": "safeTransferFrom",
      "outputs": [],
      "stateMutability": "payable",
      "type": "function"
    },
    {
      "inputs": [
        {
          "internalType": "address",
          "name": "operator",
          "type": "address"
        },
        {
          "internalType": "bool",
          "name": "approved",
          "type": "bool"
        }
      ],
      "name": "setApprovalForAll",
      "outputs": [],
      "stateMutability": "nonpayable",
      "type": "function"
    },
    {
      "inputs": [
        {
          "internalType": "address",
          "name": "certificateAuthority_",
          "type": "address"
        }
      ],
      "name": "setCertificateAuthority",
      "outputs": [],
      "stateMutability": "nonpayable",
      "type": "function"
    },
    {
      "inputs": [
        {
          "internalType": "bytes4",
          "name": "interfaceId",
          "type": "bytes4"
        }
      ],
      "name": "supportsInterface",
      "outputs": [
        {
          "internalType": "bool",
          "name": "",
          "type": "bool"
        }
      ],
      "stateMutability": "view",
      "type": "function"
    },
    {
      "inputs": [],
      "name": "symbol",
      "outputs": [
        {
          "internalType": "string",
          "name": "",
          "type": "string"
        }
      ],
      "stateMutability": "view",
      "type": "function"
    },
    {
      "inputs": [
        {
          "internalType": "uint256",
          "name": "tokenId",
          "type": "uint256"
        }
      ],
      "name": "tokenURI",
      "outputs": [
        {
          "internalType": "string",
          "name": "",
          "type": "string"
        }
      ],
      "stateMutability": "view",
      "type": "function"
    },
    {
      "inputs": [],
      "name": "totalSupply",
      "outputs": [
        {
          "internalType": "uint256",
          "name": "",
          "type": "uint256"
        }
      ],
      "stateMutability": "view",
      "type": "function"
    },
    {
      "inputs": [
        {
          "internalType": "address",
          "name": "from",
          "type": "address"
        },
        {
          "internalType": "address",
          "name": "to",
          "type": "address"
        },
        {
          "internalType": "uint256",
          "name": "tokenId",
          "type": "uint256"
        }
      ],
      "name": "transferFrom",
      "outputs": [],
      "stateMutability": "payable",
      "type": "function"
    },
    {
      "inputs": [
        {
          "internalType": "address",
          "name": "newOwner",
          "type": "address"
        }
      ],
      "name": "transferOwnership",
      "outputs": [],
      "stateMutability": "nonpayable",
      "type": "function"
    },
    {
      "inputs": [
        {
          "internalType": "uint256",
          "name": "amount",
          "type": "uint256"
        }
      ],
      "name": "withdraw",
      "outputs": [],
      "stateMutability": "nonpayable",
      "type": "function"
    },
    {
      "inputs": [
        {
          "internalType": "contract IERC20",
          "name": "token",
          "type": "address"
        },
        {
          "internalType": "uint256",
          "name": "amount",
          "type": "uint256"
        }
      ],
      "name": "withdrawERC20",
      "outputs": [],
      "stateMutability": "nonpayable",
      "type": "function"
    },
    {
      "stateMutability": "payable",
      "type": "receive"
    }
  ],
  "transactionHash": "0xf4a814389532b4500a0c4d4b5bd3a87016639e1265fc1be9d6720bf803273256",
  "args": [],
  "numDeployments": 1,
  "solcInputHash": "8f5f09e1a7a354ae5c85fab8b0ba16d8",
  "bytecode": "0x60806040523480156200001157600080fd5b506200001c62000022565b620000e4565b600054610100900460ff16156200008f5760405162461bcd60e51b815260206004820152602760248201527f496e697469616c697a61626c653a20636f6e747261637420697320696e697469604482015266616c697a696e6760c81b606482015260840160405180910390fd5b60005460ff9081161015620000e2576000805460ff191660ff9081179091556040519081527f7f26b83ff96e1f2b6a682f133852f6798a09c465da95921460cefb38474024989060200160405180910390a15b565b61310480620000f46000396000f3fe6080604052600436106101a55760003560e01c806342d3ce99116100e1578063a1db97821161008a578063c87b56dd11610064578063c87b56dd146104e7578063d1bd74091461053a578063e985e9c514610554578063f2fde38b146105c957600080fd5b8063a1db978214610494578063a22cb465146104b4578063b88d4fde146104d457600080fd5b8063715018a6116100bb578063715018a61461043f5780638da5cb5b1461045457806395d89b411461047f57600080fd5b806342d3ce99146103cf5780636352211e146103ff57806370a082311461041f57600080fd5b806318160ddd1161014e5780632be55b9b116101285780632be55b9b1461035c5780632c8e04151461037c5780632e1a7d4d1461039c57806342842e0e146103bc57600080fd5b806318160ddd146102c85780631b50764d1461032957806323b872dd1461034957600080fd5b8063095ea7b31161017f578063095ea7b31461024d5780630fbee14114610262578063150b7b6d1461028257600080fd5b806301ffc9a7146101b157806306fdde03146101e6578063081812fc1461020857600080fd5b366101ac57005b600080fd5b3480156101bd57600080fd5b506101d16101cc36600461296f565b6105e9565b60405190151581526020015b60405180910390f35b3480156101f257600080fd5b506101fb6106ce565b6040516101dd91906129e3565b34801561021457600080fd5b506102286102233660046129f6565b610782565b60405173ffffffffffffffffffffffffffffffffffffffff90911681526020016101dd565b61026061025b366004612a31565b61080b565b005b34801561026e57600080fd5b5061026061027d366004612a9f565b61081b565b34801561028e57600080fd5b506101d161029d366004612b7a565b73ffffffffffffffffffffffffffffffffffffffff1660009081526066602052604090205460ff1690565b3480156102d457600080fd5b507f2569078dfb4b0305704d3008e7403993ae9601b85f7ae5e742de3de8f8011c41547f2569078dfb4b0305704d3008e7403993ae9601b85f7ae5e742de3de8f8011c4054035b6040519081526020016101dd565b34801561033557600080fd5b50610260610344366004612b7a565b610965565b610260610357366004612b97565b610979565b34801561036857600080fd5b50610260610377366004612a9f565b610d0c565b34801561038857600080fd5b50610260610397366004612be6565b610dd4565b3480156103a857600080fd5b506102606103b73660046129f6565b611188565b6102606103ca366004612b97565b6111bd565b3480156103db57600080fd5b50606554610100900473ffffffffffffffffffffffffffffffffffffffff16610228565b34801561040b57600080fd5b5061022861041a3660046129f6565b6111dd565b34801561042b57600080fd5b5061031b61043a366004612b7a565b6111e8565b34801561044b57600080fd5b50610260611289565b34801561046057600080fd5b5060335473ffffffffffffffffffffffffffffffffffffffff16610228565b34801561048b57600080fd5b506101fb61129d565b3480156104a057600080fd5b506102606104af366004612a31565b6112ce565b3480156104c057600080fd5b506102606104cf366004612c69565b611373565b6102606104e2366004612cd1565b611429565b3480156104f357600080fd5b506101fb6105023660046129f6565b5060408051808201909152600781527f697066733a2f2f00000000000000000000000000000000000000000000000000602082015290565b34801561054657600080fd5b506065546101d19060ff1681565b34801561056057600080fd5b506101d161056f366004612db1565b73ffffffffffffffffffffffffffffffffffffffff91821660009081527f2569078dfb4b0305704d3008e7403993ae9601b85f7ae5e742de3de8f8011c476020908152604080832093909416825291909152205460ff1690565b3480156105d557600080fd5b506102606105e4366004612b7a565b611499565b60007f01ffc9a7000000000000000000000000000000000000000000000000000000007fffffffff000000000000000000000000000000000000000000000000000000008316148061067c57507f80ac58cd000000000000000000000000000000000000000000000000000000007fffffffff000000000000000000000000000000000000000000000000000000008316145b806106c857507f5b5e139f000000000000000000000000000000000000000000000000000000007fffffffff000000000000000000000000000000000000000000000000000000008316145b92915050565b60607f2569078dfb4b0305704d3008e7403993ae9601b85f7ae5e742de3de8f8011c4060020180546106ff90612ddf565b80601f016020809104026020016040519081016040528092919081815260200182805461072b90612ddf565b80156107785780601f1061074d57610100808354040283529160200191610778565b820191906000526020600020905b81548152906001019060200180831161075b57829003601f168201915b5050505050905090565b600061078d82611533565b6107c3576040517fcf4700e400000000000000000000000000000000000000000000000000000000815260040160405180910390fd5b5060009081527f2569078dfb4b0305704d3008e7403993ae9601b85f7ae5e742de3de8f8011c46602052604090205473ffffffffffffffffffffffffffffffffffffffff1690565b610817828260016115b2565b5050565b6000610892898989898080601f01602080910402602001604051908101604052809392919081815260200183838082843760009201919091525050604080516020601f8b01819004810282018101909252898152925089915088908190840183828082843760009201919091525061170c92505050565b90506108a18a828b8888611851565b73ffffffffffffffffffffffffffffffffffffffff891660009081526066602052604090205460ff1615610900576040517e11115500000000000000000000000000000000000000000000000000000000815260040160405180910390fd5b73ffffffffffffffffffffffffffffffffffffffff8916600090815260666020526040902080547fffffffffffffffffffffffffffffffffffffffffffffffffffffffffffffff001660011790556109598a888861193c565b50505050505050505050565b61096d611947565b610976816119ae565b50565b600061098482611a47565b90508373ffffffffffffffffffffffffffffffffffffffff168173ffffffffffffffffffffffffffffffffffffffff16146109eb576040517fa114810000000000000000000000000000000000000000000000000000000000815260040160405180910390fd5b60008281527f2569078dfb4b0305704d3008e7403993ae9601b85f7ae5e742de3de8f8011c466020526040902080543380821473ffffffffffffffffffffffffffffffffffffffff881690911417610ac65773ffffffffffffffffffffffffffffffffffffffff861660009081527f2569078dfb4b0305704d3008e7403993ae9601b85f7ae5e742de3de8f8011c476020908152604080832033845290915290205460ff16610ac6576040517f59c896be00000000000000000000000000000000000000000000000000000000815260040160405180910390fd5b73ffffffffffffffffffffffffffffffffffffffff8516610b13576040517fea553b3400000000000000000000000000000000000000000000000000000000815260040160405180910390fd5b8015610b1e57600082555b73ffffffffffffffffffffffffffffffffffffffff86811660009081527f2569078dfb4b0305704d3008e7403993ae9601b85f7ae5e742de3de8f8011c45602052604080822080547fffffffffffffffffffffffffffffffffffffffffffffffffffffffffffffffff019055918716808252919020805460010190554260a01b177c02000000000000000000000000000000000000000000000000000000001760008581527f2569078dfb4b0305704d3008e7403993ae9601b85f7ae5e742de3de8f8011c4460205260408120919091557c020000000000000000000000000000000000000000000000000000000084169003610ca8576001840160008181527f2569078dfb4b0305704d3008e7403993ae9601b85f7ae5e742de3de8f8011c4460205260408120549003610ca6577f2569078dfb4b0305704d3008e7403993ae9601b85f7ae5e742de3de8f8011c40548114610ca65760008181527f2569078dfb4b0305704d3008e7403993ae9601b85f7ae5e742de3de8f8011c44602052604090208490555b505b838573ffffffffffffffffffffffffffffffffffffffff168773ffffffffffffffffffffffffffffffffffffffff167fddf252ad1be2c89b69c2b068fc378daa952ba7f163c4a11628f55a4df523b3ef60405160405180910390a45b505050505050565b73abcc9b596420a9e9172fd5938620e265a0f9df923314610d745760405162461bcd60e51b815260206004820152600f60248201527f6f6e6c7947656c61746f52656c6179000000000000000000000000000000000060448201526064015b60405180910390fd5b60655460ff16610db0576040517fcd364b1700000000000000000000000000000000000000000000000000000000815260040160405180910390fd5b610dc189898989898989898961081b565b610dc9611b8d565b505050505050505050565b7fee151c8401928dc223602bb187aff91b9a56c7cae5476ef1b3287b085a16c85f54610100900460ff16610e2d577fee151c8401928dc223602bb187aff91b9a56c7cae5476ef1b3287b085a16c85f5460ff1615610e31565b303b155b610ea35760405162461bcd60e51b815260206004820152603760248201527f455243373231415f5f496e697469616c697a61626c653a20636f6e747261637460448201527f20697320616c726561647920696e697469616c697a65640000000000000000006064820152608401610d6b565b7fee151c8401928dc223602bb187aff91b9a56c7cae5476ef1b3287b085a16c85f54610100900460ff16158015610f20577fee151c8401928dc223602bb187aff91b9a56c7cae5476ef1b3287b085a16c85f80547fffffffffffffffffffffffffffffffffffffffffffffffffffffffffffff0000166101011790555b600054610100900460ff1615808015610f405750600054600160ff909116105b80610f5a5750303b158015610f5a575060005460ff166001145b610fcc5760405162461bcd60e51b815260206004820152602e60248201527f496e697469616c697a61626c653a20636f6e747261637420697320616c72656160448201527f647920696e697469616c697a65640000000000000000000000000000000000006064820152608401610d6b565b600080547fffffffffffffffffffffffffffffffffffffffffffffffffffffffffffffff00166001179055801561102a57600080547fffffffffffffffffffffffffffffffffffffffffffffffffffffffffffff00ff166101001790555b606580547fffffffffffffffffffffffffffffffffffffffffffffffffffffffffffffff0016881515179055604080516020601f88018190048102820181019092528681526110c791889088908190840183828082843760009201919091525050604080516020601f8a018190048102820181019092528881529250889150879081908401838280828437600092019190915250611c0192505050565b6110cf611ca7565b801561113257600080547fffffffffffffffffffffffffffffffffffffffffffffffffffffffffffff00ff169055604051600181527f7f26b83ff96e1f2b6a682f133852f6798a09c465da95921460cefb38474024989060200160405180910390a15b508015610d045750507fee151c8401928dc223602bb187aff91b9a56c7cae5476ef1b3287b085a16c85f80547fffffffffffffffffffffffffffffffffffffffffffffffffffffffffffff00ff16905550505050565b611190611947565b604051339082156108fc029083906000818181858888f19350505050158015610817573d6000803e3d6000fd5b6111d883838360405180602001604052806000815250611429565b505050565b60006106c882611a47565b600073ffffffffffffffffffffffffffffffffffffffff8216611237576040517f8f4eb60400000000000000000000000000000000000000000000000000000000815260040160405180910390fd5b5073ffffffffffffffffffffffffffffffffffffffff1660009081527f2569078dfb4b0305704d3008e7403993ae9601b85f7ae5e742de3de8f8011c45602052604090205467ffffffffffffffff1690565b611291611947565b61129b6000611d2c565b565b60607f2569078dfb4b0305704d3008e7403993ae9601b85f7ae5e742de3de8f8011c4060030180546106ff90612ddf565b6112d6611947565b6040517f23b872dd0000000000000000000000000000000000000000000000000000000081523060048201523360248201526044810182905273ffffffffffffffffffffffffffffffffffffffff8316906323b872dd906064016020604051808303816000875af115801561134f573d6000803e3d6000fd5b505050506040513d601f19601f820116820180604052508101906111d89190612e32565b3360008181527f2569078dfb4b0305704d3008e7403993ae9601b85f7ae5e742de3de8f8011c476020908152604080832073ffffffffffffffffffffffffffffffffffffffff87168085529083529281902080547fffffffffffffffffffffffffffffffffffffffffffffffffffffffffffffff001686151590811790915590519081529192917f17307eab39ab6107e8899845ad3d59bd9653f200f220920489ca2b5937696c31910160405180910390a35050565b611434848484610979565b73ffffffffffffffffffffffffffffffffffffffff83163b156114935761145d84848484611da3565b611493576040517fd1a57ed600000000000000000000000000000000000000000000000000000000815260040160405180910390fd5b50505050565b6114a1611947565b73ffffffffffffffffffffffffffffffffffffffff811661152a5760405162461bcd60e51b815260206004820152602660248201527f4f776e61626c653a206e6577206f776e657220697320746865207a65726f206160448201527f64647265737300000000000000000000000000000000000000000000000000006064820152608401610d6b565b61097681611d2c565b60007f2569078dfb4b0305704d3008e7403993ae9601b85f7ae5e742de3de8f8011c4054821080156106c857505060009081527f2569078dfb4b0305704d3008e7403993ae9601b85f7ae5e742de3de8f8011c4460205260409020547c0100000000000000000000000000000000000000000000000000000000161590565b60006115bd836111dd565b9050811561166b573373ffffffffffffffffffffffffffffffffffffffff82161461166b5773ffffffffffffffffffffffffffffffffffffffff811660009081527f2569078dfb4b0305704d3008e7403993ae9601b85f7ae5e742de3de8f8011c476020908152604080832033845290915290205460ff1661166b576040517fcfb3b94200000000000000000000000000000000000000000000000000000000815260040160405180910390fd5b60008381527f2569078dfb4b0305704d3008e7403993ae9601b85f7ae5e742de3de8f8011c46602052604080822080547fffffffffffffffffffffffff00000000000000000000000000000000000000001673ffffffffffffffffffffffffffffffffffffffff88811691821790925591518693918516917f8c5be1e5ebec7d5bd14f71427d1e84f3dd0314c0f7b2291e5b200ac8c7c3b92591a450505050565b60008061178b868630468860405160200161172b959493929190612e4f565b60408051601f1981840301815282825280516020918201207f19457468657265756d205369676e6564204d6573736167653a0a33320000000084830152603c8085019190915282518085039091018152605c909301909152815191012090565b9050428567ffffffffffffffff1610156117d1576040517f1d39f94600000000000000000000000000000000000000000000000000000000815260040160405180910390fd5b606554610100900473ffffffffffffffffffffffffffffffffffffffff166117f98285611efb565b73ffffffffffffffffffffffffffffffffffffffff1614611846576040517f1d39f94600000000000000000000000000000000000000000000000000000000815260040160405180910390fd5b90505b949350505050565b6040517fffffffffffffffffffffffffffffffffffffffff000000000000000000000000606087901b166020820152603481018590526000906118969060540161172b565b90508373ffffffffffffffffffffffffffffffffffffffff166118ef8285858080601f016020809104026020016040519081016040528093929190818152602001838380828437600092019190915250611efb92505050565b73ffffffffffffffffffffffffffffffffffffffff1614610d04576040517f8baa579f00000000000000000000000000000000000000000000000000000000815260040160405180910390fd5b6111d8836001611f1f565b60335473ffffffffffffffffffffffffffffffffffffffff16331461129b5760405162461bcd60e51b815260206004820181905260248201527f4f776e61626c653a2063616c6c6572206973206e6f7420746865206f776e65726044820152606401610d6b565b73ffffffffffffffffffffffffffffffffffffffff81166119fb576040517fd92e233d00000000000000000000000000000000000000000000000000000000815260040160405180910390fd5b6065805473ffffffffffffffffffffffffffffffffffffffff909216610100027fffffffffffffffffffffff0000000000000000000000000000000000000000ff909216919091179055565b60008181527f2569078dfb4b0305704d3008e7403993ae9601b85f7ae5e742de3de8f8011c446020526040812054907c010000000000000000000000000000000000000000000000000000000082169003611b5b5780600003611b56577f2569078dfb4b0305704d3008e7403993ae9601b85f7ae5e742de3de8f8011c40548210611afe576040517fdf2d9b4200000000000000000000000000000000000000000000000000000000815260040160405180910390fd5b507fffffffffffffffffffffffffffffffffffffffffffffffffffffffffffffffff0160008181527f2569078dfb4b0305704d3008e7403993ae9601b85f7ae5e742de3de8f8011c4460205260409020548015611afe575b919050565b6040517fdf2d9b4200000000000000000000000000000000000000000000000000000000815260040160405180910390fd5b61129b367fffffffffffffffffffffffffffffffffffffffffffffffffffffffffffffffb8013560601c36601f190135367fffffffffffffffffffffffffffffffffffffffffffffffffffffffffffffffcc013560601c73ffffffffffffffffffffffffffffffffffffffff1691906120d9565b7fee151c8401928dc223602bb187aff91b9a56c7cae5476ef1b3287b085a16c85f54610100900460ff16611c9d5760405162461bcd60e51b815260206004820152603460248201527f455243373231415f5f496e697469616c697a61626c653a20636f6e747261637460448201527f206973206e6f7420696e697469616c697a696e670000000000000000000000006064820152608401610d6b565b6108178282612142565b600054610100900460ff16611d245760405162461bcd60e51b815260206004820152602b60248201527f496e697469616c697a61626c653a20636f6e7472616374206973206e6f74206960448201527f6e697469616c697a696e670000000000000000000000000000000000000000006064820152608401610d6b565b61129b61225e565b6033805473ffffffffffffffffffffffffffffffffffffffff8381167fffffffffffffffffffffffff0000000000000000000000000000000000000000831681179093556040519116919082907f8be0079c531659141344cd1fd0a4f28419497f9722a3daafe3b4186f6b6457e090600090a35050565b6040517f150b7a0200000000000000000000000000000000000000000000000000000000815260009073ffffffffffffffffffffffffffffffffffffffff85169063150b7a0290611dfe903390899088908890600401612edb565b6020604051808303816000875af1925050508015611e39575060408051601f3d908101601f19168201909252611e3691810190612f24565b60015b611eb0573d808015611e67576040519150601f19603f3d011682016040523d82523d6000602084013e611e6c565b606091505b508051600003611ea8576040517fd1a57ed600000000000000000000000000000000000000000000000000000000815260040160405180910390fd5b805181602001fd5b7fffffffff00000000000000000000000000000000000000000000000000000000167f150b7a0200000000000000000000000000000000000000000000000000000000149050611849565b6000806000611f0a85856122e4565b91509150611f1781612329565b509392505050565b7f2569078dfb4b0305704d3008e7403993ae9601b85f7ae5e742de3de8f8011c40546000829003611f7c576040517fb562e8dd00000000000000000000000000000000000000000000000000000000815260040160405180910390fd5b73ffffffffffffffffffffffffffffffffffffffff831660008181527f2569078dfb4b0305704d3008e7403993ae9601b85f7ae5e742de3de8f8011c456020908152604080832080546801000000000000000188020190558483527f2569078dfb4b0305704d3008e7403993ae9601b85f7ae5e742de3de8f8011c4490915281206001851460e11b4260a01b178317905582840190839083907fddf252ad1be2c89b69c2b068fc378daa952ba7f163c4a11628f55a4df523b3ef8180a4600183015b81811461207657808360007fddf252ad1be2c89b69c2b068fc378daa952ba7f163c4a11628f55a4df523b3ef600080a460010161203e565b50816000036120b1576040517f2e07630000000000000000000000000000000000000000000000000000000000815260040160405180910390fd5b7f2569078dfb4b0305704d3008e7403993ae9601b85f7ae5e742de3de8f8011c405550505050565b806000036120e657505050565b73ffffffffffffffffffffffffffffffffffffffff831673eeeeeeeeeeeeeeeeeeeeeeeeeeeeeeeeeeeeeeee14612138576111d873ffffffffffffffffffffffffffffffffffffffff8416838361248e565b6111d8828261251b565b7fee151c8401928dc223602bb187aff91b9a56c7cae5476ef1b3287b085a16c85f54610100900460ff166121de5760405162461bcd60e51b815260206004820152603460248201527f455243373231415f5f496e697469616c697a61626c653a20636f6e747261637460448201527f206973206e6f7420696e697469616c697a696e670000000000000000000000006064820152608401610d6b565b7f2569078dfb4b0305704d3008e7403993ae9601b85f7ae5e742de3de8f8011c426122098382612f87565b507f2569078dfb4b0305704d3008e7403993ae9601b85f7ae5e742de3de8f8011c436122358282612f87565b5060007f2569078dfb4b0305704d3008e7403993ae9601b85f7ae5e742de3de8f8011c40555050565b600054610100900460ff166122db5760405162461bcd60e51b815260206004820152602b60248201527f496e697469616c697a61626c653a20636f6e7472616374206973206e6f74206960448201527f6e697469616c697a696e670000000000000000000000000000000000000000006064820152608401610d6b565b61129b33611d2c565b600080825160410361231a5760208301516040840151606085015160001a61230e87828585612641565b94509450505050612322565b506000905060025b9250929050565b600081600481111561233d5761233d613083565b036123455750565b600181600481111561235957612359613083565b036123a65760405162461bcd60e51b815260206004820152601860248201527f45434453413a20696e76616c6964207369676e617475726500000000000000006044820152606401610d6b565b60028160048111156123ba576123ba613083565b036124075760405162461bcd60e51b815260206004820152601f60248201527f45434453413a20696e76616c6964207369676e6174757265206c656e677468006044820152606401610d6b565b600381600481111561241b5761241b613083565b036109765760405162461bcd60e51b815260206004820152602260248201527f45434453413a20696e76616c6964207369676e6174757265202773272076616c60448201527f75650000000000000000000000000000000000000000000000000000000000006064820152608401610d6b565b6040805173ffffffffffffffffffffffffffffffffffffffff8416602482015260448082018490528251808303909101815260649091019091526020810180517bffffffffffffffffffffffffffffffffffffffffffffffffffffffff167fa9059cbb000000000000000000000000000000000000000000000000000000001790526111d8908490612712565b8047101561256b5760405162461bcd60e51b815260206004820152601d60248201527f416464726573733a20696e73756666696369656e742062616c616e63650000006044820152606401610d6b565b60008273ffffffffffffffffffffffffffffffffffffffff168260405160006040518083038185875af1925050503d80600081146125c5576040519150601f19603f3d011682016040523d82523d6000602084013e6125ca565b606091505b50509050806111d85760405162461bcd60e51b815260206004820152603a60248201527f416464726573733a20756e61626c6520746f2073656e642076616c75652c207260448201527f6563697069656e74206d617920686176652072657665727465640000000000006064820152608401610d6b565b6000807f7fffffffffffffffffffffffffffffff5d576e7357a4501ddfe92f46681b20a08311156126785750600090506003612709565b6040805160008082526020820180845289905260ff881692820192909252606081018690526080810185905260019060a0016020604051602081039080840390855afa1580156126cc573d6000803e3d6000fd5b5050604051601f19015191505073ffffffffffffffffffffffffffffffffffffffff811661270257600060019250925050612709565b9150600090505b94509492505050565b6000612774826040518060400160405280602081526020017f5361666545524332303a206c6f772d6c6576656c2063616c6c206661696c65648152508573ffffffffffffffffffffffffffffffffffffffff166128049092919063ffffffff16565b8051909150156111d857808060200190518101906127929190612e32565b6111d85760405162461bcd60e51b815260206004820152602a60248201527f5361666545524332303a204552433230206f7065726174696f6e20646964206e60448201527f6f742073756363656564000000000000000000000000000000000000000000006064820152608401610d6b565b60606118498484600085856000808673ffffffffffffffffffffffffffffffffffffffff16858760405161283891906130b2565b60006040518083038185875af1925050503d8060008114612875576040519150601f19603f3d011682016040523d82523d6000602084013e61287a565b606091505b509150915061288b87838387612896565b979650505050505050565b6060831561291257825160000361290b5773ffffffffffffffffffffffffffffffffffffffff85163b61290b5760405162461bcd60e51b815260206004820152601d60248201527f416464726573733a2063616c6c20746f206e6f6e2d636f6e74726163740000006044820152606401610d6b565b5081611849565b61184983838151156129275781518083602001fd5b8060405162461bcd60e51b8152600401610d6b91906129e3565b7fffffffff000000000000000000000000000000000000000000000000000000008116811461097657600080fd5b60006020828403121561298157600080fd5b813561298c81612941565b9392505050565b60005b838110156129ae578181015183820152602001612996565b50506000910152565b600081518084526129cf816020860160208601612993565b601f01601f19169290920160200192915050565b60208152600061298c60208301846129b7565b600060208284031215612a0857600080fd5b5035919050565b73ffffffffffffffffffffffffffffffffffffffff8116811461097657600080fd5b60008060408385031215612a4457600080fd5b8235612a4f81612a0f565b946020939093013593505050565b60008083601f840112612a6f57600080fd5b50813567ffffffffffffffff811115612a8757600080fd5b60208301915083602082850101111561232257600080fd5b600080600080600080600080600060c08a8c031215612abd57600080fd5b8935612ac881612a0f565b985060208a0135612ad881612a0f565b975060408a013567ffffffffffffffff8082168214612af657600080fd5b90975060608b01359080821115612b0c57600080fd5b612b188d838e01612a5d565b909850965060808c0135915080821115612b3157600080fd5b612b3d8d838e01612a5d565b909650945060a08c0135915080821115612b5657600080fd5b50612b638c828d01612a5d565b915080935050809150509295985092959850929598565b600060208284031215612b8c57600080fd5b813561298c81612a0f565b600080600060608486031215612bac57600080fd5b8335612bb781612a0f565b92506020840135612bc781612a0f565b929592945050506040919091013590565b801515811461097657600080fd5b600080600080600060608688031215612bfe57600080fd5b8535612c0981612bd8565b9450602086013567ffffffffffffffff80821115612c2657600080fd5b612c3289838a01612a5d565b90965094506040880135915080821115612c4b57600080fd5b50612c5888828901612a5d565b969995985093965092949392505050565b60008060408385031215612c7c57600080fd5b8235612c8781612a0f565b91506020830135612c9781612bd8565b809150509250929050565b7f4e487b7100000000000000000000000000000000000000000000000000000000600052604160045260246000fd5b60008060008060808587031215612ce757600080fd5b8435612cf281612a0f565b93506020850135612d0281612a0f565b925060408501359150606085013567ffffffffffffffff80821115612d2657600080fd5b818701915087601f830112612d3a57600080fd5b813581811115612d4c57612d4c612ca2565b604051601f8201601f19908116603f01168101908382118183101715612d7457612d74612ca2565b816040528281528a6020848701011115612d8d57600080fd5b82602086016020830137600060208483010152809550505050505092959194509250565b60008060408385031215612dc457600080fd5b8235612dcf81612a0f565b91506020830135612c9781612a0f565b600181811c90821680612df357607f821691505b602082108103612e2c577f4e487b7100000000000000000000000000000000000000000000000000000000600052602260045260246000fd5b50919050565b600060208284031215612e4457600080fd5b815161298c81612bd8565b60007fffffffffffffffffffffffffffffffffffffffff000000000000000000000000808860601b1683527fffffffffffffffff0000000000000000000000000000000000000000000000008760c01b166014840152808660601b16601c840152508360308301528251612eca816050850160208701612993565b919091016050019695505050505050565b600073ffffffffffffffffffffffffffffffffffffffff808716835280861660208401525083604083015260806060830152612f1a60808301846129b7565b9695505050505050565b600060208284031215612f3657600080fd5b815161298c81612941565b601f8211156111d857600081815260208120601f850160051c81016020861015612f685750805b601f850160051c820191505b81811015610d0457828155600101612f74565b815167ffffffffffffffff811115612fa157612fa1612ca2565b612fb581612faf8454612ddf565b84612f41565b602080601f8311600181146130085760008415612fd25750858301515b7fffffffffffffffffffffffffffffffffffffffffffffffffffffffffffffffff600386901b1c1916600185901b178555610d04565b600085815260208120601f198616915b8281101561303757888601518255948401946001909101908401613018565b508582101561307357878501517fffffffffffffffffffffffffffffffffffffffffffffffffffffffffffffffff600388901b60f8161c191681555b5050505050600190811b01905550565b7f4e487b7100000000000000000000000000000000000000000000000000000000600052602160045260246000fd5b600082516130c4818460208701612993565b919091019291505056fea2646970667358221220cceb3a7b0fbdcbc8c0d4c978f2562de1dcefe8b818912e428aa5ea6fa8f8b5a564736f6c63430008110033",
  "devdoc": {
    "kind": "dev",
    "methods": {
      "approve(address,uint256)": {
        "details": "Gives permission to `to` to transfer `tokenId` token to another account. See {ERC721A-_approve}. Requirements: - The caller must own the token or be an approved operator."
      },
      "balanceOf(address)": {
        "details": "Returns the number of tokens in `owner`'s account."
      },
      "getApproved(uint256)": {
        "details": "Returns the account approved for `tokenId` token. Requirements: - `tokenId` must exist."
      },
      "isApprovedForAll(address,address)": {
        "details": "Returns if the `operator` is allowed to manage all of the assets of `owner`. See {setApprovalForAll}."
      },
      "name()": {
        "details": "Returns the token collection name."
      },
      "owner()": {
        "details": "Returns the address of the current owner."
      },
      "ownerOf(uint256)": {
        "details": "Returns the owner of the `tokenId` token. Requirements: - `tokenId` must exist."
      },
      "renounceOwnership()": {
        "details": "Leaves the contract without owner. It will not be possible to call `onlyOwner` functions anymore. Can only be called by the current owner. NOTE: Renouncing ownership will leave the contract without an owner, thereby removing any functionality that is only available to the owner."
      },
      "safeTransferFrom(address,address,uint256)": {
        "details": "Equivalent to `safeTransferFrom(from, to, tokenId, '')`."
      },
      "safeTransferFrom(address,address,uint256,bytes)": {
        "details": "Safely transfers `tokenId` token from `from` to `to`. Requirements: - `from` cannot be the zero address. - `to` cannot be the zero address. - `tokenId` token must exist and be owned by `from`. - If the caller is not `from`, it must be approved to move this token by either {approve} or {setApprovalForAll}. - If `to` refers to a smart contract, it must implement {IERC721Receiver-onERC721Received}, which is called upon a safe transfer. Emits a {Transfer} event."
      },
      "setApprovalForAll(address,bool)": {
        "details": "Approve or remove `operator` as an operator for the caller. Operators can call {transferFrom} or {safeTransferFrom} for any token owned by the caller. Requirements: - The `operator` cannot be the caller. Emits an {ApprovalForAll} event."
      },
      "supportsInterface(bytes4)": {
        "details": "Returns true if this contract implements the interface defined by `interfaceId`. See the corresponding [EIP section](https://eips.ethereum.org/EIPS/eip-165#how-interfaces-are-identified) to learn more about how these ids are created. This function call must use less than 30000 gas."
      },
      "symbol()": {
        "details": "Returns the token collection symbol."
      },
      "tokenURI(uint256)": {
        "details": "Returns the Uniform Resource Identifier (URI) for `tokenId` token."
      },
      "totalSupply()": {
        "details": "Returns the total number of tokens in existence. Burned tokens will reduce the count. To get the total number of tokens minted, please see {_totalMinted}."
      },
      "transferFrom(address,address,uint256)": {
        "details": "Transfers `tokenId` from `from` to `to`. Requirements: - `from` cannot be the zero address. - `to` cannot be the zero address. - `tokenId` token must be owned by `from`. - If the caller is not `from`, it must be approved to move this token by either {approve} or {setApprovalForAll}. Emits a {Transfer} event."
      },
      "transferOwnership(address)": {
        "details": "Transfers ownership of the contract to a new account (`newOwner`). Can only be called by the current owner."
      }
    },
    "version": 1
  },
  "userdoc": {
    "errors": {
      "ApprovalCallerNotOwnerNorApproved()": [
        {
          "notice": "The caller must own the token or be an approved operator."
        }
      ],
      "ApprovalQueryForNonexistentToken()": [
        {
          "notice": "The token does not exist."
        }
      ],
      "BalanceQueryForZeroAddress()": [
        {
          "notice": "Cannot query the balance for the zero address."
        }
      ],
      "MintERC2309QuantityExceedsLimit()": [
        {
          "notice": "The `quantity` minted with ERC2309 exceeds the safety limit."
        }
      ],
      "MintToZeroAddress()": [
        {
          "notice": "Cannot mint to the zero address."
        }
      ],
      "MintZeroQuantity()": [
        {
          "notice": "The quantity of tokens minted must be more than zero."
        }
      ],
      "OwnerQueryForNonexistentToken()": [
        {
          "notice": "The token does not exist."
        }
      ],
      "OwnershipNotInitializedForExtraData()": [
        {
          "notice": "The `extraData` cannot be set on an unintialized ownership slot."
        }
      ],
      "TransferCallerNotOwnerNorApproved()": [
        {
          "notice": "The caller must own the token or be an approved operator."
        }
      ],
      "TransferFromIncorrectOwner()": [
        {
          "notice": "The token must be owned by `from`."
        }
      ],
      "TransferToNonERC721ReceiverImplementer()": [
        {
          "notice": "Cannot safely transfer to a contract that does not implement the ERC721Receiver interface."
        }
      ],
      "TransferToZeroAddress()": [
        {
          "notice": "Cannot transfer to the zero address."
        }
      ],
      "URIQueryForNonexistentToken()": [
        {
          "notice": "The token does not exist."
        }
      ]
    },
    "kind": "user",
    "methods": {},
    "version": 1
  },
  "storageLayout": {
    "storage": [
      {
        "astId": 426,
        "contract": "contracts/ClaimableNFT.sol:ClaimableNFT",
        "label": "_initialized",
        "offset": 0,
        "slot": "0",
        "type": "t_uint8"
      },
      {
        "astId": 429,
        "contract": "contracts/ClaimableNFT.sol:ClaimableNFT",
        "label": "_initializing",
        "offset": 1,
        "slot": "0",
        "type": "t_bool"
      },
      {
        "astId": 913,
        "contract": "contracts/ClaimableNFT.sol:ClaimableNFT",
        "label": "__gap",
        "offset": 0,
        "slot": "1",
        "type": "t_array(t_uint256)50_storage"
      },
      {
        "astId": 298,
        "contract": "contracts/ClaimableNFT.sol:ClaimableNFT",
        "label": "_owner",
        "offset": 0,
        "slot": "51",
        "type": "t_address"
      },
      {
        "astId": 418,
        "contract": "contracts/ClaimableNFT.sol:ClaimableNFT",
        "label": "__gap",
        "offset": 0,
        "slot": "52",
        "type": "t_array(t_uint256)49_storage"
      },
      {
        "astId": 3049,
        "contract": "contracts/ClaimableNFT.sol:ClaimableNFT",
        "label": "gelatoRelayEnabled",
        "offset": 0,
        "slot": "101",
        "type": "t_bool"
      },
      {
        "astId": 3051,
        "contract": "contracts/ClaimableNFT.sol:ClaimableNFT",
        "label": "defaultCertificateAuthority",
        "offset": 1,
        "slot": "101",
        "type": "t_address"
      },
      {
        "astId": 3055,
        "contract": "contracts/ClaimableNFT.sol:ClaimableNFT",
        "label": "usedSigner",
        "offset": 0,
        "slot": "102",
        "type": "t_mapping(t_address,t_bool)"
      }
    ],
    "types": {
      "t_address": {
        "encoding": "inplace",
        "label": "address",
        "numberOfBytes": "20"
      },
      "t_array(t_uint256)49_storage": {
        "base": "t_uint256",
        "encoding": "inplace",
        "label": "uint256[49]",
        "numberOfBytes": "1568"
      },
      "t_array(t_uint256)50_storage": {
        "base": "t_uint256",
        "encoding": "inplace",
        "label": "uint256[50]",
        "numberOfBytes": "1600"
      },
      "t_bool": {
        "encoding": "inplace",
        "label": "bool",
        "numberOfBytes": "1"
      },
      "t_mapping(t_address,t_bool)": {
        "encoding": "mapping",
        "key": "t_address",
        "label": "mapping(address => bool)",
        "numberOfBytes": "32",
        "value": "t_bool"
      },
      "t_uint256": {
        "encoding": "inplace",
        "label": "uint256",
        "numberOfBytes": "32"
      },
      "t_uint8": {
        "encoding": "inplace",
        "label": "uint8",
        "numberOfBytes": "1"
      }
    }
  }
}